:020000040800F2
:1000000018080720F9020008F59D0008E7370008E6
:100010007D9D0008F507000865B500080000000098
:1000200000000000000000000000000031AB0008EC
:10003000950B00080000000023A500086DAD000826
:100040001303000813030008130300081303000838
:100050001303000813030008130300081303000828
:100060001303000813030008130300081303000818
:100070001303000813030008130300081303000808
:1000800013030008130300081303000813030008F8
:1000900013030008130300081303000813030008E8
:1000A00013030008130300081303000813030008D8
:1000B00013030008D1AD0008DDAD000813030008EC
:1000C00013030008130300081303000813030008B8
:1000D00013030008EDB4000813030008130300081D
:1000E0001303000813030008130300081303000898
:1000F0001303000813030008130300081303000888
:100100001303000813030008130300081303000877
:100110001303000813030008130300081303000867
:1001200013030008C90A000813030008130300089A
:100130001303000813030008130300081303000847
:100140001303000813030008130300081303000837
:100150001303000813030008130300081303000827
:100160001303000813030008130300081303000817
:10017000130300081303000895090008000000009D
:1001800013030008130300081303000813030008F7
:1001900013030008130300081303000813030008E7
:1001A00013030008130300081303000813030008D7
:1001B00013030008130300081303000813030008C7
:1001C00013030008130300080000000013030008D5
:1001D00013030008130300081303000813030008A7
:1001E0001303000813030008130300081303000897
:1001F000130300081303000800F002F800F06DF884
:100200000AA090E8000C82448344AAF10107DA4571
:1002100001D100F062F8AFF2090EBAE80F0013F056
:10022000010F18BFFB1A43F0010318471C310100EE
:100230003C3101000A444FF0000C10F8013B13F070
:10024000070408BF10F8014B1D1108BF10F8015B2F
:10025000641E05D010F8016B641E01F8016BF9D122
:1002600013F0080F1EBF10F8014BAD1C0C1B09D179
:100270006D1E58BF01F801CBFAD505E014F8016BEB
:1002800001F8016B6D1EF9D59142D6D3704700007D
:100290000023002400250026103A28BF78C1FBD88F
:1002A000520728BF30C148BF0B607047642900F077
:1002B000A180752900F09E80782900F0D7806329FD
:1002C00000F02B82732900F03082002070471FB5A8
:1002D0000DF053F81FBD10B510BD00F059FA1146CE
:1002E000FFF7F5FF0BF0D0FA00F077FA03B4FFF751
:1002F000F2FF03BC0BF05CF909488047094800474E
:10030000FEE7FEE7FEE7FEE7FEE7FEE7FEE7FEE7C5
:10031000FEE7FEE704480549054A064B7047000022
:1003200071AD0008F901000818020720180807201D
:100330001804072018040720704700000FB4044970
:1003400010B503AA029800F0F5F910BC5DF814FB93
:100350003400022070B5044685690068C10601D5E5
:10036000302600E02026C00707D070BDD4E9012167
:1003700030469047206A401C20626D1EF6D570BD45
:1003800070B5044685690078C00707D170BDD4E90F
:10039000012120209047206A401C20626D1EF6D566
:1003A00070BD70B50C460546012A05D02878800638
:1003B00000D5EA69002302E0012305E05B1C9342BB
:1003C00002D2E05C0028F9D1A869E618C01AA86139
:1003D000286A184428622846FFF7BCFF04E0D5E9E4
:1003E000012114F8010B9047B442F8D32846FFF7D7
:1003F000C7FF70BD2DE9F04106460024106875293D
:10040000314616A510D0AFF30080002802DA404232
:1004100013A507E031688A0701D512A502E0490754
:1004200004D511A5012401E0AFF3008000210A22C8
:1004300006F1240709E0B0FBF2FCB0FBF2F302FB8B
:100440001C00303078541846491C0028F3D123464C
:100450002A463046BDE8F04100F0FCB8000000003C
:100460002D0000002B0000002000000070B50446A5
:100470000D4621461068AFF300802188090502D59A
:100480000F4A7A4402E00E4A7A440E32002104F107
:10049000240305E000F00F060009965D5E54491C38
:1004A0000028F7D120780023000704D5702D02D052
:1004B00009B1022311322046BDE8704000F0CAB8ED
:1004C000662B01002DE9F05F894604464FF0000AD3
:1004D000DFF874B1FB44C0F820A02046E1688847EB
:1004E000002874D0252806D0D4E901219047206A3D
:1004F000401C2062F1E700265F462046E1688847FD
:100500002028054607DB312D05D2781910F8200C7C
:1005100008B10643F1E7B00701D526F00406C4F898
:100520001CA00027C4F818A02A2D09D028460BF0DB
:1005300038F838B304EB8708303DC8F8185019E094
:1005400059F8041B204604EB87029161E168884753
:10055000012F054618D1E069002820DA26F0200690
:100560001DE0D8F8180000EB800005EB40003038A3
:10057000C8F818002046E168884705460BF011F8D6
:100580000028EED1012F0AD02E2D08D12046E16897
:1005900088477F1C0546022F46F02006C4DBA06971
:1005A000002803DA404246F00106A061F00701D0BE
:1005B00026F010066C2D0BD0682D09D04C2D39D0AB
:1005C0006A2D35D0742D35D07A2D33D016E038E031
:1005D000E1682F4620468847B842054609D16C2F6E
:1005E00026D04FF48060E1680643204688470546E0
:1005F00004E06C2F1AD04FF4807006430DB3A5F1C0
:100600004100192802D8203546F400664A4629469A
:10061000204626604E46FFF749FE80B101280BD0E8
:10062000F61D26F0070000F1080956E74020E4E730
:100630008020D8E70020D6E706F104094DE72846D8
:1006400052E7206ABDE8F09F3C2B010070477047DD
:10065000704770472DE9F0470D469946924604468B
:1006600000F124080168880604D5E06921F0100132
:10067000216000E00120A84201DD471B00E00027C7
:10068000A1697A1902EB0900081AA0612078C00656
:1006900002D42046FFF75EFE002608E0D4E90121DF
:1006A0001AF806009047206A401C761C20624E45CE
:1006B000F4DB2078C0060AD52046FFF74BFE06E0A3
:1006C000D4E9012130209047206A401C2062381E66
:1006D000A7F10107F4DC07E0D4E9012118F80500CF
:1006E0009047206A401C2062281EA5F10105F3DC1A
:1006F0002046FFF745FE2078000602D50220BDE81F
:10070000F0870120FBE710B5436913B1AFF3008018
:1007100001E0FFF746FE012010BD127800F1240130
:100720000A7000224A700122EDE711684FF0FF3293
:10073000E9E70000074B70B50D467B4400F011F867
:100740000446284600F020F810B14FF0FF3070BD8D
:10075000204670BD37B1000001694A1C026108786B
:10076000704700B58FB0CDE90131002105910549F1
:100770007944CDE9031011466846FFF7A3FE0FB098
:1007800000BD0000E5FFFFFF007B00F08000704728
:10079000754600F02BF8AE4605006946534620F03A
:1007A0000700854618B020B5FFF7B4FDBDE820402E
:1007B0004FF000064FF000074FF000084FF0000B1D
:1007C00021F00701AC46ACE8C009ACE8C009ACE8D0
:1007D000C009ACE8C0098D46704710B50446AFF3B8
:1007E00000802046BDE81040FFF780BD00487047FC
:1007F000B8010720FEE7000070B4BFF34F8FBFF3CE
:100800006F8F1C4900201A4E0860316841F4003196
:100810003160BFF34F8FBFF36F8F17490860BFF38D
:100820004F8F081F154943F6FF750068C0F34E3C13
:10083000C0F3C90405EA4C12204600BF42EA8073A7
:100840000B60401EFAD2BCF1010CF3D2BFF34F8F04
:10085000306840F480303060BFF34F8FBFF36F8F4C
:100860000748016841F00401016070BC7047000056
:1008700014ED00E050EF00E084ED00E060EF00E0F8
:100880009CEF00E070B514460D4606460C4800F09B
:1008900047FBE1010A4CDFF82CC070010023AA01DC
:1008A000C4F800C0E160C4E90130C4E90423204673
:1008B000A36100F0B1FB20680168016070BD000019
:1008C0003C0502200000055010B5806B816C496D1D
:1008D000022906D0012180F83510C16C41F0400199
:1008E000C16400F028FB10BD2DE9FF4F254881B001
:1008F00017460E460E99026842F4800202600068B4
:100900000025214C4FF0007A00F480000090A4F103
:100910005000DFF878B08464A0632068D0F80090BD
:100920004FF480524FF4807C29F0100E4FF00409F0
:100930004FF40038C0F800E0C4F800B00320C4E968
:1009400001A5C4F82490C4E90351C4E90A0525634C
:100950002046C4E90523C4E907C800F063FC20462B
:1009600000F0A4FC002E84F834501CBF05B0BDE894
:10097000F08F3B460649019A05B00348BDE8F04FA9
:1009800000F056BD303802408C0502202864024039
:1009900028000550014800F0E9BA00003C0502209B
:1009A00010B5124C00201049C4E900102062A0606C
:1009B000E06020616061A0616062A062E06220632B
:1009C000204600F029FB2068C16821F01E01C160AB
:1009D0002068C16841F00101C1602068016841F4EC
:1009E0008041016010BD0000000005503C05022060
:1009F0002DE9F0471C4C80461D4616460F462068E0
:100A000020F00100C4F80000D4F800C01CF0010F71
:100A1000FAD1DFF85890D9F80000016821F00101FF
:100A200001604FF6FF7003F05DF82B463246394601
:100A3000404608F023FB00212B463246084609F0C9
:100A400003FC0021084608F0BBF908F0D9FDD9F8ED
:100A50000000016841F001010160206840F00100E0
:100A60002060BDE8F0870000000005508C050220E2
:100A70000021084610B508F0A3F908F0C1FD0648AA
:100A800006490068026842F001020260086840F00E
:100A90000100086010BD00008C0502200000055018
:100AA0000748016821F001010160016811F0010FA0
:100AB000FBD104480068016821F001010160704722
:100AC000000005508C050220274830B4274C284BE5
:100AD0000068DFF8A0C0284AA04204D92749096865
:100AE00001F4006105E0984232D92549096801F412
:100AF0000061002904BF30BC70474FF40061A04280
:100B000088BF204803D8984288BF1F4827D9016072
:100B100000201E490860BFF34F8F081F43F6FF7582
:100B200000681B49C0F34E33C0F3C90405EA431201
:100B3000204600BF42EA807CC1F800C0401EF9D2C6
:100B40005B1EF3D2BFF34F8FBFF36F8F30BC704784
:100B500060458CBF5168116801F40061C9E76045C8
:100B60008CBFD1609160D3E78C05022058640240AD
:100B7000B8600240586002400060024004640240D5
:100B8000006402400C6402400864024084ED00E00E
:100B900074EF00E07047000070B4B3F5804F18BFE9
:100BA0006FF0704105D000BF40F8221070BC0020EB
:100BB00070478D688C89D1E9003C2E028D6950F810
:100BC000221046EA044443EA0C1C044B4CEA040C91
:100BD00019404CEA05031943E6E700000000F0CF96
:100BE0002DE9F003D1E90225D1E904634C68082A14
:100BF00045EA060744EA020848EA0702D1E906C5C1
:100C000042EA03020B68D1E9086442EA0C02D1F817
:100C100030C0D1E90A7842EA05028D6B42EA060645
:100C200050F8232046EA0406144C46EA0706D1F899
:100C3000349046EA080646EA0C0C4CEA050C02EA37
:100C400004024CEA090C4CEA020208BF42F04002DE
:100C500040F823200A6BB2F5801F05D10A684AB11B
:100C6000026842F4801202600A681AB10268496B95
:100C700011430160BDE8F003002070478004C0FF0D
:100C80002DE9F001D1E901438F8900EB8202D1F80F
:100C900000C00D8A1E02154B4CEA041C0C7D46EA6E
:100CA00007464CEA0606D2F804C05F0103EB05587C
:100CB0008D6946EA080607EB046434432C430CF0C4
:100CC000404C44EA0C0CC2F804C0026812F4801FC5
:100CD00007D00A8A416803EB025221F470011143E4
:100CE0004160BDE8F0010020704700000000F0FF07
:100CF00070B4D1E9006CD1E90243D1E90425012E99
:100D000043EA02064CEA040C8C69D1E907324CEA4A
:100D10000606D1F824C046EA050141EA040109D0DB
:100D20000B4301681A4342EA0C026FF30E011143B0
:100D300001600CE005684468134325F4F8424CEA6E
:100D400002021A4302606FF30E042143416070BC3B
:100D500000207047426942EA41014161002070472A
:100D6000F8B515460446D1E9002388686FF01F0CDA
:100D7000C9681A430CEB401040EA41201043009030
:100D8000206100F0C5FC0646A06910F0200F0ED0CF
:100D9000B5F1FF3F07D025B100F0BAFC801BA84297
:100DA00001D90320F8BDA06910F0200FF0D1002078
:100DB000F8BD2DE9F0036FF00F058B68D1E9006CE9
:100DC0002C01761E27044FEA04294FEA043805EB6C
:100DD0000C15B1F810C035430E7E04EB03248B8A4A
:100DE0002543C96809EB0C4408EB035C012A07EBB7
:100DF00006630ED082683E1306EB01310D4302F00C
:100E0000704145EA040242EA0C021A431143816030
:100E100013E00E038168C2682543A6F5805421F4CF
:100E200070412B4321F4700144EA0C0C02F0704233
:100E30001A434CEA01018160C2600020BDE8F00362
:100E40007047000030B494460D4612F0070118BFF9
:100E5000012101EBDC010478421C11FB0CF0812C18
:100E60001378C2B228BF402B2BD3FF2B18BFFF2C07
:100E700027D07F2B34BFA3F14000A3F14100C0B2C3
:100E8000A4F18101254CC9B2BCF10C0FC1EB411397
:100E900003EB811100EB410000FB02F329D0BCF110
:100EA000100F2DD0BCF1180F31D0BCF1200F1CBF9A
:100EB00030BC7047D4F82100C118284630BC0AF075
:100EC00052BB002A04BF30BC704712F0010F4FF034
:100ED0000003A5F1010018BF00F8013F510804BF4D
:100EE00030BC70474370491E00F8023FFAD130BC55
:100EF0007047D4F80900C118284630BC0AF033BB4B
:100F0000D4F81100C118284630BC0AF02CBBD4F824
:100F10001900C118284630BC0AF025BB8C010720F7
:100F200010B5044600F0DDF80020E06484F83500D8
:100F300084F8340010BD704710B50AF0F5FF084C76
:100F4000002001216070074800F0D9FB0648217895
:100F5000491C21700068C16841F00101C16010BDE9
:100F600048000220000402403C0502202DE9F04127
:100F700004460068274F0426056915F0040F0BD0BE
:100F80004661E06C40F00200E06484F83560A06CDB
:100F90000765A06C00F034F915F0020F0DD0216840
:100FA00002204861E06C40F00100E06484F83560A4
:100FB000A06C0765A06C00F023F915F0100F05D0A8
:100FC000216810204861204600F08AF815F0080FCB
:100FD00005D0216808204861204600F0F9F815F096
:100FE000010F08BFBDE8F0812068016811F0020F11
:100FF00003D0C16821F01E01C16020680121C268D0
:1010000022F00102C260206841612046FFF794FF90
:10101000BDE8F081C9080008002804BF012070471E
:1010200070B5044690F83500002804BF204600F053
:1010300059F8022084F835002068284902681140D8
:101040000160201D626990E80B101043A26943EA19
:101050000C03034304F120000B4343EA020C0FC8C6
:101060004CEA000C20684CEA010C216B4CEA0202AD
:10107000D0F800C01A43114341EA0C0101606068D6
:1010800010281ED14FF47F40A17F4FF07F4C257F69
:1010900090FAA0F20302607FB2FA82F293FAA3F30D
:1010A0009CFAACF694F81FC09040B3FA83F3226820
:1010B000B6FA86F699400CFA06F32843194308431A
:1010C0009061206800220121C36843F01E03C360C1
:1010D000E26484F83510104670BD000007F0E0FFB0
:1010E0007047704733484DF804ED87B0016841F010
:1010F00001010160006800F0010005902E480168C0
:1011000041F001010160016801F0010105910168F0
:1011100041F002010160016801F0020105910168DE
:1011200041F004010160016801F0040105910168CA
:1011300041F008010160016801F0080105910168B2
:1011400041F0800101600068022101224FF00D0C86
:1011500000F080000590402003238DE80F10174811
:10116000694600F09BF94FF460700090144869469E
:1011700000F094F94FF43C6000901248694600F08A
:101180008DF9082000901048694600F087F94FF467
:10119000807000900D48694600F080F9002203211C
:1011A0004E2000F0B1FC4E2000F0A1FC07B05DF82D
:1011B00004FB000034380240303802400000024096
:1011C0000004024000080240000C0240001C0240E3
:1011D00010B5084C002001216070074800F08FFA1C
:1011E00006482178491C21700068C16841F0080157
:1011F000C16010BD48000220000402403C050220EE
:1012000090F83510022903D08021416501207047F4
:10121000052180F835100068016821F001010160A6
:1012200000207047002804BF0120704790F8351057
:10123000022904BF02207047002102682123D2F84E
:1012400000C02CF0010CC2F800C0026811600268F6
:101250005160026891600268D160026811610268A1
:10126000536102680F4B02F0FF0CACF1100C6FF3EE
:101270000902A3FB0CC3DFF830C01B09032B1CF8C9
:1012800003C0C0F85CC088BF121D3F23826503FA0B
:101290000CF39360416580F8351080F8341000201D
:1012A00070470000ABAAAAAA9CD300082DE9F0471A
:1012B000044600F02DFA002C054604BF0120BDE8CD
:1012C000F0870026022084F8346084F83500206816
:1012D000016821F0010101602068006810F0010F31
:1012E00011D000BF00F014FA401B052806D92021B8
:1012F0006165032084F83500BDE8F0872068006848
:1013000010F0010FEED1D4E9023CD4E90010D4E989
:10131000047218434CEA0708D4E90653D4E908C715
:1013200040EA0809086849EA0202DFF8F8802A431F
:1013300042EA030200EA080042EA0C02042F42EAF1
:10134000000003D1D4E90B231A431043086023683B
:101350000122606A5969042821F0070140EA01016D
:1013600044D1A06AD4F818C00143BCF1000F0AD0E0
:10137000BCF5005F1CD000281CBF012802282CD01F
:10138000032826D032E020B1012807D002280AD055
:101390002CE0E06A10F0807F1FD127E0E06AB0F116
:1013A000C07F23D119E0E06A10F0807F15D11DE0E5
:1013B00098B1012808D002280FD0032804BFE06AA2
:1013C000B0F1C07F09D011E0E06A10F0807F04D155
:1013D0000CE0E06A10F0807F08D04FF040006065BC
:1013E00084F835204FF00100BDE8F087596120688E
:1013F0000D49C3B2A3F110036FF30900A1FB033140
:101400000A4B4FEA111103295B5CE36588BF001D9D
:101410003F21A06599408160666584F835200020F1
:10142000BDE8F0873F8010E0ABAAAAAA9CD30008D1
:1014300070B490F834404FF0000C012C02BF022031
:1014400070BC704790F83560012580F83450002456
:10145000012E1CBF4FF0020C80F8344002D070BC4B
:1014600060467047022580F8355044650468256859
:1014700025F480252560046863608368402B036839
:1014800003BF9A600268D16099601CBF0168CA609E
:101490000068016841F001010160E0E72DE9F84FC3
:1014A0008F4E002201274FF003094FF00F0800BFB5
:1014B0000B6807FA02FC03EA0C03634540F00A815B
:1014C0004C68022C18BF122C13D14FEAD204D1F869
:1014D00010B04FEA427A00EB8404256A4FEADA6AD8
:1014E00008FA0AFE0BFA0AFA25EA0E054AEA050589
:1014F000256291F804B04FEA4204D0F800A00BF046
:10150000030B09FA04F50BFA04FB2AEA050A4BEA75
:101510000A0AC0F800A0D1F804A0BAF1010F18BF60
:10152000BAF1020F05D0BAF1110F18BFBAF1120FBC
:1015300019D1D0F808A0D1F80CB02AEA050A0BFAA4
:1015400004FB4BEA0A0AC0F808A0D0F804A091F8FE
:1015500004B02AEA0C0CCBF3001B0BFA02FA4AEA9D
:101560000C0CC0F804C0D0F80CC0D1F808A02CEACC
:10157000050C0AFA04F444EA0C0CC0F80CC0D1F8CB
:1015800004C01CF0805F7DD0356822F0030C4FEA68
:10159000827445F4804535604FEA147435680CF167
:1015A000804C0CF5983C05F48045009508FA04FA47
:1015B000DCF80858A0F1804BBBF5003B25EA0A0592
:1015C00008BF4FF0000A48D0A0F1804ABAF5013AAE
:1015D00008BF4FF0010A40D0A0F1804ABAF5023AA4
:1015E00008BF4FF0020A38D0A0F1804ABAF5033A9A
:1015F00008BF4FF0030A30D0A0F1804ABAF5043A90
:1016000008BF4FF0040A28D0A0F1804ABAF5053A85
:1016100008BF4FF0050A20D0A0F1804ABAF5063A7B
:1016200008BF4FF0060A18D0A0F1804ABAF5073A71
:1016300008BF4FF0070A10D0A0F1804ABAF5083A67
:1016400008BF4FF0080A08D0A0F1804ABAF5093A5D
:101650000CBF4FF0090A4FF00A0A0AFA04FA214CAB
:101660004AEA0505CCF808584D68D4F800C015F4CE
:10167000803F2CEA030C18BF4CEA030C1A4DC4F847
:1016800000C000E026E04C68D5F800C014F4003F2C
:101690002CEA030C18BF4CEA030CDFF850A0C5F885
:1016A00000C04C68DAF800C014F4801F2CEA030C68
:1016B00018BF4CEA030C0E4CCAF800C04D68D4F8B1
:1016C00000C015F4001F2CEA030C18BF4CEA030CF1
:1016D000C4F800C0521C102AFFF4EAAEBDE8F88F2F
:1016E00044380240003C0140043C0140083C0140B9
:1016F0000C3C01400069084018BF01207047426956
:10170000514041617047002A08BF09048161704758
:101710000148006870470000280002200248016864
:10172000491C01607047000028000220074810B5DE
:10173000016841F400710160052000F015FA0F20E6
:1017400000F006F800F0D2F9002010BD003C024085
:10175000084A10B504464FF47A701268B2FBF0F0F4
:1017600001F072FB00222146501E00F0CDF900204E
:1017700010BD0000240002202DE9F05F044690F81F
:10178000A000012804BF0220BDE8F09F012502202F
:1017900002EB820384F8A05084F8A10003EBC2009E
:1017A000B1E8C81F04EB80003830A0E8C81F91E8FA
:1017B000C811203980E8C811204608F09FF9216837
:1017C00000204D6284F8A15084F8A000BDE8F09F8D
:1017D000002804BF0120704770B5044690F8A100AE
:1017E000002520B9204684F8A05000F081F83F4839
:1017F000022184F8A110012221688B6923F0704333
:101800008B61D4E9013C43EA0C03D4E9031C41EAAF
:101810000C0C216843EA0C03D1F818C043EA0C030E
:101820008B6121688B6803408B602168A38AD4F8A0
:1018300018C08E6846EA0C0C4CEA03438B602168A2
:10184000CB680340CB602168A38BD4F820C0CE685E
:1018500046EA0C0C4CEA0343CB6021680B69034059
:101860000B612168A38CD4F828C00E6946EA0C0CE1
:101870004CEA03430B6121684B69184048612068BA
:10188000A18D236BD0F814C04CEA030343EA014155
:101890004161216894F8353094F83600D1F82CC0B5
:1018A00000040CF07F4CC1F82CC040EA03212068F2
:1018B00094F83430D0F82CC04CEA03031943C162C9
:1018C0002068416B41F0040141632068416B41F0A5
:1018D000020141632068816941F001018161C4F81E
:1018E000A45084F8A120002070BD000000F800F092
:1018F000344810B586B0016841F08061016000682D
:1019000000F0806005903048016841F400010160FA
:10191000016801F400010591016841F002010160D4
:10192000016801F002010591016841F020010160A8
:10193000016801F020010591016841F0400101605A
:10194000016801F040010591016841F080010160EA
:10195000016801F080010591016841F48071016026
:1019600000680324202100F4807005900120CDE957
:101970000204CDE9001015486946FFF78FFD0221EA
:1019800000220E2304934FF480608DE81700104866
:101990006946FFF783FD4FF40C6000900D486946DF
:1019A000FFF77CFD4FF47E4000900B486946FFF73F
:1019B00075FD40F2F760009008486946FFF76EFD3C
:1019C00006B010BD443802403038024000040240E6
:1019D0000014024000180240001C02400020024097
:1019E00070B5044690F8A0008C46012804BF022080
:1019F00070BD03EB830000EBC301012584F8A05008
:101A0000022004EB810184F8A100C1F838C0086EFF
:101A10006044C1E90F02486E1044486438311A46E8
:101A2000204608F06BF8216800204D6284F8A15030
:101A300084F8A00070BD70B5044690F8A0008C46F4
:101A4000012804BF022070BD03EB830000EBC3003C
:101A5000012504EB800084F8A050002600F1380135
:101A6000022084F8A1002046C1E9006CC1E90262AD
:101A7000C1E90AC21A4608F041F82068456284F8B4
:101A8000A150002084F8A06070BD0000DFF858C0AD
:101A9000F0B443780CF10402111DCCF80030037847
:101AA000002B04BF002010601BD043681360057B2F
:101AB000C37A827A90F80DC02F07847B47EA0367C8
:101AC000C57B47EAC242467A42EA8C42037A42EA3E
:101AD000444242EA0542007842EA062242EA4302D0
:101AE00010430860F0BC704798ED00E07047410972
:101AF00000F01F008A00012102F1E02201FA00F04B
:101B0000C2F8000170470000164B30B41B68C3F3E5
:101B10000223C3F1070CBCF1040F88BF4FF0040C83
:101B20001C1D072C34BF0023DB1E012404FA0CFC0F
:101B300004FA03F5ACF101042140A5F1010C994030
:101B40000CEA0202114300284FEA0111B8BF00F06D
:101B50000F0000F1E020B4BF80F8141D80F80014DD
:101B600030BC70470CED00E0074900F007004FF66D
:101B7000FF030A681A4042EA002040F0FD7040F07E
:101B800080600860704700000CED00E01C4838B52C
:101B9000016841F08051016000681A4D00F08050EA
:101BA0000090286840F480302860FFF7B1FD0446BB
:101BB000686810F4803F09D1FFF7AAFD001BB0F55B
:101BC0007A7F15D8686810F4803FF5D0286840F413
:101BD00000302860FFF79CFD0446686810F4003F61
:101BE0000CD100BFFFF794FD001BB0F57A7F01D93F
:101BF000032038BD686810F4003FF3D0002038BDE2
:101C000040380240007000402DE9F84F16468A46E1
:101C10000446FFF77DFD834694F83800012804BF91
:101C20000220BDE8F88F01274FF0000884F83870D3
:101C300094F83900012818BF022504D084F83880B0
:101C40002846BDE8F88F4FF00209C4F83C8084F8BC
:101C50003990002220215B462046009608F0BCFD0A
:101C60000500EBD100225146204608F05BFCDAF873
:101C70002400002818BF84F83970DFD101225B46A8
:101C800002212046009608F0A7FD0500D6D1206865
:101C9000C0F80C9084F83970D0E72DE9F84F15465C
:101CA0008A460446FFF734FD81462068816994F82E
:101CB000382000F12006012A04BF0220BDE8F88F79
:101CC00001274FF0000884F8387094F83920012A71
:101CD00018BF022003D084F83880BDE8F88FBAF12D
:101CE000000FC4F83C8035D0222284F839200269E4
:101CF000521C62860269521C2286C4F82CA04269DA
:101D000022F0406242F08062426120688161608E10
:101D100090B101224B4606212046009508F05CFD5B
:101D2000A8B93178E06A421CE2620170608E401E00
:101D30006086608E0028ECD101224B4602212046AD
:101D4000009508F049FD10B922680221D16084F89D
:101D50003970C0E7E16B012041F00801E163BAE7A7
:101D60002DE9F84F04460078DFF824844FF000098D
:101D700010F0010FCA4610D0D8F8000020F400007F
:101D8000C8F80000D8F80000616B0843C8F80000EC
:101D9000606B002808BF4FF00109FE4D206810F469
:101DA000002F10D0E06B296821F44011084328600F
:101DB000E06BB0F5801F08BF4FF0010903D0002889
:101DC00008BF4FF0010A206810F4801F10D0206C6B
:101DD000296821F4400108432860206CB0F5800F89
:101DE00008BF4FF0010903D0002808BF4FF0010AD7
:101DF000206810F0807F18BF4FF0010910F0200F0D
:101E000060D0E548016841F0805101600068E34F0F
:101E100000F080500090386840F480703860FFF720
:101E200077FC0646386810F4807F09D1FFF770FC14
:101E3000801B642800F24D83386810F4807FF5D051
:101E4000D74F386810F4407028D0218E01F44071CB
:101E5000814223D03868396820F4407041F48031E1
:101E60003960396821F4803139603860386810F0A1
:101E7000010F13D0FFF74CFC0646386810F0020F34
:101E800008BF41F2883B09D1FFF742FC801B58454F
:101E900000F21F83386810F0020FF5D0206B4FF46A
:101EA000407181431CBFD8F8000020F4F81000F006
:101EB000F58000BFC8F80000208E3968C0F30B0021
:101EC00008433860207810F0100F07D0286820F001
:101ED000807028602868A16B084328602188B14879
:101EE00011F4804F05D0616E026822F44032114334
:101EF0000160218811F4004F05D0A16E026822F420
:101F0000402211430160216811F4803F05D0E16E49
:101F1000026822F4401211430160216811F4003F6D
:101F200005D0216F026822F440021143016021783C
:101F300011F0400F05D0616C026822F003021143DA
:101F40000160217811F0800F05D0A16C026822F0A9
:101F50000C0211430160218811F4807F05D0E16CEF
:101F6000026822F0300211430160218811F4007FE1
:101F700005D0216D026822F0C00211430160218862
:101F800011F4806F05D0616D026822F44072114334
:101F90000160218811F4006F05D0A16D026822F460
:101FA000406211430160218811F4805F05D0E16D2A
:101FB000026822F4405211430160218811F4005F4D
:101FC00005D0216E026822F440421143016021686D
:101FD00011F4800F05D0A16F026822F080621143D6
:101FE0000160216811F4001F0BD0E16F026822F03C
:101FF000006211430160E16FB1F1006F08BF4FF063
:10200000010A216811F0080F18BF4FF0010A11F4FE
:10201000802F05D0616F026822F040721143016089
:10202000216811F4000F06D0D4F88010026822F065
:10203000805211430160216811F0806F06D0D4F8FE
:102040008410026822F0005211430160206810F0F1
:10205000006F06D0D4F88800296821F00071084389
:102060002860206810F0805F06D0D4F88C002968C2
:1020700021F0806108432860B9F1010F47F6C0796B
:102080004FF440364FF070674FF0E0481CBF2068B7
:10209000B0F1007F0DD000F02CB900BFD8F80010CF
:1020A00020F4407020F0704021F4F81141EA000063
:1020B00000E73D48016821F080610160FFF728FBDF
:1020C00083463948006810F0006F0BD0FFF720FB03
:1020D000A0EB0B00642800F2FC813348006810F08C
:1020E000006FF3D1207810F0010F34D0606B90BBFB
:1020F0002E4A106896FAA6F1126897FAA7F300F430
:102100004030D4F804C0B1FA81F199FAA9FBC84073
:1021100002F07061B3FA83F296FAA6FEBBFA8BF373
:10212000BEFA8EFBD14097FAA7FE0CFA03F2BEFA74
:102130008EF3D4F808C000FA0BF098FAA8FEDFF886
:102140006CB010439940BEFA8EF208430CFA02F1CB
:102150000843CBF80000206810F4002F03D0E16B97
:10216000B1F5801F06D010F4801F4CD0206CB0F564
:10217000800F48D10D49086896FAA6F2096800F464
:102180004030B2FA82F296FAA6FC99FAA9FB0FE067
:10219000083802408C38024040380240007000404D
:1021A00070380240903802400038024084380240C3
:1021B000D04097FAA7F26368BCFA8CFCB2FA82FEB0
:1021C000BBFA8BFB98FAA8F200FA0CF003FA0BF3B7
:1021D00001F0E041D4F80CB0B2FA82F298FAA8FC0F
:1021E000D1401843C04BBCFA8CFC0BFA0EF21043E2
:1021F00001FA0CF1084318602868616A20F01F0298
:10220000481E10432860206810F0807F33D0B64A03
:10221000106897FAA7F1126896FAA6FB00F07060B2
:10222000B1FA81F199FAA9FCC8400090BBFA8BFB86
:102230002169BCFA8CFC606898FAA8F302F0E042CD
:1022400001FA0BF100FA0CF097FAA7FB40EA010E35
:102250000098B3FA83F3A449BBFA8BFC98FAA8FB65
:10226000DA4000FA0CF3BBFA8BF04EEA030302FAF1
:1022700000F018430860206810F0007F20D099FA21
:10228000A9F1606896FAA6F3D4F808E0D4E903C28D
:10229000B1FA81F1B3FA83F300FA01F197FAA7FBDF
:1022A00091489A40BBFA8BF398FAA8FB11430CFAB9
:1022B00003F2BBFA8BF311430EFA03F211430160F0
:1022C0008A48016841F080610160FFF721FA834686
:1022D0008648006810F0006F0BD100BFFFF718FAB6
:1022E000A0EB0B0064287CD88048006810F0006FD9
:1022F000F4D0BAF1000F75D0DFF8F0A1DAF80000E1
:1023000020F08050CAF80000FFF702FA8346DAF89E
:10231000000010F0005F0AD0FFF7FAF9A0EB0B0005
:1023200064285ED8DAF8000010F0005FF4D120686D
:1023300010F4002F01D0E16B21B110F4801F3CD0CC
:10234000206CD0BB6A49086896FAA6F2096800F4C6
:102350004030B2FA82F2636996FAA6FCD04099FA4C
:10236000A9FB97FAA7F2BCFA8CFCB2FA82FEBBFA80
:102370008BFB98FAA8F200FA0CF003FA0BF301F0C9
:10238000E041D4F818B0B2FA82F298FAA8FCD14031
:102390001843574B0BFA0EF2BCFA8CFC104301FAAF
:1023A0000CF1084318606FF0FF0B2868A16A20F455
:1023B000F8500BEB012108432860206810F4001F3F
:1023C00039D0E06FB0F1006F35D14949086897FA0C
:1023D000A7F3096898FAA8F299FAA9FCB2FA82F26E
:1023E00001E076E07DE096FAA6FB00F07060B3FABB
:1023F00083F3BBFA8BFED4F820B0D8406369BCFAF3
:102400008CFC0BFA0EFB97FAA7FE03FA0CF301F013
:10241000E041BEFA8EFC98FAA8FED14000FA0CF218
:1024200043EA0B0B324BBEFA8EF04BEA020201FA82
:1024300000F010431860207810F0080F36D02C48B8
:102440000268016896FAA6F396FAA6FCD4F814B0CE
:1024500001F44031B3FA83F397FAA7F699FAA9F990
:10246000D94002F07062B6FA86F3B9FA89F6DA401A
:10247000BCFA8CFC0BFA06F397FAA7F701FA0CF6F4
:10248000B7FA87F1D4F81CC098FAA8F702FA01F15C
:10249000B7FA87F2334319430CFA02F21143016091
:1024A0002868E16A20F4403008432860DAF8000028
:1024B00040F08050CAF80000FFF72AF90446DAF825
:1024C000000010F0005F0CD1FFF722F9001B642818
:1024D00002D90320BDE8F88FDAF8000010F0005FA1
:1024E000F2D00020BDE8F88F843802400038024066
:1024F000883802402DE9F047DFF8E48106460F46B0
:10250000D8F8000000F00F00B8420CD2D8F8000054
:1025100020F00F003843C8F80000D8F8000000F0A1
:102520000F00B84272D130786E4D10F0020F05D016
:10253000B068296821F0F00108432860307810F075
:10254000010F50D070686849012821D0096802281D
:1025500023D011F0020F59D0296821F0030108435C
:102560002860FFF7D5F80446706841F288390128E1
:1025700017D00228286800F00C0022D000B300BF5A
:10258000FFF7C6F8001B484529D90320BDE8F087AE
:10259000096811F4003FDFD138E011F0007FDBD192
:1025A00034E0286800F00C0004281CD0FFF7B0F8D5
:1025B000001B4845E9D8286800F00C000428F5D134
:1025C00011E008280FD000BFFFF7A2F8001B484514
:1025D000DBD8286800F00C000828F5D103E0286853
:1025E00010F00C0FCCD1D8F8000000F00F00B8426A
:1025F0000FD9D8F8000020F00F003843C8F80000C9
:10260000D8F8000000F00F00B84202D00120BDE869
:10261000F087307810F0040F05D0F068296821F4B5
:10262000E05108432860307810F0080F06D0306978
:10263000296821F4604141EAC00028602B482968DC
:1026400011F00C0138D02A4B042908BF184633D0AA
:10265000082931D1274947F6C07C0A680C6802F086
:102660003F0214F4800F0CD00868B3FBF2F29CFA1E
:10267000ACF300EA0C00B3FA83F3D84002FB00F29B
:102680000CE00B68B0FBF2F09CFAACF203EA0C032E
:10269000B2FA82F223FA02F200FB02F208684FF467
:1026A000403393FAA3F100F44030B1FA81F1C8400D
:1026B000401C4000B2FBF0F02968F02292FAA2F22E
:1026C00001F0F001B2FA82F2D1400B4A515CC840ED
:1026D0000A4908600F20FFF73BF80020BDE8F087AB
:1026E000003C024008380240003802400024F40058
:1026F00040787D010438024084D300082400022081
:1027000008484FF4E052016892FAA2F2064801F438
:10271000E051B2FA82F2D140044A0068515CC840EC
:1027200070470000083802402400022094D30008BB
:1027300008484FF46042016892FAA2F2064801F498
:102740006041B2FA82F2D140044A0068515CC8404C
:1027500070470000083802402400022094D300088B
:1027600021492248096811F00C0108BF7047204B2D
:10277000042904BF18467047082918BF70474DF850
:10278000044D47F6C0711B4AD2F800C014680CF023
:102790003F0C14F4800F0BD01068B3FBFCF391FADC
:1027A000A1FC0840BCFA8CF1C84003FB00F00AE031
:1027B0001368B0FBFCF091FAA1FC1940BCFA8CF351
:1027C000D94000FB01F011684FF440335DF8044B31
:1027D00093FAA3F201F44031B2FA82F2D140491CDB
:1027E0004900B0FBF1F07047083802400024F400C3
:1027F00040787D01043802402DE9F84FF74F054637
:102800000078A7F1040810F0010FA8F1040659D0D0
:10281000386800F00C00042809D0386800F00C007B
:1028200008280DD1D8F8000010F4800F08D03068C7
:1028300010F4003F46D06868002800F0CB8141E0EA
:102840006868B0F5803F04BF306840F480300AD03B
:1028500010B1B0F5A02F11D0306820F48030306076
:10286000306820F4802030606868D0B1FEF750FFF7
:102870000446306810F4003F08D023E0306840F48C
:1028800080203060306840F48030ECE7FEF740FF95
:10289000001B642800F23781306810F4003FF5D047
:1028A00010E0FEF735FF0446306810F4003F09D011
:1028B000FEF72EFF001B642800F22581306810F41B
:1028C000003FF5D1287810F0020F5CD038684FF047
:1028D000F80910F00C0F18D0386800F00C00082828
:1028E00004BFD8F8000010F4800F0ED0E86800286C
:1028F000306834D040F001003060FEF709FF044634
:10290000306810F0020F15D01DE0306810F0020F93
:102910001CBFE868012840F05D812869316899FA98
:10292000A9F2B2FA82F221F0F80100FA02F041EACB
:10293000000012E0FEF7ECFE001B02287ED8306893
:1029400010F0020FF6D02969306899FAA9F2B2FAAC
:1029500082F220F0F80091400843306013E020F04C
:1029600001003060FEF7D4FE0446306810F0020F1C
:1029700009D000BFFEF7CCFE001B02285ED83068ED
:1029800010F0020FF6D1287810F0080F34D0DFF8DD
:10299000509268690028D9F8000016D040F0010074
:1029A000C9F80000FEF7B4FE0446D9F8000010F0A4
:1029B000020F21D1FEF7ACFE001B02283ED8D9F849
:1029C000000010F0020FF5D016E020F00100C9F869
:1029D0000000FEF79DFE0446D9F8000010F0020F3B
:1029E0000AD000BFFEF794FE001B022826D8D9F8B3
:1029F000000010F0020FF5D1287810F0040F69D014
:102A00007848016841F0805101600068DFF8D89192
:102A100000F080500090D9F8000040F48070C9F8B0
:102A20000000FEF775FE0446D9F8000010F4807F20
:102A30000CD100BFFEF76CFE001B00E063E06428D1
:102A400061D8D9F8000010F4807FF3D0A868674CF3
:102A5000012804BF206840F0010009D008B1052812
:102A600013D0206820F001002060206820F00400CE
:102A70002060A86841F2883AD0B1FEF749FE81464D
:102A8000206810F0020F08D024E0206840F0040015
:102A90002060206840F00100EAE7FEF739FEA0EB75
:102AA000090050452FD8206810F0020FF5D011E032
:102AB000FEF72EFE8146206810F0020F0AD000BFFC
:102AC000FEF726FEA0EB090050451CD8206810F048
:102AD000020FF5D1A869E8B3396801F00C010829A3
:102AE00078D00228306820F0807030600ED0FEF779
:102AF0000FFE0446306810F0007F68D0FEF708FE35
:102B0000001B02285FD90320BDE8F88FFEF700FE06
:102B10000446306810F0007F09D000BFFEF7F8FDD2
:102B2000001B0228EFD8306810F0007FF6D1D5E9FD
:102B300009C147F6C0704FF0FF324FF4403790FAAA
:102B4000A0F497FAA7F002EB51074FF07069B4FABE
:102B500084F100E03BE0D5E90732B0FA80F00CFAEE
:102B600001FA07FA00F043EA020199FAA9F74FF0D7
:102B7000E0444AEA0003D5E90BC294FAA4F4B7FA98
:102B800087F019430CFA00F0B4FA84F3084302FA10
:102B900003F10843C8F80000306840F080703060EE
:102BA000FEF7B6FD0446306810F0007F0FD100BF7D
:102BB000FEF7AEFD001B0228A5D8306810F0007F9C
:102BC000F6D004E006E0306810F0007F96D10020D7
:102BD000BDE8F88F0120BDE8F88F000008380240FA
:102BE00074380240403802400070004070380240A3
:102BF000002804BF0120704770B5044690F82C00EF
:102C00000D4628B9002084F82D00204600F012F867
:102C1000022084F82C002068211DFEF769F8D4E911
:102C200000022946FEF7C5F8012084F82C00002098
:102C300070BD00002F484DF804ED87B0016841F0E9
:102C400001010160006800F0010005902A48016858
:102C500041F004010160016801F00401059101687F
:102C600041F008010160016801F008010591016867
:102C700041F010010160016801F010010591016847
:102C800041F020010160016801F020010591016817
:102C900041F0400101600068022101224FF00C0C5C
:102CA00000F0400005900D2003238DE80F1013481D
:102CB0006946FEF7F3FB4CF203700090104869463A
:102CC000FEF7ECFB4FF6837000900E486946FEF766
:102CD000E5FB4FF63F0000900B486946FEF7DEFB30
:102CE00048F23710009009486946FEF7D7FB07B055
:102CF0005DF804FB383802403038024000080240DA
:102D0000000C024000100240001402400018024073
:102D100010B5044690F82C00022808BF10BD022010
:102D200084F82C002068FEF715F8012084F82C00A8
:102D3000002010BD70B5044690F82C000D46022806
:102D400008BF70BD022084F82C002068FEF708F848
:102D5000286802280CBF0520012084F82C000020E0
:102D600070BD002804BF0120704770B5044690F87C
:102D7000450015460E4628B9002084F84400204638
:102D800000F01AF8206804F10801FDF729FFA26895
:102D900031462068FDF774FFE36A2946D4E9010251
:102DA000FDF7FAFEA168206850F8212042F00102E8
:102DB00040F82120002070BD19484DF804ED87B07F
:102DC000016841F001010160006800F00100059018
:102DD0001448016841F008010160016801F0080130
:102DE0000591016841F01001016000680221012293
:102DF0004FF00C0C00F01000059003234EF2B3705E
:102E00008DE80F1008486946FEF748FB4FF68070C2
:102E1000009006486946FEF741FB07B05DF804FBE9
:102E20003838024030380240000C024000100240A6
:102E300004284FF0E02001690CBF41F0040121F0AB
:102E40000401016170470000401EB0F1807F24BF83
:102E5000012070474FF0E0214861F020034A82F8DA
:102E6000140D0020072288610A6170470FE000E01E
:102E700070477047002804BF0120704710B5044612
:102E800090F83900002804BF204600F00DF8022019
:102E900084F839002068211D07F0BAFF012084F86A
:102EA0003900002010BD0000094808B5016841F054
:102EB0000201016000680322012100F0020000907D
:102EC0001D20FEF721FEBDE808401D20FEF70FBEC5
:102ED000403802400168CA6842F00102CA600068D6
:102EE000016841F00101016000207047704770B532
:102EF000044600680025016911F0020F1CBFC1687B
:102F000011F0020F13D001216FF00202026121764D
:102F10002068806910F0030F204602D0FFF7E6FF1B
:102F200004E000F0A6F8204600F0A8F92576206815
:102F3000016911F0040F1CBFC16811F0040F13D018
:102F400002216FF00402026121762068806910F48A
:102F5000407F204602D0FFF7C9FF04E000F089F867
:102F6000204600F08BF925762068016911F0080FE2
:102F70001CBFC16811F0080F13D004216FF00802C4
:102F8000026121762068C06910F0030F204602D04C
:102F9000FFF7ACFF04E000F06CF8204600F06EF99B
:102FA00025762068016911F0100F1CBFC16811F06F
:102FB000100F13D008216FF01002026121762068F3
:102FC000C06910F4407F204602D0FFF78FFF04E075
:102FD00000F04FF8204600F051F92576206801698D
:102FE00011F0010F1CBFC16811F0010F05D06FF087
:102FF00001010161204600F063F920686FF080054F
:10300000016911F0800F1CBFC16811F0800F03D05F
:1030100005612046FFF72CFF2068016911F4807FCD
:103020001CBFC16811F0800F03D005612046FFF777
:103030001FFF2068016911F0400F1CBFC16811F02B
:10304000400F05D06FF040010161204600F050F9BB
:103050002068016911F0200F1ABFC16811F0200F1C
:1030600070BD6FF0200101612046BDE87040FFF7A0
:1030700000BF70472DE9F047044690F838000D4630
:1030800001280DBF0220012684F83860BDE8F087D2
:1030900002200C2A84F8390047D006DC6AB1042AE1
:1030A0001DD0082A2FD000F0C0B8DFF890C1102A38
:1030B000634B4ED0142A7DD0B7E0206807F00AFF9A
:1030C0002068816941F0080181612068816921F0EF
:1030D00004018161206829698269114311E0206837
:1030E00007F02BFF2068816941F40061816120684D
:1030F000816921F48061816120682969826942EADD
:103100000121816191E0206807F04DFF2068C169CD
:1031100041F00801C1612068C16921F00401C16169
:1031200020682969C269114311E0206807F071FF26
:103130002068C16941F40061C1612068C16921F45E
:103140008061C16120682969C26942EA0121C161C7
:103150006BE02068016A21F480310162076A4168EE
:10316000426D6045B5F8089027F40037D5F8008027
:1031700022F0700222F4803247EA094C48EA020247
:1031800018BF984204D16B6921F4803141EA0321D0
:103190004160426569688165C0F820C02068416D62
:1031A00041F0080141652068416D21F0040141654D
:1031B000206800E004E02969426D42EA010133E041
:1031C0002068016A21F480110162026A4168476D3A
:1031D0006045B5F8089022F40012D5F8008027F475
:1031E000E04C2CF0807C42EA09524CEA082C18BFD3
:1031F000984204D16B6921F4802141EA8321416026
:10320000C0F854C06968C16502622068416D41F42C
:10321000006141652068416D21F48061416520684D
:103220002969426D42EA012141654FF0000084F8AE
:10323000396084F83800BDE8F087000000000140E4
:1032400000040140002804BF0120704710B5044667
:1032500090F8390028B9002084F83800204600F0A2
:103260000CF8022084F839002068211D07F0D0FDF9
:10327000012084F83900002010BD704770470268B3
:10328000012303FA01F1136A8B431362136A194392
:1032900011620168A1F18042B2F580321CBFA1F138
:1032A0008042B2F5823203D14A6C42F400424A6451
:1032B0000068016841F001010160002070470000D2
:1032C0000649884218BF704710B5054C05A0217803
:1032D000FDF734F80020207010BD0000EC0502203E
:1032E000480002206672616D653A25640D0A00008F
:1032F0007047704770B5016804462025C8690A68A0
:103300008B6810F00F0F5CD040F2011C13EA0C0F19
:1033100000F0FB8010F0010F18BF12F4807F07D07F
:103320004FF0010CC1F820C0E16E41F00101E166EF
:1033300010F0020F18BF13F0010F08D0D4F800C02E
:103340000221CCF82010E16E41F00401E16610F09A
:10335000040F18BF13F0010F08D0D4F800C00421E7
:10336000CCF82010E16E41F00201E16610F0080F88
:103370000CD002F0200103F00103194306D02368AA
:1033800008211962E16E41F00801E166E16E002951
:1033900008BF70BD10F0200F18BF12F0200F0BD027
:1033A00094F86A202046B4F85C10222A48D020689D
:1033B000816941F008018161E06E10F0080F76D15B
:1033C00070E010F0200F18BF12F0200F69D094F8B1
:1033D0006A302046B4F85C20222B04D0886940F083
:1033E0000800886170BD8368B3F5805F04BF03691E
:1033F000002B4B6A416D03EA02021CD001F101036C
:1034000043650A70B0F85A10A1F101010904090CD2
:10341000A0F85A1018BF70BD01680A6822F49072B3
:103420000A6001688A6822F001028A6080F86A50A6
:1034300000F0D7F970BD0A80416D891C4165E1E754
:103440008268B2F5805F04BF0269002A0368426D9A
:103450005B6A1FD002F1010CC0F854C003EA0101FD
:1034600082F80010B0F85A10A1F101010904090C0A
:10347000A0F85A10A0D101680A6822F490720A607C
:1034800001688A6822F001028A6080F86A5000F0C0
:10349000A8F991E719401180416D891C4165E1E768
:1034A00005E032E02068806810F0400F27D02068E7
:1034B000016821F4907101602068816821F00101A8
:1034C000816084F86A502068816811F0400F12D042
:1034D000816821F040018160606E60B12E49016514
:1034E000606EFDF78DFE002808BF70BD606E016D37
:1034F000BDE8704008472046FFF7FBFE70BD204640
:10350000FFF7F7FE0020E06670BD10F0800F18BFD7
:1035100012F0800F30D094F86900212818BF70BDD8
:10352000B4F85200A8B1A068B0F5805F04BF20696C
:103530000028E06C17D000F10101E16421680078F7
:10354000C1F82800B4F85200A0F10100A4F852001C
:1035500070BD086820F0800008602068016841F0B4
:103560004001016070BD0088C0F308008862E06C13
:1035700000F10200E064E5E710F0400F14BF12F024
:10358000400F70BD0A68204622F040020A6084F8AD
:10359000695000F027F970BDA5B10008002804BFEC
:1035A0000120704710B5044690F8690028B9002042
:1035B00084F86800204600F029F8242084F8690087
:1035C0002068016821F001010160204607F0F4FD48
:1035D000012808BF10BD606A00281CBF204607F004
:1035E00044FD2068416821F4904141602068816871
:1035F00021F02A0181602068016841F00101016029
:103600002046BDE8104007F09DBD000030B50446DF
:10361000006887B0A0F18041B1F588311CBF07B0C8
:1036200030BD1A48016841F001010160006800F0F6
:10363000010005901648016841F010010160006822
:103640000122144D072300F010000590022004937E
:103650000102CDE90010CDE9022069462846FDF7B8
:103660001DFF2815694600902846FDF717FF2068C2
:10367000016841F0200101602520FEF738FA03229D
:1036800025201146FEF740FA07B030BD3038024021
:1036900044380240000002402DE9F05F044690F8F3
:1036A0006A001D4617460E46202868D1002E12BF1C
:1036B000002F0120BDE8F09F94F8680001285ED03B
:1036C000012084F8680022214FF0000BC4F86CB090
:1036D00084F86A10FEF71CF88046A068FF21A4F861
:1036E0005870B0F5805FA4F85A7006D04FF07F0292
:1036F00050B1B0F1805F0CD012E02069002808BF03
:1037000040F2FF1002D109E02069B8BBA4F85C10B8
:1037100006E02069002818BF3F2031D0A4F85C00E3
:10372000B4F85C9009F0FF0AB4F85A00401EA4F8FF
:103730005A0020682027C06937EA000028D000BF5F
:10374000B5F1FF3F1FD02DB1FDF7E2FFA0EB08015F
:10375000A94218D3216820200A6822F4D0720A6096
:1037600021688A6822F001028A6084F8690084F87E
:103770006A00032084F868B0BDE8F09F00E02CE008
:10378000A4F85C20CCE72068C06937EA0000D7D1F4
:10379000A068B0F5805F04BF2069002814D02068BD
:1037A000406A00EA0A0006F8010B00BFB4F85A00AC
:1037B0000028B9D14FF0200084F86A004FF00000D3
:1037C00084F868B0BDE8F09F2168304606F1020633
:1037D000496A01EA09010180E8E74FF00200BDE80B
:1037E000F09F70477047FEE7114810B586B001683A
:1037F00041F080010160006802220E4C302100F08F
:10380000800005900120CDE90202CDE90010694653
:103810002046FDF743FE012220462021FDF773FFDD
:10382000012220461021FDF76EFF06B010BD0000FA
:1038300030380240001C02402DE9F041374E074667
:1038400000243068254620F44060306030683060E5
:10385000002210213046FDF756FF022007F0B8FF86
:10386000012230461021FDF74EFF60062021040E94
:103870003046FDF73FFF00281CBF601CC4B201208A
:1038800007F0A6FF681CC5B2082DE1D34FF0000277
:103890004FF0100130460FB3FDF735FF306820F4CC
:1038A00040603060306840F4806030600022304614
:1038B0002021FDF728FF022007F08AFF0122304671
:1038C0001021FDF720FF022007F082FF0022304682
:1038D0001021FDF718FF2046BDE8F081FDF713FF2A
:1038E000306820F440603060306840F480603060C0
:1038F000012230462021FDF706FF022007F068FF75
:10390000012230461021FDF7FEFE022007F060FF85
:10391000002230461021FDF7F6FEDCE7001C0240D5
:1039200070B51C4C06462046216821F44061216098
:10393000216841F48061216000221021FDF7E3FE3F
:103940005FF0000516F0800F05D0012220462021EF
:10395000FDF7D9FE04E0002220462021FDF7D3FE2A
:103960007006060E022007F033FF012220461021C8
:10397000FDF7C9FE022007F02BFF00222046102190
:10398000FDF7C1FE022007F023FF681CC5B2082D19
:10399000D8D370BD001C024010B5124C206820F432
:1039A00040602060206840F4806020600122204652
:1039B0002021FDF7A8FE012220461021FDF7A3FEDD
:1039C000042007F005FF002220462021FDF79BFE82
:1039D000042007F0FDFE00222046BDE81040102123
:1039E000FDF791BE001C024010B5124C206820F477
:1039F00040602060206840F4806020600022204603
:103A00001021FDF780FE002220462021FDF77BFEDD
:103A1000042007F0DDFE012220461021FDF773FE91
:103A2000012220462021FDF76EFEBDE81040042053
:103A300007F0CEBE001C024070B5294D0024286856
:103A400020F4406028602868286001222021284650
:103A5000FDF759FE012007F0BBFE01222846102188
:103A6000FDF751FE012007F0B3FE20212846FDF7A7
:103A700041FE00282DD0611CCCB2FA2C23D9286835
:103A800020F440602860286840F4806028600022AC
:103A900028461021FDF737FE002228462021FDF799
:103AA00032FE042007F094FE012228461021FDF783
:103AB0002AFE012228462021FDF725FE042007F0DA
:103AC00087FE012070BD20212846FDF713FE002847
:103AD000D1D1002228461021FDF715FE002070BD2F
:103AE000001C024070B506461448134D0168288832
:103AF00021B13046BDE8704005F0B2BD698801FBD8
:103B000000F40021084605F05BF90D49288908807A
:103B1000002C08BF70BD04F001010A48B2B20129AF
:103B200008BF0280A14228BF70BD891C0280A1424B
:103B30000280FAD370BD000020040220D8040220C5
:103B4000FEFF0760000008602DE9F05F3D4C3E4D30
:103B5000A071296839B105F093FDE88A2080288B8F
:103B60006080BDE8F09F002836484FF4305B4FF08E
:103B7000F0084FF4285E49F241394FF448764FF08F
:103B80002C0380884FF4A0724FF4F0714FF02A0C90
:103B90004FF02B0545F2105A45F210370BD022801A
:103BA0004845A4F8028018BFB8422BD12381A4F85D
:103BB0000AC0A5813DE0A4F800804845628018BF96
:103BC000B84208D12381B842A4F80AC0A58104BF35
:103BD0002280618031E0504509D1A4F808B04FF44B
:103BE0002C50A4F80AE0A0812180668025E0A0F591
:103BF000C852633A21D123816581A4F80CC0218089
:103C000066801AE0504509D1A4F808B04FF42C534F
:103C1000A4F80AE0A381268061800AE0A0F5C858D4
:103C2000B8F1630805D12381A4F80AC0A5812680D4
:103C30006180B84204BF218062800020BDE8F05F4F
:103C400004F02EBF20040220D80402202DE9F84FF2
:103C5000934B1B681BB1BDE8F84F05F025BD924C96
:103C60000E0ADFF840C2CDB227460CF10203B4F8C9
:103C7000049000F0FF08B9894FEA102A7F89A9F55E
:103C8000134BBBF1410B1CBFA9F5A04BBBF5447B0B
:103C90000AD0A9F5A04BBBF5A26B3ED0A9F5C85838
:103CA000B8F163087DD0F4E0ADF80070BDF8000015
:103CB000ADF80000BDF80000ACF80000ADF800A0C1
:103CC000BDF80000ADF80000BDF800001880ADF8A8
:103CD0000080BDF80000ADF80000BDF800001880BD
:103CE000ADF80010BDF80000ADF80000BDF8000010
:103CF000ACF80000ADF80060BDF80000ADF80000C1
:103D0000BDF800001880ADF80050BDF80000ADF817
:103D10000000BDF800001880BBE0ADF80070BDF8F1
:103D20000000ADF80000BDF80000ACF80000ADF8F0
:103D300000A0BDF80000ADF80000BDF8000018803C
:103D4000781CADF80000BDF80000ADF80000BDF82B
:103D50000000ACF80000ADF80080BDF80000ADF840
:103D60000000BDF800001880ADF80010BDF800009C
:103D7000ADF80000BDF80000ACF80000ADF8006040
:103D8000BDF80000ADF80000BDF800001880481C28
:103D9000ADF80000BDF80000ADF80000BDF800006F
:103DA00000E00BE0ACF80000ADF80050BDF80000FA
:103DB000ADF80000BDF8000018806AE094F80680B5
:103DC000B8F1000F05D1B4F80080A8EB0000401E48
:103DD00080B2ADF80070BDF80070ADF80070BDF8AD
:103DE0000070ACF80070070AADF80070BDF80080F4
:103DF000ADF80080BDF80080A3F80080C0B2ADF837
:103E00000000BDF80080ADF80080BDF80080A3F888
:103E10000080ADF80070BDF80070ADF80070BDF81E
:103E200000701F80ADF80000BDF80000ADF8000084
:103E3000BDF800001880ADF80010BDF80000ADF826
:103E40000000BDF80000ACF80000ADF80060BDF85F
:103E50000000ADF80000BDF800001880ADF800507B
:103E6000BDF80000ADF80000BDF800001880ADF806
:103E70000060BDF80000ADF80000BDF8000018803B
:103E8000ADF80050BDF80000ADF80000BDF800002E
:103E900018802089ACF800001A80BDE8F88F000077
:103EA000D8040220FEFF076020040220000000006A
:103EB0002DE9F04F99B005F0C5FDFE49FE4D05F125
:103EC0000204888018B105F073FC04F083BDFB4840
:103ED00001460068F94A40F00200086010680127B6
:103EE0004FF0030A4FF0200B00F002001390F4484B
:103EF0006946CDE900B7CDE9027AFDF7CFFADFF8E0
:103F0000C4930026F049D9F80020084622F48032F4
:103F1000C9F80020096819234FF0C04221F00101BF
:103F200001608DF8583003208DF85C608DF8596081
:103F30008DF85D608DF850708DF85A608DF85E6078
:103F40008DF8516015928DF85B0014A88DF85F70A4
:103F5000FDF79CFDDC484FF00508C0F80080D9F85B
:103F6000000040F48030C9F80000D8484FF0204CE1
:103F7000DFF85C93112155221523C0F800C04FF0E3
:103F8000100CC0E90196C6604FF48059C0E9046C7A
:103F900086614FF4804CC661C0E908694FF480190E
:103FA000C0E90A6C06634FF0150CC0E90D69CDE954
:103FB0000C160E9205AACDF81CC00CA91296CDE9DC
:103FC00005360B96FEF7CDFE322007F0DDFBD32041
:103FD000ADF84C00BDF84C00ADF84C00BDF84C00FD
:103FE00028802088ADF84C00BDF84C00B1482188ED
:103FF000ADF84C10BDF84C102188ADF84C10BDF850
:104000004C104FF6FF7202EA01212288ADF84C20D5
:10401000BDF84C3019438180A1F51342413A7DD05F
:10402000D421ADF84C10BDF84C10ADF84C10BDF8D3
:104030004C1029802188ADF84C10BDF84C10218817
:10404000ADF84C10BDF84C102188ADF84C10BDF8FF
:104050004C204FF6FF71238801EA0222ADF84C3064
:10406000BDF84CC04CEA02028280A2F5A643103B88
:1040700064D04FF45A42ADF84C20BDF84C20ADF856
:104080004C20BDF84C202A802288ADF84C20BDF889
:104090004C204FF45B42ADF84C20BDF84C20ADF8FD
:1040A0004C20BDF84C202A802288ADF84C20BDF869
:1040B0004C204FF45C43ADF84C3001EA0222BDF8CD
:1040C0004C30ADF84C30BDF84C302B802388ADF827
:1040D0004C30BDF84C301A438280B2F5004F08BF17
:1040E00045F2105129D0A2F5AA43103B26D0A122B7
:1040F000ADF84C20BDF84C20ADF84C20BDF84C205C
:104100002A802288ADF84C20BDF84C202288ADF8DA
:104110004C20BDF84C2001EA022100E00EE022888C
:10412000ADF84C20BDF84C3019438180A1F5AE426A
:10413000613A08BF41F6631100D18180818865A092
:10414000FCF7FCF85B49ED22B1204FF039098B8870
:10415000A3F51341413914D0A3F5A6414FF0040E45
:1041600010394FF0E20100F0AD83A3F5AA401038FA
:1041700003F0B083A3F5C850633804F0CB8104F09A
:1041800029BCCF21ADF84C10BDF84C10ADF84C1047
:10419000BDF84C102980ADF84C60BDF84C10ADF85E
:1041A0004C10BDF84C1021804FF0C10CADF84CC044
:1041B000BDF84C10ADF84C10BDF84C1021803021EA
:1041C000ADF84C10BDF84C30ADF84C30BDF84C306B
:1041D0002380ADF84C20BDF84C20ADF84C20BDF844
:1041E0004C202A806422ADF84C20BDF84C20ADF85C
:1041F0004C20BDF84C202280ADF84CA0BDF84C20DE
:10420000ADF84C20BDF84C2022801222ADF84C2095
:10421000BDF84C20ADF84C20BDF84C202280812206
:10422000ADF84C20BDF84C20ADF84C20BDF84C202A
:104230002280E822ADF84C20BDF84C20ADF84C208F
:10424000BDF84C202A808522ADF84C20BDF84C20CA
:10425000ADF84C20BDF84C2022801023ADF84C3036
:10426000BDF84C20ADF84C20BDF84C2022807A22BD
:10427000ADF84C20BDF84C20ADF84C20BDF84C20DA
:104280002280CB22ADF84C20BDF84C20ADF84C205C
:10429000BDF84C202A80ADF84C90BDF84C20ADF80C
:1042A0004C20BDF84C2022802C22ADF84C20BDF8CB
:1042B0004C2017E020040220FEFF07603038024047
:1042C0000004024024ED00E094ED00E0D40302205D
:1042D000040100A0204C43442049443A25780D0AAB
:1042E00000000000ADF84C20BDF84C202280ADF855
:1042F0004C60BDF84C20ADF84C20BDF84C2022801D
:104300003422ADF84C20BDF84C20ADF84C20BDF85F
:104310004C2022800222ADF84C20BDF84C20ADF894
:104320004C20BDF84C202280F722ADF84C20BDF87F
:104330004C20ADF84C20BDF84C202A80ADF84CB094
:10434000BDF84C20ADF84C20BDF84C202280EA226C
:10435000ADF84C20BDF84C20ADF84C20BDF84C20F9
:104360002A80ADF84C60BDF84C20ADF84C20BDF86B
:104370004C202280ADF84C60BDF84C20ADF84C20AC
:10438000BDF84C202280C022ADF84C20BDF84C2056
:10439000ADF84C20BDF84C202A801B22ADF84C20F3
:1043A000BDF84C20ADF84C20BDF84C202280ADF873
:1043B0004CC0BDF84C20ADF84C20BDF84C202A80F4
:1043C000ADF84C70BDF84C20ADF84C20BDF84C2039
:1043D0002280C522ADF84C20BDF84C20ADF84C2011
:1043E000BDF84C202A80ADF84C10BDF84C20ADF83B
:1043F0004C20BDF84C202280ADF84C10BDF84C107C
:10440000ADF84C10BDF84C102180C721ADF84C1010
:10441000BDF84C10ADF84C10BDF84C102980B721F8
:10442000ADF84C10BDF84C10ADF84C10BDF84C1068
:1044300021803621ADF84C10BDF84C10ADF84C1071
:10444000BDF84C1029804821ADF84C10BDF84C1037
:10445000ADF84C10BDF84C1021803A21ADF84C104D
:10446000BDF84C10ADF84C10BDF84C10298055210A
:10447000ADF84C10BDF84C10ADF84C10BDF84C1018
:104480002180ADF84C00BDF84C00ADF84C00BDF8F3
:104490004C002880ADF84C60BDF84C00ADF84C00E5
:1044A000BDF84C0020801A20ADF84C00BDF84C003F
:1044B000ADF84C00BDF84C002080B620ADF84C00A3
:1044C000BDF84C00ADF84C00BDF84C0028800A2126
:1044D000ADF84C10BDF84C00ADF84C00BDF84C00E8
:1044E0002080A220ADF84C00BDF84C00ADF84C0087
:1044F000BDF84C002080F220ADF84C00BDF84C0017
:10450000ADF84C00BDF84C002880ADF84C60BDF80B
:104510004C00ADF84C00BDF84C0020802620ADF8D2
:104520004C00BDF84C00ADF84C00BDF84C002880A4
:10453000ADF84C70BDF84C00ADF84C00BDF84C0027
:104540002080E020ADF84C00BDF84C00ADF84C00E8
:10455000BDF84C0028800F20ADF84C00BDF84C2071
:10456000ADF84C20BDF84C2022802A22ADF84C201A
:10457000BDF84CC0ADF84CC0BDF84CC0A4F800C0AC
:104580004FF0280CADF84CC0BDF84CC0ADF84CC095
:10459000BDF84CC0A4F800C04FF0080CADF84CC0FA
:1045A000BDF84C90ADF84C90BDF84C90A4F800903C
:1045B0004FF00E09ADF84C90BDF84C90ADF84C9012
:1045C000BDF84C90A4F80090ADF84CC0BDF84CC0BC
:1045D000ADF84CC0BDF84CC0A4F800C04FF0540C6E
:1045E000ADF84CC0BDF84CC0ADF84CC0BDF84CC0E7
:1045F000A4F800C04FF0A90CADF84CC0BDF84CC0F9
:10460000ADF84CC0BDF84CC0A4F800C04FF0430C4E
:10461000ADF84CC0BDF84CC0ADF84CC0BDF84CC0B6
:10462000A4F800C0ADF84C10BDF84C10ADF84C101B
:10463000BDF84C102180ADF84C00BDF84C10ADF821
:104640004C10BDF84C102180ADF84C60BDF84C10FA
:10465000ADF84C10BDF84C102180ADF84C60BDF8A1
:104660004C10ADF84C10BDF84C102180ADF84C60EA
:10467000BDF84C10ADF84C10BDF84C102180ADF8D1
:104680004C60BDF84C10ADF84C10BDF84C102180BA
:10469000E121ADF84C10BDF84C10ADF84C10BDF850
:1046A0004C102980ADF84C60BDF84C10ADF84C10A2
:1046B000BDF84C1021801521ADF84C10BDF84C1000
:1046C000ADF84C10BDF84C1021801721ADF84C10FE
:1046D000BDF84C10ADF84C10BDF84C1021800721EE
:1046E000ADF84C10BDF84C10ADF84C10BDF84C10A6
:1046F00021801121ADF84C10BDF84CC0ADF84CC074
:10470000BDF84CC0A4F800C04FF0060CADF84CC08A
:10471000BDF84CC0ADF84CC0BDF84CC0A4F800C00A
:104720004FF02B0CADF84CC0BDF84C90ADF84C9050
:10473000BDF84C90A4F800904FF05609ADF84C909D
:10474000BDF84C90ADF84C90BDF84C90A4F800909A
:104750004FF03C09ADF84C90BDF84C90ADF84C9042
:10476000BDF84C90A4F80090ADF84C80BDF84C809A
:10477000ADF84C80BDF84C80A4F80080ADF84C300A
:10478000BDF84C30ADF84C30BDF84C302380ADF85E
:104790004C00BDF84C30ADF84C30BDF84C302380A7
:1047A0003F23ADF84C30BDF84C80ADF84C80BDF8DF
:1047B0004C80A4F80080ADF84C30BDF84C80ADF8CA
:1047C0004C80BDF84C80A4F80080ADF84C00BDF8DA
:1047D0004C00ADF84C00BDF84C002080ADF84CC04A
:1047E000BDF84C00ADF84C00BDF84C002880ADF889
:1047F0004C60BDF84C00ADF84C00BDF84C0020807A
:10480000ADF84C60BDF84C00ADF84C00BDF84C0064
:104810002080ADF84C70BDF84C00ADF84C00BDF8F0
:104820004C002080ADF84C30BDF84C00ADF84C0089
:10483000BDF84C002080ADF84C20BDF84C00ADF820
:104840004C00BDF84C002880ADF84C60BDF84C0021
:10485000ADF84C00BDF84C002080ADF84C60BDF8C0
:104860004C00ADF84C00BDF84C002080ADF84C6019
:10487000BDF84C00ADF84C00BDF84C002080EF2096
:10488000ADF84C00BDF84C00ADF84C00BDF84C0044
:104890002080ADF84C10BDF84C00ADF84C00BDF8D0
:1048A0004C002880782006F06FFF2920ADF84C00DE
:1048B000BDF84C00ADF84C00BDF84C00288004F069
:1048C00089B800BFADF84C20BDF84C20ADF84C20A5
:1048D000BDF84C202A80ADF84C70BDF84C20ADF8E6
:1048E0004C20BDF84C202280FE22ADF84C20BDF8B3
:1048F0004C20ADF84C20BDF84C202280EE22ADF8C3
:104900004C20BDF84C20ADF84C20BDF84C202A803E
:10491000DE22ADF84C20BDF84C20ADF84C20BDF89F
:104920004C2022802122ADF84C20BDF84C30ADF84F
:104930004C30BDF84C302380F123ADF84C30BDF83D
:104940004C30ADF84C30BDF84C302B800123ADF825
:104950004C30BDF84C30ADF84C30BDF84C302380B5
:10496000DF23ADF84C30BDF84C30ADF84C30BDF81D
:104970004C302B801023ADF84C30BDF84C30ADF8E6
:104980004C30BDF84C302380C423ADF84C30BDF81A
:104990004C30ADF84C30BDF84C302B808F23ADF847
:1049A0004C30BDF84C30ADF84C30BDF84C30238065
:1049B000C623ADF84C30BDF84C30ADF84C30BDF8E6
:1049C0004C302B80ADF84C60BDF84C30ADF84C301D
:1049D000BDF84C302380E221ADF84C10BDF84C30CE
:1049E000ADF84C30BDF84C302380ADF84C10BDF81C
:1049F0004C30ADF84C30BDF84C302380ADF84C1045
:104A0000BDF84C10ADF84C10BDF84C102180BF2102
:104A1000ADF84C10BDF84C10ADF84C10BDF84C1072
:104A20002980AA21ADF84C10BDF84C10ADF84C10FF
:104A3000BDF84C102180B021ADF84C10BDF84C10E1
:104A4000ADF84C10BDF84C1029800D21ADF84C107C
:104A5000BDF84C10ADF84C10BDF84C102180ADF8ED
:104A60004C60BDF84C10ADF84C10BDF84C102180D6
:104A70000D21ADF84C10BDF84C10ADF84C10BDF840
:104A80004C102180ADF84C60BDF84C10ADF84C10C6
:104A9000BDF84C1021801121ADF84C10BDF84C1020
:104AA000ADF84C10BDF84C102180ADF84C60BDF84D
:104AB0004C10ADF84C10BDF84C1021801921ADF808
:104AC0004C10BDF84C10ADF84C10BDF84C102180C6
:104AD000ADF84C60BDF84C10ADF84C10BDF84C1062
:104AE0002180ADF84C20BDF84C10ADF84C10BDF84D
:104AF0004C102180ADF84C60BDF84C10ADF84C1056
:104B0000BDF84C1021802D21ADF84C10BDF84C1093
:104B1000ADF84C10BDF84C102180ADF84C60BDF8DC
:104B20004C10ADF84C10BDF84C1021803D21ADF873
:104B30004C10BDF84C10ADF84C10BDF84C10218055
:104B4000ADF84C60BDF84C10ADF84C10BDF84C10F1
:104B500021805D21ADF84C10BDF84C20ADF84C2003
:104B6000BDF84C202280ADF84C60BDF84C20ADF86B
:104B70004C20BDF84C202280ADF84C10BDF84C10F4
:104B8000ADF84C10BDF84C102180ADF84C60BDF86C
:104B90004C10ADF84C10BDF84C102180ADF84C0015
:104BA000BDF84C00ADF84C00BDF84C0028808020CA
:104BB000ADF84C00BDF84C00ADF84C00BDF84C0011
:104BC0002080ADF84C60BDF84C00ADF84C00BDF84D
:104BD0004C0020808B23ADF84C30BDF84C00ADF874
:104BE0004C00BDF84C002080ADF84C60BDF84C0086
:104BF000ADF84C00BDF84C0020804FF0960CADF89D
:104C00004CC0BDF84C00ADF84C00BDF84C00208005
:104C1000ADF84C60BDF84C00ADF84C00BDF84C0050
:104C20002080B220ADF84C00BDF84C00ADF84C002F
:104C3000BDF84C002880ADF84C60BDF84C00ADF8D4
:104C40004C00BDF84C0020802046ADF84C60BDF80B
:104C50004C10ADF84C10BDF84C1021800221ADF87D
:104C60004C10BDF84C20ADF84C20BDF84C202280F3
:104C7000ADF84C60BDF84C20ADF84C20BDF84C2090
:104C80002280ADF84CA0BDF84C20ADF84C20BDF80A
:104C90004C200280ADF84C60BDF84C20ADF84C20A3
:104CA000BDF84C200280B322ADF84C20BDF84C205A
:104CB000ADF84C20BDF84C202A80ADF84C60BDF812
:104CC0004C20ADF84C20BDF84C200280ADF84C6073
:104CD000BDF84C20ADF84C20BDF84C200280ADF85A
:104CE0004C60BDF84C20ADF84C20BDF84C20028043
:104CF000ADF84C60BDF84C20ADF84C20BDF84C2010
:104D00000280ADF84C60BDF84C20ADF84C20BDF8E9
:104D10004C200280ADF84C60BDF84C20ADF84C2022
:104D2000BDF84C200280ADF84C60BDF84C20ADF8C9
:104D30004C20BDF84C200280ADF84C60BDF84C20F2
:104D4000ADF84C20BDF84C200280ADF84C60BDF8A9
:104D50004C20ADF84C20BDF84C200280ADF84C60E2
:104D6000BDF84C20ADF84C20BDF84C200280ADF8C9
:104D70004C60BDF84C20ADF84C20BDF84C200280B2
:104D8000ADF84C60BDF84C20ADF84C20BDF84C207F
:104D90000280ADF84C60BDF84C20ADF84C20BDF859
:104DA0004C200280ADF84C60BDF84C20ADF84C2092
:104DB000BDF84C200280ADF84C60BDF84C20ADF839
:104DC0004C20BDF84C200280ADF84C60BDF84C2062
:104DD000ADF84C20BDF84C200280ADF84C60BDF819
:104DE0004C20ADF84C20BDF84C200280ADF84C6052
:104DF000BDF84C20ADF84C20BDF84C200280ADF839
:104E00004C60BDF84C20ADF84C20BDF84C20028021
:104E1000ADF84C60BDF84C20ADF84C20BDF84C20EE
:104E20000280ADF84C60BDF84C20ADF84C20BDF8C8
:104E30004C200280ADF84C60BDF84C20ADF84C2001
:104E4000BDF84C200280ADF84C60BDF84C20ADF8A8
:104E50004C20BDF84C200280ADF84C60BDF84C20D1
:104E6000ADF84C20BDF84C200280B422ADF84C20A7
:104E7000BDF84C20ADF84C20BDF84C202A808B2288
:104E8000ADF84C20BDF84C20ADF84C20BDF84C20BE
:104E90000280ADF84C60BDF84C20ADF84C20BDF858
:104EA0004C200280ADF84CC0BDF84C20ADF84C2031
:104EB000BDF84C200280ADF84C60BDF84C20ADF838
:104EC0004C20BDF84C200280A122ADF84C20BDF84A
:104ED0004C20ADF84C20BDF84C200280ADF84C6061
:104EE000BDF84C20ADF84C20BDF84C200280B52216
:104EF000ADF84C20BDF84C20ADF84C20BDF84C204E
:104F00002A80ADF84C10BDF84C10ADF84C10BDF82F
:104F10004C100180ADF84C60BDF84C10ADF84C1051
:104F2000BDF84C100180ADF84CA0BDF84C10ADF8A8
:104F30004C10BDF84C100180ADF84C60BDF84C1021
:104F4000ADF84C10BDF84C1001807246ADF84CE045
:104F5000BDF84C10ADF84C10BDF84C100180ADF808
:104F60004C60BDF84C10ADF84C10BDF84C100180F1
:104F7000B621ADF84C10BDF84C10ADF84C10BDF892
:104F80004C102980ADF84C60BDF84C10ADF84C10B9
:104F9000BDF84C100180ADF84C60BDF84C10ADF878
:104FA0004C10BDF84C100180B721ADF84C10BDF885
:104FB0004C10ADF84C10BDF84C102980ADF84C6089
:104FC000BDF84C10ADF84C10BDF84C100180ADF898
:104FD0004C60BDF84C10ADF84C10BDF84C10018081
:104FE0003F21ADF84C10BDF84C10ADF84C10BDF899
:104FF0004C100180ADF84C60BDF84C10ADF84C1071
:10500000BDF84C1001805E21ADF84C10BDF84C107D
:10501000ADF84C10BDF84C100180ADF84C60BDF8F7
:105020004C10ADF84C10BDF84C1001806421ADF867
:105030004C10BDF84C10ADF84C10BDF84C10018070
:10504000ADF84C60BDF84C10ADF84C10BDF84C10EC
:1050500001808C21ADF84C10BDF84C10ADF84C100F
:10506000BDF84C100180ADF84C60BDF84C10ADF8A7
:105070004C10BDF84C100180AC21ADF84C10BDF8BF
:105080004C10ADF84C10BDF84C100180ADF84C60E0
:10509000BDF84C10ADF84C10BDF84C100180DC216F
:1050A000ADF84C10BDF84C30ADF84C30BDF84C307C
:1050B0000380ADF84C60BDF84C30ADF84C30BDF815
:1050C0004C3003807023ADF84C30BDF84C30ADF857
:1050D0004C30BDF84C300380ADF84C60BDF84C301E
:1050E000ADF84C30BDF84C3003809023ADF84C3017
:1050F000BDF84C30ADF84C30BDF84C300380ADF805
:105100004C60BDF84C30ADF84C30BDF84C300380ED
:10511000EB23ADF84C30BDF84C30ADF84C30BDF859
:105120004C300380ADF84C60BDF84C30ADF84C30DD
:10513000BDF84C300380ADF84C10BDF84C10ADF804
:105140004C10BDF84C100180ADF84C60BDF84C100F
:10515000ADF84C10BDF84C100180B821ADF84C10E2
:10516000BDF84C10ADF84C10BDF84C102980ADF8CE
:105170004C60BDF84C10ADF84C10BDF84C100180DF
:10518000ADF84C60BDF84C10ADF84C10BDF84C10AB
:105190000180ADF84C60BDF84C10ADF84C10BDF876
:1051A0004C100180ADF84C60BDF84C10ADF84C10BF
:1051B000BDF84C100180ADF84C60BDF84C10ADF856
:1051C0004C10BDF84C100180ADF84C60BDF84C108F
:1051D000ADF84C10BDF84C100180ADF84C60BDF836
:1051E0004C10ADF84C10BDF84C100180ADF84C607F
:1051F000BDF84C10ADF84C10BDF84C100180BA2130
:10520000ADF84C10BDF84C10ADF84C10BDF84C107A
:1052100029802421ADF84C10BDF84C30ADF84C304D
:10522000BDF84C300380ADF84C60BDF84C30ADF8A3
:105230004C30BDF84C300380ADF84C60BDF84C30BC
:10524000ADF84C30BDF84C300380ADF84C60BDF883
:105250004C30ADF84C30BDF84C300380C123ADF874
:105260004C30BDF84C30ADF84C30BDF84C302B8094
:105270002023ADF84C30BDF84C30ADF84C30BDF8C3
:105280004C300380ADF84C60BDF84C30ADF84C307C
:10529000BDF84C3003805423ADF84C30BDF84C3091
:1052A000ADF84C30BDF84C300380ADF84C60BDF823
:1052B0004C30ADF84C30BDF84C300380FF23ADF8D6
:1052C0004C30BDF84C30ADF84C30BDF84C3003805C
:1052D000ADF84C60BDF84C30ADF84C30BDF84C30FA
:1052E0000380C223ADF84C30BDF84C30ADF84C30E3
:1052F000BDF84C302B800A23ADF84C30BDF84C3053
:10530000ADF84C30BDF84C300380ADF84C60BDF8C2
:105310004C30ADF84C30BDF84C300380ADF84C202B
:10532000BDF84C20ADF84C20BDF84C200280ADF803
:105330004C60BDF84C20ADF84C20BDF84C200280EC
:10534000C322ADF84C20BDF84C20ADF84C20BDF880
:105350004C202A803C22ADF84C20BDF84C30ADF8F2
:105360004C30BDF84C300380ADF84C60BDF84C308B
:10537000ADF84C30BDF84C3003803A23ADF84C30DA
:10538000BDF84C30ADF84C30BDF84C300380ADF872
:105390004C60BDF84C30ADF84C30BDF84C3003805B
:1053A000ADF84C90BDF84C30ADF84C30BDF84C30F9
:1053B0000380ADF84C60BDF84C30ADF84C30BDF812
:1053C0004C3003803723ADF84C30BDF84C30ADF88D
:1053D0004C30BDF84C300380ADF84C60BDF84C301B
:1053E000ADF84C30BDF84C300380ADF84C20BDF822
:1053F0004C30ADF84C30BDF84C300380ADF84C600B
:10540000BDF84C30ADF84C30BDF84C30038036233D
:10541000ADF84C30BDF84C30ADF84C30BDF84C30E8
:105420000380ADF84C60BDF84C30ADF84C30BDF8A1
:105430004C3003803223ADF84C30BDF84C30ADF821
:105440004C30BDF84C300380ADF84C60BDF84C30AA
:10545000ADF84C30BDF84C3003804FF02F0AADF85A
:105460004CA0BDF84C30ADF84C30BDF84C3003804A
:10547000ADF84C60BDF84C30ADF84C30BDF84C3058
:1054800003804FF02C0BADF84CB0BDF84C30ADF8AC
:105490004C30BDF84C300380ADF84C60BDF84C305A
:1054A000ADF84C30BDF84C3003804FF0290EADF80C
:1054B0004CE0BDF84C30ADF84C30BDF84C300380BA
:1054C000ADF84C60BDF84C30ADF84C30BDF84C3008
:1054D00003804FF02609ADF84C90BDF84C30ADF884
:1054E0004C30BDF84C300380ADF84C60BDF84C300A
:1054F000ADF84C30BDF84C300380ADF84C10BDF821
:105500004C30ADF84C30BDF84C300380ADF84C60F9
:10551000BDF84C30ADF84C30BDF84C300380ADF8E0
:105520004C10BDF84C30ADF84C30BDF84C30038019
:10553000ADF84C60BDF84C30ADF84C30BDF84C3097
:1055400003802323ADF84C30BDF84CC0ADF84CC0FF
:10555000BDF84CC0A0F800C0ADF84C60BDF84CC020
:10556000ADF84CC0BDF84CC0A0F800C0ADF84C2060
:10557000BDF84C20ADF84C20BDF84C200280ADF8B1
:105580004C60BDF84C20ADF84C20BDF84C2002809A
:105590003622ADF84C20BDF84C20ADF84C20BDF8BB
:1055A0004C200280ADF84C60BDF84C20ADF84C208A
:1055B000BDF84C2002803222ADF84C20BDF84C20C2
:1055C000ADF84C20BDF84C200280ADF84C60BDF821
:1055D0004C20ADF84C20BDF84C200280ADF84CA01A
:1055E000BDF84C20ADF84C20BDF84C200280ADF841
:1055F0004C60BDF84C20ADF84C20BDF84C2002802A
:10560000ADF84CB0BDF84C20ADF84C20BDF84C20A6
:105610000280ADF84C60BDF84C20ADF84C20BDF8D0
:105620004C200280ADF84CE0BDF84C20ADF84C2089
:10563000BDF84C200280ADF84C60BDF84C20ADF8B0
:105640004C20BDF84C200280ADF84C90BDF84C20A9
:10565000ADF84C20BDF84C200280ADF84C60BDF890
:105660004C20ADF84C20BDF84C200280ADF84C1019
:10567000BDF84C20ADF84C20BDF84C200280ADF8B0
:105680004C60BDF84C20ADF84C20BDF84C20028099
:10569000ADF84C10BDF84C10ADF84C10BDF84C10E6
:1056A0000180ADF84C60BDF84C10ADF84C10BDF861
:1056B0004C100180ADF84C30BDF84C10ADF84C10DA
:1056C000BDF84C100180ADF84C60BDF84C10ADF841
:1056D0004C10BDF84C100180C421ADF84C10BDF841
:1056E0004C20ADF84C20BDF84C202A806222ADF849
:1056F0004C20BDF84C20ADF84C20BDF84C20028069
:10570000ADF84C60BDF84C20ADF84C20BDF84C20F5
:105710000280C646ADF84C80BDF84C20ADF84C2058
:10572000BDF84C200280ADF84C60BDF84C20ADF8BF
:105730004C20BDF84C2002808422ADF84C20BDF8EE
:105740004C20ADF84C20BDF84C200280ADF84C60E8
:10575000BDF84C20ADF84C20BDF84C200280F02262
:10576000ADF84C20BDF84C20ADF84C20BDF84C20D5
:105770000280ADF84C60BDF84C20ADF84C20BDF86F
:105780004C2002801822ADF84C20BDF84C20ADF81A
:105790004C20BDF84C200280ADF84C60BDF84C2088
:1057A000ADF84C20BDF84C200280A422ADF84C206E
:1057B000BDF84C20ADF84C20BDF84C200280ADF86F
:1057C0004C60BDF84C20ADF84C20BDF84C20028058
:1057D0001822ADF84C20BDF84C20ADF84C20BDF897
:1057E0004C200280ADF84C60BDF84C20ADF84C2048
:1057F000BDF84C2002805022ADF84C20BDF84C2062
:10580000ADF84C20BDF84C200280ADF84C60BDF8DE
:105810004C20ADF84C20BDF84C2002800C22ADF895
:105820004C20BDF84C20ADF84C20BDF84C20028037
:10583000ADF84C60BDF84C20ADF84C20BDF84C20C4
:1058400002801722ADF84C20BDF84C20ADF84C205A
:10585000BDF84C200280ADF84C60BDF84C20ADF88E
:105860004C20BDF84C2002809522ADF84C20BDF8AC
:105870004C20ADF84C20BDF84C200280ADF84C60B7
:10588000BDF84C20ADF84C20BDF84C200280F3222E
:10589000ADF84C20BDF84C20ADF84C20BDF84C20A4
:1058A0000280ADF84C60BDF84C20ADF84C20BDF83E
:1058B0004C200280E622ADF84C20BDF84C20ADF81B
:1058C0004C20BDF84C200280ADF84C60BDF84C2057
:1058D000ADF84C20BDF84C200280C522ADF84C201C
:1058E000BDF84C20ADF84C20BDF84C202A80322267
:1058F000ADF84C20BDF84C20ADF84C20BDF84C2044
:105900000280ADF84C60BDF84C20ADF84C20BDF8DD
:105910004C2002804422ADF84C20BDF84C20ADF85C
:105920004C20BDF84C200280ADF84C60BDF84C20F6
:10593000ADF84C20BDF84C2002806522ADF84C201B
:10594000BDF84C20ADF84C20BDF84C200280ADF8DD
:105950004C60BDF84C20ADF84C20BDF84C200280C6
:105960007622ADF84C20BDF84C20ADF84C20BDF8A7
:105970004C200280ADF84C60BDF84C20ADF84C20B6
:10598000BDF84C2002808822ADF84C20BDF84C2098
:10599000ADF84C20BDF84C200280ADF84C60BDF84D
:1059A0004C20ADF84C20BDF84C200280C622ADF84A
:1059B0004C20BDF84C20ADF84C20BDF84C202A807E
:1059C0002022ADF84C20BDF84C20ADF84C20BDF89D
:1059D0004C200280ADF84C60BDF84C20ADF84C2056
:1059E000BDF84C2002801722ADF84C20BDF84C20A9
:1059F000ADF84C20BDF84C200280ADF84C60BDF8ED
:105A00004C20ADF84C20BDF84C2002800122ADF8AE
:105A10004C20BDF84C20ADF84C20BDF84C20028045
:105A2000ADF84C60BDF84C20ADF84C20BDF84C20D2
:105A30000280C722ADF84C20BDF84C20ADF84C20B8
:105A4000BDF84C202A80ADF84C60BDF84C20ADF874
:105A50004C20BDF84C200280ADF84C60BDF84C20C5
:105A6000ADF84C20BDF84C200280ADF84C60BDF87C
:105A70004C20ADF84C20BDF84C200280ADF84C60B5
:105A8000BDF84C20ADF84C20BDF84C200280C82257
:105A9000ADF84C20BDF84C20ADF84C20BDF84C20A2
:105AA0002A80ADF84C60BDF84C20ADF84C20BDF814
:105AB0004C200280ADF84C60BDF84C20ADF84C2075
:105AC000BDF84C200280ADF84C60BDF84C20ADF81C
:105AD0004C20BDF84C200280ADF84C60BDF84C2045
