:020000040800F2
:10000000681B0720090300083DD20008D35C0008E4
:1000100095C4000885090008D1EF00080000000021
:100020000000000000000000000000009DE5000846
:10003000E90D0008000000006BD90008D9E70008AE
:1000400023030008230300082303000823030008F8
:1000500023030008230300082303000823030008E8
:1000600023030008230300082303000823030008D8
:1000700023030008230300082303000823030008C8
:1000800023030008230300082303000823030008B8
:1000900023030008230300082303000823030008A8
:1000A0002303000823030008230300082303000898
:1000B000230300083DE8000849E80008230300087E
:1000C0002303000823030008230300082303000878
:1000D0002303000859EF0008230300082303000846
:1000E0002303000823030008230300082303000858
:1000F0002303000823030008230300082303000848
:100100002303000823030008230300082303000837
:100110002303000823030008230300082303000827
:10012000230300081D0D0008230300082303000813
:100130002303000823030008230300082303000807
:1001400023030008230300082303000823030008F7
:1001500023030008230300082303000823030008E7
:1001600023030008230300082303000823030008D7
:100170002303000823030008E90B00080000000027
:1001800023030008230300082303000823030008B7
:1001900023030008230300082303000823030008A7
:1001A0002303000823030008230300082303000897
:1001B0002303000823030008230300082303000887
:1001C00023030008230300080000000023030008A5
:1001D0002303000823030008230300082303000867
:1001E0002303000823030008230300082303000857
:1001F000230300082303000800F002F800F06DF864
:100200000AA090E8000C82448344AAF10107DA4571
:1002100001D100F062F8AFF2090EBAE80F0013F056
:10022000010F18BFFB1A43F0010318475097010054
:10023000709701000A444FF0000C10F8013B13F0D6
:10024000070408BF10F8014B1D1108BF10F8015B2F
:10025000641E05D010F8016B641E01F8016BF9D122
:1002600013F0080F1EBF10F8014BAD1C0C1B09D179
:100270006D1E58BF01F801CBFAD505E014F8016BEB
:1002800001F8016B6D1EF9D59142D6D3704700007D
:100290000023002400250026103A28BF78C1FBD88F
:1002A000520728BF30C148BF0B607047642900F077
:1002B000A980752900F0A680782900F0DF806329E5
:1002C00000F00C83732900F01183002070471FB5E4
:1002D00013F069F91FBD10B510BD00F021FB1146E8
:1002E000FFF7F5FF11F006F900F03FFB03B4FFF74D
:1002F000F2FF03BC0FF066F830BF72B6704762B60B
:10030000704780F3088870470948804709480047CC
:10031000FEE7FEE7FEE7FEE7FEE7FEE7FEE7FEE7B5
:10032000FEE7FEE704480549054A064B7047000012
:10033000DDE70008F901000868150720681B0720A1
:100340006817072068170720704700000FB404499A
:1003500010B503AA029800F0CDFA10BC5DF814FBAA
:100360004000022070B5044685690068C10601D5C9
:10037000302600E02026C00707D070BDD4E9012157
:1003800030469047206A401C20626D1EF6D570BD35
:1003900070B5044685690078C00707D170BDD4E9FF
:1003A000012120209047206A401C20626D1EF6D556
:1003B00070BD70B50C460546012A05D02878800628
:1003C00000D5EA69002302E0012305E05B1C9342AB
:1003D00002D2E05C0028F9D1A869E618C01AA86129
:1003E000286A184428622846FFF7BCFF04E0D5E9D4
:1003F000012114F8010B9047B442F8D32846FFF7C7
:10040000C7FF70BD2DE9F04106460024106875292C
:10041000314616A510D0AFF30080002802DA404222
:1004200013A507E031688A0701D512A502E0490744
:1004300004D511A5012401E0AFF3008000210A22B8
:1004400006F1240709E0B0FBF2FCB0FBF2F302FB7B
:100450001C00303078541846491C0028F3D123463C
:100460002A463046BDE8F04100F0BCB9000000006B
:100470002D0000002B0000002000000070B5044695
:100480000D4621461068AFF300802188090502D58A
:100490000F4A7A4402E00E4A7A440E32002104F1F7
:1004A000240305E000F00F060009965D5E54491C28
:1004B0000028F7D120780023000704D5702D02D042
:1004C00009B1022311322046BDE8704000F08AB91C
:1004D0008C9101002DE9F05F894604464FF0000A37
:1004E000DFF874B1FB44C0F820A02046E1688847DB
:1004F000002874D0252806D0D4E901219047206A2D
:10050000401C2062F1E700265F462046E1688847EC
:100510002028054607DB312D05D2781910F8200C6C
:1005200008B10643F1E7B00701D526F00406C4F888
:100530001CA00027C4F818A02A2D09D028460EF0C8
:100540003AFF38B304EB8708303DC8F8185019E07B
:1005500059F8041B204604EB87029161E168884743
:10056000012F054618D1E069002820DA26F0200680
:100570001DE0D8F8180000EB800005EB4000303893
:10058000C8F818002046E168884705460EF013FFBA
:100590000028EED1012F0AD02E2D08D12046E16887
:1005A00088477F1C0546022F46F02006C4DBA06961
:1005B000002803DA404246F00106A061F00701D0AE
:1005C00026F010066C2D0BD0682D09D04C2D39D09B
:1005D0006A2D35D0742D35D07A2D33D016E038E021
:1005E000E1682F4620468847B842054609D16C2F5E
:1005F00026D04FF48060E1680643204688470546D0
:1006000004E06C2F1AD04FF4807006430DB3A5F1AF
:100610004100192802D8203546F400664A4629468A
:10062000204626604E46FFF741FE80B101280BD0E0
:10063000F61D26F0070000F1080956E74020E4E720
:100640008020D8E70020D6E706F104094DE72846C8
:1006500052E7206ABDE8F09F62910100032A40F250
:10066000308010F0030C00F0158011F8013BBCF154
:10067000020F624498BF11F801CB00F8013B38BF6C
:1006800011F8013BA2F1040298BF00F801CB38BF7A
:1006900000F8013B11F0030300F02580083AC0F098
:1006A000088051F8043B083A51F804CBA0E8081040
:1006B000F5E7121D5CBF51F8043B40F8043BAFF373
:1006C0000080D20724BF11F8013B11F801CB48BFCD
:1006D00011F8012B24BF00F8013B00F801CB48BF03
:1006E00000F8012B704710B5203AC0F00B80B1E83C
:1006F0001850203AA0E81850B1E81850A0E8185057
:10070000BFF4F5AF5FEA027C24BFB1E81850A0E85F
:10071000185044BF18C918C0BDE810405FEA827C79
:1007200024BF51F8043B40F8043B08BF7047D20790
:1007300028BF31F8023B48BF11F8012B28BF20F831
:10074000023B48BF00F8012B70474FF0000204291C
:10075000C0F0128010F0030C00F01B80CCF1040CF0
:10076000BCF1020F18BF00F8012BA8BF20F8022B24
:10077000A1EB0C0100F00DB85FEAC17C24BF00F8CA
:10078000012B00F8012B48BF00F8012B70474FF0F8
:10079000000200B5134694469646203922BFA0E8D1
:1007A0000C50A0E80C50B1F12001BFF4F7AF0907DD
:1007B00028BFA0E80C5048BF0CC05DF804EB8900CE
:1007C00028BF40F8042B08BF704748BF20F8022B11
:1007D00011F0804F18BF00F8012B70477047704729
:1007E000704770472DE9F0470D46994692460446FA
:1007F00000F124080168880604D5E06921F01001A1
:10080000216000E00120A84201DD471B00E0002735
:10081000A1697A1902EB0900081AA0612078C006C4
:1008200002D42046FFF79EFD002608E0D4E901210E
:100830001AF806009047206A401C761C20624E453C
:10084000F4DB2078C0060AD52046FFF78BFD06E0D2
:10085000D4E9012130209047206A401C2062381ED4
:10086000A7F10107F4DC07E0D4E9012118F805003D
:100870009047206A401C2062281EA5F10105F3DC88
:100880002046FFF785FD2078000602D50220BDE84E
:10089000F0870120FBE7000001694A1C026108782B
:1008A000704700B58FB0CDE90131002105910549B0
:1008B0007944CDE9031011466846FFF70BFE0FB0EF
:1008C00000BD0000E5FFFFFF10B5436913B1AFF3B2
:1008D000008001E0FFF76DFD012010BD127800F1EE
:1008E00024010A7000224A700122EDE711684FF0DE
:1008F000FF32E9E7074B70B50D467B44FFF7D1FFA8
:100900000446284600F008F810B14FF0FF3070BDE3
:10091000204670BD1F090100007B00F08000704779
:10092000754600F02BF8AE4605006946534620F0A8
:100930000700854618B020B5FFF7F4FCBDE820405D
:100940004FF000064FF000074FF000084FF0000B8B
:1009500021F00701AC46ACE8C009ACE8C009ACE83E
:10096000C009ACE8C0098D46704710B50446AFF326
:1009700000802046BDE81040FFF7B8BC0048704733
:1009800004150720FEE7000070B4BFF34F8FBFF3DC
:100990006F8F1C4900201A4E0860316841F4003105
:1009A0003160BFF34F8FBFF36F8F17490860BFF3FC
:1009B0004F8F081F154943F6FF750068C0F34E3C82
:1009C000C0F3C90405EA4C12204600BF42EA807316
:1009D0000B60401EFAD2BCF1010CF3D2BFF34F8F73
:1009E000306840F480303060BFF34F8FBFF36F8FBB
:1009F0000748016841F00401016070BC70470000C5
:100A000014ED00E050EF00E084ED00E060EF00E066
:100A10009CEF00E070B514460D4606460C4801F008
:100A200037F8E1010A4CDFF82CC070010023AA015D
:100A3000C4F800C0E160C4E90130C4E904232046E1
:100A4000A36101F0B5F820680168016070BD000085
:100A50007C1802200000055010B5806B816C496D38
:100A6000022906D0012180F83510C16C41F0400107
:100A7000C16401F018F810BD10B5816B0C468A6B8B
:100A8000886C016802B30A68A36B02F4002213F0B9
:100A9000010F0BD152B1C968E26B01EBC201002218
:100AA00001F0D5F9A06B401EA0631EE00A6812F4A5
:100AB000002F1AD10969E26B01EBC201012201F09A
:100AC000C6F9A06B401E0FE0086810F4002F0DBFA0
:100AD0000868606CC86010F4002F06D1E26B606C8F
:100AE00000EB82000861206CA063A06B216C88423F
:100AF00018BF10BD2068C16841F00101C1602068C5
:100B0000006810F0020F1CBF012084F8350010BDF2
:100B10002DE9FF4F2F4881B016460F469E460E998D
:100B2000026842F480020260006800252A4C4FF0FF
:100B3000007900F480000090A4F15000DFF89CA040
:100B40008464A0632068D0F800804FF480524FF492
:100B5000003C28F0100B4FF004081311C0F800B04F
:100B6000C4F800A00320C4E90195C4F82480C4E9B6
:100B70000351C4E90A0525632046C4E9052EC4E9EA
:100B8000073C01F0ADFD204601F0EEFD84F8345045
:100B9000B7B113493B46019A2046009601F05EF931
:100BA0002068016841F010010160002239201146DF
:100BB00002F0AAFA05B03920BDE8F04F02F098BA69
:100BC000019A05B0334607480021BDE8F04F01F017
:100BD000CBB8000030380240CC1802202864024014
:100BE000280005507C180220014800F08BBF00004F
:100BF0007C18022010B5124C00201049C4E90010E6
:100C00002062A060E06020616061A0616062A0621B
:100C1000E0622063204600F0CBFF2068C16821F02D
:100C20001E01C1602068C16841F00101C1602068F7
:100C3000016841F48041016010BD000000000550D2
:100C40007C1802202DE9F0471C4C80461D461646B4
:100C50000F46206820F00100C4F80000D4F800C05E
:100C60001CF0010FFAD1DFF85890D9F800000168A4
:100C700021F0010101604FF6FF7005F0E9F92B4604
:100C80003246394640460AF0F1FC00212B463246F6
:100C900008460CF0FDFC002108460AF089FB0AF02A
:100CA000D9FFD9F80000016841F001010160206816
:100CB00040F001002060BDE8F08700000000055012
:100CC000CC1802200021084610B50AF071FB0AF08A
:100CD000C1FF064806490068026842F0010202604E
:100CE000086840F00100086010BD0000CC18022028
:100CF000000005500748016821F00101016001680A
:100D000011F0010FFBD104480068016821F00101D6
:100D10000160704700000550CC180220274830B40D
:100D2000274C284B0068DFF8A0C0284AA04204D90D
:100D30002749096801F4006105E0984232D9254944
:100D4000096801F40061002904BF30BC70474FF40A
:100D50000061A04288BF204803D8984288BF1F483E
:100D600027D9016000201E490860BFF34F8F081F7C
:100D700043F6FF7500681B49C0F34E33C0F3C90446
:100D800005EA4312204600BF42EA807CC1F800C059
:100D9000401EF9D25B1EF3D2BFF34F8FBFF36F8FAC
:100DA00030BC704760458CBF5168116801F4006128
:100DB000C9E760458CBFD1609160D3E7CC180220B1
:100DC00058640240B860024058600240006002402F
:100DD00004640240006402400C6402400864024063
:100DE00084ED00E074EF00E070474DF8044D0B898E
:100DF000D1E9002C097BC4681B0442EA0C2243EAB7
:100E000001611143C1605DF8044B002070474DF84B
:100E1000044D0B89D1E9002C097B84681B0442EA4C
:100E20000C2243EA0161114381605DF8044B00200C
:100E30007047000030B4D1E9013CD1E9034543EAF1
:100E40000C0CD1E9052301682C434CEA0404DFF8BB
:100E50001CC044EA422201EA0C0142EA4332114337
:100E600041F00801016030BC002070478101F0FFB3
:100E700070B4B3F5804F18BF6FF0704105D000BF5C
:100E800040F8221070BC002070478D688C89D1E931
:100E9000003C2E028D6950F8221046EA044443EAD1
:100EA0000C1C044B4CEA040C19404CEA0503194392
:100EB000E6E700000000F0CF2DE9F003D1E90225BC
:100EC000D1E904634C68082A45EA060744EA0208A7
:100ED00048EA0702D1E906C542EA03020B68D1E9F4
:100EE000086442EA0C02D1F830C0D1E90A7842EA3B
:100EF00005028D6B42EA060650F8232046EA0406F6
:100F0000144C46EA0706D1F8349046EA080646EA49
:100F10000C0C4CEA050C02EA04024CEA090C4CEAFF
:100F2000020208BF42F0400240F823200A6BB2F5EB
:100F3000801F05D10A684AB1026842F4801202603B
:100F40000A681AB10268496B11430160BDE8F003F9
:100F5000002070478004C0FF2DE9F001D1E9014372
:100F60008F8900EB8202D1F800C00D8A1E02154B5A
:100F70004CEA041C0C7D46EA07464CEA0606D2F809
:100F800004C05F0103EB05588D6946EA080607EBCC
:100F9000046434432C430CF0404C44EA0C0CC2F87B
:100FA00004C0026812F4801F07D00A8A416803EB6C
:100FB000025221F4700111434160BDE8F0010020AC
:100FC000704700000000F0FF70B4D1E9006CD1E977
:100FD0000243D1E90425012E43EA02064CEA040C3F
:100FE0008C69D1E907324CEA0606D1F824C046EAFA
:100FF000050141EA040109D00B4301681A4342EAA2
:101000000C026FF30E01114301600CE005684468A7
:10101000134325F4F8424CEA02021A4302606FF3CC
:101020000E042143416070BC00207047426942EACF
:101030004101416100207047F8B515460446D1E9E9
:10104000002388686FF01F0CC9681A430CEB40102E
:1010500040EA412010430090206101F0DBFD06468C
:10106000A06910F0200F0ED0B5F1FF3F07D025B1D9
:1010700001F0D0FD801BA84201D90320F8BDA06972
:1010800010F0200FF0D10020F8BD2DE9F0036FF033
:101090000F058B68D1E9006C2C01761E27044FEAFE
:1010A00004294FEA043805EB0C15B1F810C035439C
:1010B0000E7E04EB03248B8A2543C96809EB0C449C
:1010C00008EB035C012A07EB06630ED082683E132F
:1010D00006EB01310D4302F0704145EA040242EA99
:1010E0000C021A431143816013E00E038168C26849
:1010F0002543A6F5805421F470412B4321F470015F
:1011000044EA0C0C02F070421A434CEA010181607F
:10111000C2600020BDE8F003704700002DE9F047F1
:101120002D4C82B04FF0000A89460DF104080646A6
:101130005746A0790025002815D9CDF80080C0B207
:1011400061884A4600FB06F08B0800210BF0B6FED2
:101150006188BDF80400B0EB910F04D1A079691C3F
:101160008DB2A842E9D8A079A84203D102B00020EC
:10117000BDE8F08730460BF0D1FB20B117A039460F
:10118000FFF7E4F81CE0B9F1FF3F19D0ADF804A077
:10119000A079002814D900BFA279BDF804006188A5
:1011A00006FB02008B08002211460CF001F8BDF886
:1011B0000400401C80B2ADF80400A1798142EBD854
:1011C000781C87B2032FB4D30AA03146FFF7BEF8CC
:1011D00002B00120BDE8F087200502206572726F21
:1011E0007220657261736520626C6F636B3A25646F
:1011F0000D0A000062616420626C6F636B2063689B
:1012000065636B65643A25640D0A00002DE9FF4FA4
:10121000404E924681B01F46B179B0FBF1F2B0FB6F
:10122000F1F801FB120B404600F0EAF87189044620
:10123000884203D905B00120BDE8F08FB0790025C0
:10124000002841D95D451AD3CFB171880298081A98
:10125000B8422CBF1FFA87F91FFA80F9CDF8009029
:10126000B0795346029A04FB005108FB00500BF082
:101270004DF900210291CA44A7EB090706E0B079B5
:1012800004FB005108FB00500BF02EFAB8B14FF0F0
:10129000AA300090B079042300216A4600FB04F0D4
:1012A0000BF0B6FFB079042300216A4600FB04F07E
:1012B000401C0BF0ADFF012000F02EF8B3E7B17930
:1012C000681C85B2A942BDD8B079A8421DD1CC21F5
:1012D0006A4601238DF8001000FB04F019460BF05C
:1012E00097FF40460BF01AFB72890021002A88BF45
:1012F00070690AD930F81130434502D120F8114005
:1013000003E0491C89B28A42F4D805B00020BDE848
:10131000F08F000020050220F8B5324C06466089A7
:1013200088B1616910F0010F4FF6FF70A1F1020161
:1013300018BF21F8020F6289520804D04880521E5B
:1013400021F8040FFAD10020A08105466089002809
:1013500021D9A079042300216A4600FB05F00BF097
:10136000EDFD9DF80000FF280DD10EB3A0790123FB
:1013700000216A4600FB05F0401C0BF0DFFD9DF8E4
:101380000000FF2814D018A02946FEF7DFFF60896F
:101390006D1CA842DDD882B2002A18BF002088BF89
:1013A000636918D933F810108A4211D8E08112E02D
:1013B0009DF803209DF80200618900EB0220814224
:1013C00002D9616921F81050A089401CA081DEE794
:1013D000401C8242E6D8E089642834BF0220002005
:1013E000F8BD00002005022062616420626C6F631A
:1013F0006B20696E6465783A25640D0A0000000070
:101400002DE9F84F2C4F81462C4E78893168401ECB
:10141000884228BF08464DD3441C4FF0000A09F00B
:1014200001054FF0FF3B4FF00108CDF800A012D0AE
:1014300028EA0400A8420CD1B979601E04236A4648
:1014400001FB00F000210BF079FD0098B0F1FF3FA7
:1014500022D0641EECD158467C893268611E8A42D3
:101460001ED2316009F00105CDF800A0F4B100BF33
:1014700028EA0400A8420CD1B979601E04236A4608
:1014800001FB00F000210BF059FD0098B0F1FF3F87
:1014900005D0641EECD109E0601E01D2DCE7601EBD
:1014A000B0F1FF3F1CBF3060BDE8F88F4FF0FF3058
:1014B000BDE8F88F3060AFE720050220540002201D
:1014C000F0B54A4C002683B03546A68160890028D5
:1014D00088BF4FF0AA373CD98DF804600123A0796A
:1014E000002101AA00FB05F00BF028FD9DF8040087
:1014F000FF282AD1A179012301AA01FB05F00021CF
:10150000401C0BF01BFD9DF80400FF281DD1284650
:101510000BF004FAB0B136A02946FEF717FF019789
:101520000423A079002101AA00FB05F00BF070FE56
:10153000A0790423002101AA00FB05F0401C0BF058
:1015400067FE02E0A089401CA08160896D1CA84252
:10155000C2D8A1892AA0FEF7F9FEA08964283EBF5F
:10156000012003B0F0BDC0EB40112A48002501EB7B
:1015700041010096A0FB0110618900294FEA501734
:101580002CD900BF8DF804600123A079002101AAA5
:1015900000FB05F00BF0D2FC9DF80400FF2819D1E8
:1015A000A0790123002101AA00FB05F0401C0BF0EB
:1015B000C5FC9DF80400FF280CD1A07902236A46DF
:1015C000194600FB05F00BF023FE0098401C00902C
:1015D000B84203D060896D1CA842D3D80120FFF720
:1015E0009BFE002818BF022003B0F0BD200502209A
:1015F00042616420626C6F636B3A25640D0A0000DF
:10160000676F6F645F626C6F636B6E756D3A2564B4
:101610000D0A00001F85EB5110B50BF0A9F9002849
:1016200021D1194C616900291CBF002010F024FB56
:1016300060894100002010F05FFB60616189490012
:10164000FFF783F8606970B10120FFF765FE60B1B4
:101650000EA0FEF77BFEFFF733FF90B111A0FEF75F
:1016600075FE022010BD012010BD618912A0FEF799
:101670006DFEA18916A0FEF769FEE18919A0FEF7AB
:1016800065FE002010BD000020050220666F726D0F
:101690006174206E616E6420666C6173682E2E2EFC
:1016A0000D0A0000666F726D6174206661696C6579
:1016B00064210D0A00000000746F74616C20626C7C
:1016C0006F636B206E756D3A25640D0A0000000093
:1016D000676F6F6420626C6F636B206E756D3A2567
:1016E000640D0A0076616C696420626C6F636B2024
:1016F0006E756D3A25640D0A000000002DE9FF4F5C
:101700005FEA0309144681B08A464FF000057CD099
:1017100052480AEB050C41888379B1FBF4F2C68983
:1017200002FB03F2BCFBF2F2964231BF4FF6FF72AE
:10173000466906EB420212884689964203D805B0F4
:101740000120BDE8F08FB1FBF4F6A9EB050B06FB19
:1017500003F0BCFBF0F600FB16C000FB04F0B0FB8E
:10176000F1FCB0FBF1F602FB036701FB1C08A1EBE7
:101770000800B0FBF4F086B25E4588BF1FFA8BF616
:1017800006FB04FB1FFA88F1019A1FFA8BF3384617
:101790000BF0B4F9032809D11FFA8BF3019A1FFA51
:1017A00088F138460BF0AAF9032808D0042818BF9E
:1017B000002846D005B04FF00200BDE8F08F1FFAB8
:1017C00088F1019A5B463846FFF720FDDFF88C80F0
:1017D0004FF0FF3198F80600B7FBF0F0FFF79EFCE2
:1017E00080B998F806000021B7FBF0F0FFF796FCEF
:1017F000834698F80600B7FBF0F00BF08FF8BBF1CA
:10180000000F1ED098F8060000E022E0B7FBF0F7CA
:101810004FF0AA30009098F80600042300216A4691
:1018200000FB07F00BF0F4FC98F8060004230021FD
:101830006A4600FB07F0401C0BF0EAFC0120FFF7B2
:101840006BFD0198354404FB06004D450190FFF403
:101850005FAF05B00020BDE8F08F0000200502203A
:101860002DE9FF4F85B016468A464FF000080898CC
:1018700000284FF0FF3004907CD94D480AEB080C4B
:1018800041888379B1FBF6F2C48902FB03F2BCFB09
:10189000F2F2944238BF4FF6FF7502D3446934F830
:1018A00012504289AA4203D809B00120BDE8F08F46
:1018B000B1FBF6F4089AA2EB0802039204FB03F0D2
:1018C00094B2BCFBF0F200FB12C000FB06FBBBFBBA
:1018D000F1F2BBFBF1F005FB030001FB12B9029032
:1018E000A1EB090080B2B0FBF6F0ADF80400A04215
:1018F00098BF044604FB06F701A800901FFA89F17F
:1019000002984FF0FF32C7F38F030BF0D7FA18B1EC
:1019100009B00220BDE8F08FBDF80400B0EB970FCE
:1019200018D1BBB2059A1FFA89F102980BF086FB19
:1019300080B90498A8422ED0CC208DF800001C4815
:1019400001236A461946807900FB05F00BF060FC24
:10195000049500B3164803998CB28179408801FB45
:1019600000F0A0EB0B00B0FBF6F080B2ADF8040085
:10197000844200E017E028BF044604FB06F71FFA84
:1019800089F1059A02983B46FFF740FC18B109B06F
:101990000320BDE8F08F0598A044384405900898CE
:1019A0008045FFF46AAF09B00020BDE8F08F000069
:1019B0002005022030B494460D4612F0070118BFEE
:1019C000012101EBDC010478421C11FB0CF0812C9D
:1019D0001378C2B228BF402B2BD3FF2B18BFFF2C8C
:1019E00027D07F2B34BFA3F14000A3F14100C0B248
:1019F000A4F18101254CC9B2BCF10C0FC1EB41131C
:101A000003EB811100EB410000FB02F329D0BCF194
:101A1000100F2DD0BCF1180F31D0BCF1200F1CBF1E
:101A200030BC7047D4F82100C118284630BC0DF0F6
:101A300051BB002A04BF30BC704712F0010F4FF0B9
:101A40000003A5F1010018BF00F8013F510804BFD1
:101A500030BC70474370491E00F8023FFAD130BCD9
:101A60007047D4F80900C118284630BC0DF032BBCD
:101A7000D4F81100C118284630BC0DF02BBBD4F8A7
:101A80001900C118284630BC0DF024BBD81407201B
:101A900010B5044600F0F1F80020E06484F8350049
:101AA00084F8340010BD704710B5114C002001219E
:101AB0006070104801F0A5F820780021401C2070CB
:101AC000084609F075FC0AF0C5F80B480B490C4AAA
:101AD0000068036843F001030360086840F00100F8
:101AE00008601068C16841F00101C16010BD0000CC
:101AF0005C00022000040240CC18022000000550C7
:101B00007C1802202DE9F04104460068274F042686
:101B1000056915F0040F0BD04661E06C40F002003F
:101B2000E06484F83560A06C0765A06C00F0C6FD29
:101B300015F0020F0DD0216802204861E06C40F0E2
:101B40000100E06484F83560A06C0765A06C00F0CB
:101B5000B5FD15F0100F05D0216810204861204612
:101B600000F08AF815F0080F05D0216808204861B8
:101B7000204600F06BF915F0010F08BFBDE8F081B9
:101B80002068016811F0020F03D0C16821F01E0126
:101B9000C16020680121C26822F00102C260206891
:101BA00041612046FFF780FFBDE8F081590A000837
:101BB000002804BF0120704770B5044690F8350036
:101BC000002804BF204600F059F8022084F83500B0
:101BD00020682849026811400160201D626990E870
:101BE0000B101043A26943EA0C03034304F12000E5
:101BF0000B4343EA020C0FC84CEA000C20684CEA85
:101C0000010C216B4CEA0202D0F800C01A431143C8
:101C100041EA0C010160606810281ED14FF47F403A
:101C2000A17F4FF07F4C257F90FAA0F20302607FE6
:101C3000B2FA82F293FAA3F39CFAACF694F81FC0BE
:101C40009040B3FA83F32268B6FA86F699400CFA0C
:101C500006F32843194308439061206800220121BC
:101C6000C36843F01E03C360E26484F83510104675
:101C700070BD000007F0E0FF7047704733484DF833
:101C800004ED87B0016841F001010160006800F0D7
:101C9000010005902E48016841F0010101600168D2
:101CA00001F001010591016841F002010160016844
:101CB00001F002010591016841F004010160016831
:101CC00001F004010591016841F00801016001681B
:101CD00001F008010591016841F080010160006890
:101CE000022101224FF00D0C00F0800005904020F1
:101CF00003238DE80F101748694600F051FE4FF49A
:101D0000607000901448694600F04AFE4FF43C6051
:101D100000901248694600F043FE082000901048E9
:101D2000694600F03DFE4FF4807000900D48694612
:101D300000F036FE002203214E2001F0E5F94E208E
:101D400001F0D6F907B05DF804FB0000343802401A
:101D50003038024000000240000402400008024007
:101D6000000C0240001C0240F8B5044690F8340014
:101D7000012804BF0220F8BD01204FF0020C84F8B6
:101D8000340084F835C0D4F800C0DCF8005045F4C5
:101D90008045CCF80050D4F800C0DCF8005025F0A5
:101DA0000205CCF80050D4F800C0DCF800502943FC
:101DB000CCF80010D4F848C000252249B3F5803F84
:101DC000CCF83C10A66CDFF880C0C6F84CC0D4F844
:101DD00048C0CCF85050A563256405D22168A06C9A
:101DE000283100F083FD23E0D4F848C0CCF844103B
:101DF000A063E3636264E06BB0F5803F09D3E06BFE
:101E00004008E063A06B4000A063E06BB0F5803F4A
:101E1000F5D2A06B801EA063A16BE36BE06B216425
:101E2000009002EB83032168A06C283100F054F885
:101E30002068016841F001010160002084F83450FD
:101E4000F8BD0000790A0008590A000870470068C8
:101E5000002A0CBFC16001610020704770B4856822
:101E60004FF0000C039C802D13D090F83450012DBE
:101E700002BF022070BC704790F83560012580F8E1
:101E80003450012E18BF4FF0020C08D070BC6046D1
:101E900070474FF480714FF0010C4165F6E7022561
:101EA00080F8355005682E6846F480262E60056857
:101EB0002B6103685C608368402B036803BF9A60F2
:101EC0000268D16099601CBF0168CA60006801683F
:101ED00041F001010160D9E72DE9F84F8568002440
:101EE000DDF828C0802D009415D090F83440012CE6
:101EF00004BF0220BDE8F88F90F83560012500246A
:101F000080F83450012E0CD00221009180F834402A
:101F10000098BDE8F88F4FF4807141650120BDE85D
:101F2000F88F022580F8355044650468256845F42B
:101F300080252560046823610368C3F804C08368B2
:101F4000402B03681DBF99600168CA609A6004BF96
:101F50000268D160DFF8E0C30168F84AF84B6145D8
:101F6000DFF8E0C3F84CF94DF94EFA4FDFF8E8839B
:101F7000DFF8E893DFF8E8A3DFF8E8B326D9914269
:101F800018BF994203D0614518BFA14202D14FF05A
:101F9000200118E0A94218BFB14203D0B94218BFCE
:101FA000414502D14FF400610DE0494518BF51454C
:101FB00007D059451EBFDFF8B0E371454FF000610F
:101FC00001D14FF40011DFF8A4E329E0DFF8A0E32A
:101FD000714528D9914218BF994203D0614518BF75
:101FE000A14202D14FF0200118E0A94218BFB1422E
:101FF00003D0B94218BF414502D14FF400610DE052
:10200000494518BF514507D059451EBFDFF858E371
:1020100071454FF0006101D14FF40011DFF854E336
:10202000CEF8001054E0DFF850E3714528D9914212
:1020300018BF994203D0614518BFA14202D14FF0A9
:10204000200118E0A94218BFB14203D0B94218BF1D
:10205000414502D14FF400610DE0494518BF51459B
:1020600007D059451EBFDFF800E371454FF000610E
:1020700001D14FF40011DFF804E3CEF80C1027E093
:10208000914218BF994203D0614518BFA14202D1C5
:102090004FF0200118E0A94218BFB14203D0B94265
:1020A00018BF414502D14FF400610DE0494518BF0A
:1020B000514507D059451EBFDFF8ACE271454FF0DE
:1020C000006101D14FF40011DFF8B0E2CEF8081042
:1020D000DFF864E20168714526D9914218BF994240
:1020E00003D0614518BFA14202D14FF0100118E0A2
:1020F000A94218BFB14203D0B94218BF414502D12D
:102100004FF480610DE0494518BF514507D059454E
:102110001EBFDFF854E271454FF0806101D14FF4EA
:102120008011DFF848E229E0DFF844E2714528D960
:10213000914218BF994203D0614518BFA14202D114
:102140004FF0100118E0A94218BFB14203D0B942C4
:1021500018BF414502D14FF480610DE0494518BFD9
:10216000514507D059451EBFDFF8FCE171454FF0DE
:10217000806101D14FF48011DFF8F8E1CEF8001052
:1021800054E0DFF8F4E1714528D9914218BF994233
:1021900003D0614518BFA14202D14FF0100118E0F1
:1021A000A94218BFB14203D0B94218BF414502D17C
:1021B0004FF480610DE0494518BF514507D059459E
:1021C0001EBFDFF8A4E171454FF0806101D14FF4EB
:1021D0008011DFF8A8E1CEF80C1027E0914218BF7B
:1021E000994203D0614518BFA14202D14FF01001BE
:1021F00018E0A94218BFB14203D0B94218BF414507
:1022000002D14FF480610DE0494518BF514507D018
:1022100059451EBFDFF850E171454FF0806101D193
:102220004FF48011DFF854E1CEF80810DFF808E130
:102230000168714526D9914218BF994203D0614582
:1022400018BFA14202D14FF0080118E0A94218BFFF
:10225000B14203D0B94218BF414502D14FF40071D9
:102260000DE0494518BF514507D059451EBFDFF85D
:10227000F8E071454FF0007101D14FF40021DFF813
:10228000ECE029E0DFF8E8E0714528D9914218BF79
:10229000994203D0614518BFA14202D14FF0080115
:1022A00018E0A94218BFB14203D0B94218BF414556
:1022B00002D14FF400710DE0494518BF514507D0D8
:1022C00059451EBFDFF8A0E071454FF0007101D104
:1022D0004FF40021DFF89CE0CEF8001078E0DFF842
:1022E00098E071454CD9914218BF994203D061459D
:1022F00018BFA14202D14FF0080118E0A94218BF4F
:10230000B14203D0B94218BF414502D14FF4007128
:102310000DE0494518BF514507D059451EBFDFF8AC
:1023200048E071454FF0007101D14FF40021DFF812
:102330004CE0CEF80C104BE05864024010600240B4
:1023400010640240706002407064024028600240E5
:102350002864024088600240886402404060024075
:1023600040640240A0600240A06402400C6402404D
:10237000B8600240086402405860024000600240B9
:10238000914218BF994203D0614518BFA14202D1C2
:102390004FF0080118E0A94218BFB14203D0B9427A
:1023A00018BF414502D14FF400710DE0494518BFF7
:1023B000514507D059451EBFDFF8DCE271454FF0AB
:1023C000007101D14FF40021DFF8D0E2CEF80810FF
:1023D000DFF8CCE20168714525D9914218BF9942D6
:1023E00003D0614518BFA14201D1AE4918E0A9420E
:1023F00018BFB14203D0B94218BF414502D14FF4D2
:1024000080710DE0494518BF514507D059451EBFA1
:10241000DFF884E271454FF0807101D14FF48021E3
:10242000DFF884E228E0DFF884E2714527D99142A1
:1024300018BF994203D0614518BFA14201D1994903
:1024400018E0A94218BFB14203D0B94218BF4145B4
:1024500002D14FF480710DE0494518BF514507D0B6
:1024600059451EBFDFF830E271454FF0807101D150
:102470004FF48021DFF838E2CEF8001052E0DFF8A8
:1024800034E2714527D9914218BF994203D0614582
:1024900018BFA14201D1834918E0A94218BFB14237
:1024A00003D0B94218BF414502D14FF480710DE00D
:1024B000494518BF514507D059451EBFDFF8D8E13F
:1024C00071454FF0807101D14FF48021DFF8CCE1EC
:1024D000CEF80C1026E0914218BF994203D0614516
:1024E00018BFA14201D16F4918E0A94218BFB142FB
:1024F00003D0B94218BF414502D14FF480710DE0BD
:10250000494518BF514507D059451EBFDFF888E13E
:1025100071454FF0807101D14FF48021DFF87CE1EB
:10252000CEF80810DFF878E10168714523D99142AF
:1025300018BF994203D0614518BFA14201D15E493D
:1025400017E0A94218BFB14203D0B94218BF4145B4
:1025500002D14FF040010CE0494518BF514506D06B
:1025600059451EBF4C4A91424FF4800101D14FF4AE
:1025700080314D4A26E0DFF834E1714524D991429B
:1025800018BF994203D0614518BFA14201D14A4901
:1025900017E0A94218BFB14203D0B94218BF414564
:1025A00002D14FF040010CE0494518BF514506D01B
:1025B00059451EBF384A91424FF4800101D14FF472
:1025C00080313B4A11604CE0DFF8E8E0714524D9E6
:1025D000914218BF994203D0614518BFA14201D171
:1025E000354917E0A94218BFB14203D0B94218BF1C
:1025F000414502D14FF040010CE0494518BF51451B
:1026000006D059451EBF244A91424FF4800101D1A2
:102610004FF48031214AD16023E0914218BF9942A2
:1026200003D0614518BFA14201D1234917E0A94257
:1026300018BFB14203D0B94218BF414502D14FF093
:1026400040010CE0494518BF514506D059451EBF11
:10265000114A91424FF4800101D14FF480310F4A69
:10266000916001680A6842F016020A6001684A69CE
:1026700042F080024A61016C002904BF816C00298C
:1026800004D001680A6842F008020A600068016824
:1026900041F0010101603BE4A0640240006002409F
:1026A00058640240040080000C640240B86002409C
:1026B00008640240586002400100800090F8351024
:1026C000022903D08021416501207047052180F84F
:1026D00035100068016821F0010101600020704799
:1026E000002804BF0120704790F83510022904BF6C
:1026F00002207047002102682123D2F800C02CF08C
:10270000010CC2F800C002681160026851600268E2
:1027100091600268D16002681161026853610268C9
:102720000F4B02F0FF0CACF1100C6FF30902A3FB8E
:102730000CC3DFF830C01B09032B1CF803C0C0F822
:102740005CC088BF121D3F23826503FA0CF39360BF
:10275000416580F8351080F8341000207047000083
:10276000ABAAAAAAC83501082DE9F047044600F033
:1027700051FA002C054604BF0120BDE8F087002671
:10278000022084F8346084F835002068016821F064
:10279000010101602068006810F0010F11D000BF36
:1027A00000F038FA401B052806D920216165032076
:1027B00084F83500BDE8F0872068006810F0010F4C
:1027C000EED1D4E9023CD4E90010D4E904721843F4
:1027D0004CEA0708D4E90653D4E908C740EA0809D7
:1027E000086849EA0202DFF8F8802A4342EA030255
:1027F00000EA080042EA0C02042F42EA000003D17A
:10280000D4E90B231A431043086023680122606A4D
:102810005969042821F0070140EA010144D1A06A66
:10282000D4F818C00143BCF1000F0AD0BCF5005F1A
:102830001CD000281CBF012802282CD0032826D039
:1028400032E020B1012807D002280AD02CE0E06A4B
:1028500010F0807F1FD127E0E06AB0F1C07F23D164
:1028600019E0E06A10F0807F15D11DE098B10128D1
:1028700008D002280FD0032804BFE06AB0F1C07F5F
:1028800009D011E0E06A10F0807F04D10CE0E06A2A
:1028900010F0807F08D04FF04000606584F835204C
:1028A0004FF00100BDE8F087596120680D49C3B2BF
:1028B000A3F110036FF30900A1FB03310A4B4FEAA8
:1028C000111103295B5CE36588BF001D3F21A065F2
:1028D00099408160666584F835200020BDE8F08766
:1028E0003F8010E0ABAAAAAAC8350108F0B490F85E
:1028F00034404FF0000C012C846D02BF0220F0BC6C
:10290000704790F83570012680F834600025012F5B
:102910001CBF4FF0020C80F8345002D0F0BC60466F
:102920007047022680F83560456505682E6826F4F4
:1029300080262E6005686B608368402B036803BFA8
:102940009A600268D16099601CBF0168CA6090F803
:102950005C103F2202FA01F1A16001680A6842F0AE
:1029600016020A6001684A6942F080024A61016CFD
:1029700021B101680A6842F008020A600068016833
:1029800041F001010160C9E731B500F043F90446A7
:1029900000F040F90099001B8842F9D338BD0000CF
:1029A0002DE9F84F8F4E002201274FF003094FF019
:1029B0000F0800BF0B6807FA02FC03EA0C0363452B
:1029C00040F00A814C68022C18BF122C13D14FEA38
:1029D000D204D1F810B04FEA427A00EB8404256AA1
:1029E0004FEADA6A08FA0AFE0BFA0AFA25EA0E0535
:1029F0004AEA0505256291F804B04FEA4204D0F88E
:102A000000A00BF0030B09FA04F50BFA04FB2AEA09
:102A1000050A4BEA0A0AC0F800A0D1F804A0BAF1EE
:102A2000010F18BFBAF1020F05D0BAF1110F18BF8C
:102A3000BAF1120F19D1D0F808A0D1F80CB02AEAD7
:102A4000050A0BFA04FB4BEA0A0AC0F808A0D0F802
:102A500004A091F804B02AEA0C0CCBF3001B0BFA8B
:102A600002FA4AEA0C0CC0F804C0D0F80CC0D1F845
:102A700008A02CEA050C0AFA04F444EA0C0CC0F88D
:102A80000CC0D1F804C01CF0805F7DD0356822F006
:102A9000030C4FEA827445F4804535604FEA1474A4
:102AA00035680CF1804C0CF5983C05F48045009598
:102AB00008FA04FADCF80858A0F1804BBBF5003B9B
:102AC00025EA0A0508BF4FF0000A48D0A0F1804A65
:102AD000BAF5013A08BF4FF0010A40D0A0F1804A90
:102AE000BAF5023A08BF4FF0020A38D0A0F1804A86
:102AF000BAF5033A08BF4FF0030A30D0A0F1804A7C
:102B0000BAF5043A08BF4FF0040A28D0A0F1804A71
:102B1000BAF5053A08BF4FF0050A20D0A0F1804A67
:102B2000BAF5063A08BF4FF0060A18D0A0F1804A5D
:102B3000BAF5073A08BF4FF0070A10D0A0F1804A53
:102B4000BAF5083A08BF4FF0080A08D0A0F1804A49
:102B5000BAF5093A0CBF4FF0090A4FF00A0A0AFA0F
:102B600004FA214C4AEA0505CCF808584D68D4F817
:102B700000C015F4803F2CEA030C18BF4CEA030C8C
:102B80001A4DC4F800C000E026E04C68D5F800C03B
:102B900014F4003F2CEA030C18BF4CEA030CDFF8D6
:102BA00050A0C5F800C04C68DAF800C014F4801FCB
:102BB0002CEA030C18BF4CEA030C0E4CCAF800C0F8
:102BC0004D68D4F800C015F4001F2CEA030C18BFA0
:102BD0004CEA030CC4F800C0521C102AFFF4EAAE01
:102BE000BDE8F88F44380240003C0140043C0140FD
:102BF000083C01400C3C01400069084018BF01201E
:102C000070474269514041617047002A08BF09047A
:102C1000816170470148006870470000340002205D
:102C200002480168491C016070470000340002201E
:102C3000074810B5016841F400710160052000F0FB
:102C400093FA0F2000F006F800F0D2F9002010BD32
:102C5000003C0240084A10B504464FF47A701268EE
:102C6000B2FBF0F002F056FB00222146501E00F0AD
:102C70004BFA002010BD0000300002202DE9F05F6B
:102C8000044690F8A000012804BF0220BDE8F09F90
:102C90000125022002EB820384F8A05084F8A100F1
:102CA00003EBC200B1E8C81F04EB80003830A0E895
:102CB000C81F91E8C811203980E8C811204609F0E2
:102CC000A9FA216800204D6284F8A15084F8A00080
:102CD000BDE8F09F002804BF0120704770B504468E
:102CE00090F8A100002520B9204684F8A05000F0FB
:102CF00081F83F48022184F8A110012221688B69E4
:102D000023F070438B61D4E9013C43EA0C03D4E91E
:102D1000031C41EA0C0C216843EA0C03D1F818C0EB
:102D200043EA0C038B6121688B6803408B60216848
:102D3000A38AD4F818C08E6846EA0C0C4CEA034308
:102D40008B602168CB680340CB602168A38BD4F8EB
:102D500020C0CE6846EA0C0C4CEA0343CB602168E5
:102D60000B6903400B612168A38CD4F828C00E695D
:102D700046EA0C0C4CEA03430B6121684B6918408E
:102D800048612068A18D236BD0F814C04CEA03037E
:102D900043EA01414161216894F8353094F83600E6
:102DA000D1F82CC000040CF07F4CC1F82CC040EAD4
:102DB0000321206894F83430D0F82CC04CEA030387
:102DC0001943C1622068416B41F0040141632068EE
:102DD000416B41F0020141632068816941F00101CA
:102DE0008161C4F8A45084F8A120002070BD0000C7
:102DF00000F800F0344810B586B0016841F08061F9
:102E00000160006800F0806005903048016841F47E
:102E100000010160016801F400010591016841F0C1
:102E200002010160016801F002010591016841F0B1
:102E300020010160016801F020010591016841F065
:102E400040010160016801F040010591016841F015
:102E500080010160016801F080010591016841F481
:102E60008071016000680324202100F480700590C7
:102E70000120CDE90204CDE9001015486946FFF7AD
:102E80008FFD022100220E2304934FF480608DE811
:102E9000170010486946FFF783FD4FF40C6000905F
:102EA0000D486946FFF77CFD4FF47E4000900B48CB
:102EB0006946FFF775FD40F2F760009008486946E3
:102EC000FFF76EFD06B010BD4438024030380240B6
:102ED000000402400014024000180240001C02409E
:102EE0000020024070B5044690F8A0008C460128EE
:102EF00004BF022070BD03EB830000EBC30101257A
:102F000084F8A050022004EB810184F8A100C1F8EC
:102F100038C0086E6044C1E90F02486E104448642E
:102F200038311A46204609F075F9216800204D62B3
:102F300084F8A15084F8A00070BD70B5044690F8E4
:102F4000A0008C46012804BF022070BD03EB830063
:102F500000EBC300012504EB800084F8A05000269C
:102F600000F13801022084F8A1002046C1E9006C7C
:102F7000C1E90262C1E90AC21A4609F04BF92068A8
:102F8000456284F8A150002084F8A06070BD000064
:102F9000DFF858C0F0B443780CF10402111DCCF8EE
:102FA00000300378002B04BF002010601BD0436862
:102FB0001360057BC37A827A90F80DC02F07847B5B
:102FC00047EA0367C57B47EAC242467A42EA8C4237
:102FD000037A42EA444242EA0542007842EA062283
:102FE00042EA430210430860F0BC704798ED00E0ED
:102FF0007047002804BF0120704770B5044690F860
:10300000210015460E4628B9002084F820002046ED
:1030100000F018F82068211DFDF70CFFD4E900022C
:103020003146FDF7F4FED4E900022946FDF7DDFE46
:1030300020680121026842F00402026084F8211035
:10304000002070BD254870B586B0016841F00101CF
:103050000160006800F0010005902148016841F01E
:1030600008010160016801F008010591016841F063
:1030700010010160016801F010010591016841F043
:103080004001016000680121164E002400F040005C
:1030900005900325039540200090CDE90141694644
:1030A0003046FFF77DFC701502210C2204928DE85A
:1030B00033000D486946FFF773FC4DF6330069464F
:1030C000029400903046FFF76BFC4FF4F0600090E4
:1030D00006486946FFF764FC06B070BD3838024008
:1030E00030380240000C024000180240001002403C
:1030F000410900F01F008A00012102F1E02201FADB
:1031000000F0C2F800017047164B30B41B68C3F3DF
:103110000223C3F1070CBCF1040F88BF4FF0040C6D
:103120001C1D072C34BF0023DB1E012404FA0CFCF9
:1031300004FA03F5ACF101042140A5F1010C99401A
:103140000CEA0202114300284FEA0111B8BF00F057
:103150000F0000F1E020B4BF80F8141D80F80014C7
:1031600030BC70470CED00E0074900F007004FF657
:10317000FF030A681A4042EA002040F0FD7040F068
:1031800080600860704700000CED00E01C4838B516
:10319000016841F08051016000681A4D00F08050D4
:1031A0000090286840F480302860FFF733FD044623
:1031B000686810F4803F09D1FFF72CFD001BB0F5C3
:1031C0007A7F15D8686810F4803FF5D0286840F4FD
:1031D00000302860FFF71EFD0446686810F4003FC9
:1031E0000CD100BFFFF716FD001BB0F57A7F01D9A7
:1031F000032038BD686810F4003FF3D0002038BDCC
:1032000040380240007000402DE9F84F16468A46CB
:103210000446FFF7FFFC834694F83800012804BFFA
:103220000220BDE8F88F01274FF0000884F83870BD
:1032300094F83900012818BF022504D084F838809A
:103240002846BDE8F88F4FF00209C4F83C8084F8A6
:103250003990002220215B46204600960AF014FD9A
:103260000500EBD10022514620460AF07FFBDAF838
:103270002400002818BF84F83970DFD101225B4692
:103280000221204600960AF0FFFC0500D6D12068F6
:10329000C0F80C9084F83970D0E700002DE9F843AD
:1032A0000446FFF7B7FC002C074604BF0120BDE829
:1032B000F88394F83800012804BF0220BDE8F883A1
:1032C0000126002584F8386094F8390038B984F86C
:1032D0003850204600F048F841F2883020642068D9
:1032E0006FF0FF03A268016803EB022221F4F8519A
:1032F00011430160206C002220213B4600902046B3
:103300000AF0C2FC50BB2168D4E907C32779E26800
:10331000D1F8008042EA0C0C124A43EA07634CEAF7
:10332000030328F0D00C2CF07F4C43EA0C030B6015
:103330002168D4E9053C278AD1F8048043EA0C03CC
:1033400008EA020242EA07421A434A6021680A6810
:1033500042F001020A60E56384F8396084F838506D
:10336000BDE8F883FEF8E0FF214830B587B001687A
:1033700041F002010160006800F0020005901D4864
:10338000016841F002010160016801F0020105914C
:10339000016841F020010160006803240221164DFC
:1033A00000F020000590402001220A2304938DE8BC
:1033B000170069462846FFF7F3FA0021CDE9021409
:1033C00020020E4C694600902046FFF7E9FA0420DF
:1033D00000900921284604916946FFF7E1FAC020D0
:1033E000694600902046FFF7DBFA07B030BD0000C9
:1033F00038380240303802400004024000140240D5
:103400002DE9F84F15468A460446FFF703FC81462E
:103410002068816994F8382000F12006012A04BF51
:103420000220BDE8F88F01274FF0000884F83870BB
:1034300094F83920012A18BF022003D084F838807C
:10344000BDE8F88FBAF1000FC4F83C8035D02222D5
:1034500084F839200269521C62860269521C228655
:10346000C4F82CA0426922F0406242F080624261BE
:1034700020688161608E90B101224B460621204672
:1034800000950AF001FCA8B93178E06A421CE262BA
:103490000170608E401E6086608E0028ECD1012293
:1034A0004B460221204600950AF0EEFB10B9226837
:1034B0000221D16084F83970C0E7E16B012041F04E
:1034C0000801E163BAE700002DE9F84F15468A4686
:1034D0000446FFF79FFB94F83810814620680129C5
:1034E00000F1200604BF0220BDE8F88F01274FF04D
:1034F000000884F8387094F83910012918BF0220A8
:1035000004D000BF84F83880BDE8F88FBAF1000F0E
:10351000C4F83C8031D0122184F839100169491C6B
:1035200061850169491C2185C4F824A0416921F005
:1035300040614161608D90B101224B4604212046DB
:1035400000950AF0A1FBA8B9606A411C616200788D
:103550003070608D401E6085608D0028ECD10122A6
:103560004B460221204600950AF08EFB10B92268D6
:103570000221D16084F83970C4E7E16B012041F089
:103580000801E163BEE700002DE9F84F044600782A
:10359000DFF824844FF0000910F0010FCA4610D064
:1035A000D8F8000020F40000C8F80000D8F80000A7
:1035B000616B0843C8F80000606B002808BF4FF03B
:1035C0000109FE4D206810F4002F10D0E06B29682F
:1035D00021F4401108432860E06BB0F5801F08BF5C
:1035E0004FF0010903D0002808BF4FF0010A2068FE
:1035F00010F4801F10D0206C296821F4400108438A
:103600002860206CB0F5800F08BF4FF0010903D08F
:10361000002808BF4FF0010A206810F0807F18BF13
:103620004FF0010910F0200F60D0E548016841F02B
:10363000805101600068E34F00F0805000903868CE
:1036400040F480703860FFF7E5FA0646386810F4F9
:10365000807F09D1FFF7DEFA801B642800F24D83DA
:10366000386810F4807FF5D0D74F386810F4407078
:1036700028D0218E01F44071814223D03868396806
:1036800020F4407041F480313960396821F4803190
:1036900039603860386810F0010F13D0FFF7BAFABC
:1036A0000646386810F0020F08BF41F2883B09D186
:1036B000FFF7B0FA801B584500F21F83386810F0FE
:1036C000020FF5D0206B4FF4407181431CBFD8F836
:1036D000000020F4F81000F0F58000BFC8F80000EA
:1036E000208E3968C0F30B0008433860207810F052
:1036F000100F07D0286820F0807028602868A16B20
:10370000084328602188B14811F4804F05D0616ECC
:10371000026822F4403211430160218811F4004F05
:1037200005D0A16E026822F4402211430160216895
:1037300011F4803F05D0E16E026822F4401211437B
:103740000160216811F4003F05D0216F026822F466
:10375000400211430160217811F0400F05D0616CE7
:10376000026822F0030211430160217811F0800FFA
:1037700005D0A16C026822F00C021143016021887F
:1037800011F4807F05D0E16C026822F03002114311
:103790000160218811F4007F05D0216D026822F0BC
:1037A000C00211430160218811F4806F05D0616D62
:1037B000026822F4407211430160218811F4006F05
:1037C00005D0A16D026822F4406211430160218896
:1037D00011F4805F05D0E16D026822F4405211437C
:1037E0000160218811F4005F05D0216E026822F487
:1037F000404211430160216811F4800F05D0A16F90
:10380000026822F0806211430160216811F4001FF8
:103810000BD0E16F026822F0006211430160E16F9A
:10382000B1F1006F08BF4FF0010A216811F0080FD5
:1038300018BF4FF0010A11F4802F05D0616F0268A4
:1038400022F0407211430160216811F4000F06D08C
:10385000D4F88010026822F0805211430160216880
:1038600011F0806F06D0D4F88410026822F0005264
:1038700011430160206810F0006F06D0D4F8880072
:10388000296821F0007108432860206810F0805FEB
:1038900006D0D4F88C00296821F0806108432860A4
:1038A000B9F1010F47F6C0794FF440364FF0706719
:1038B0004FF0E0481CBF2068B0F1007F0DD000F051
:1038C0002CB900BFD8F8001020F4407020F07040F0
:1038D00021F4F81141EA000000E73D48016821F0B9
:1038E00080610160FFF796F983463948006810F05F
:1038F000006F0BD0FFF78EF9A0EB0B00642800F2ED
:10390000FC813348006810F0006FF3D1207810F08C
:10391000010F34D0606B90BB2E4A106896FAA6F166
:10392000126897FAA7F300F44030D4F804C0B1FA53
:1039300081F199FAA9FBC84002F07061B3FA83F2F1
:1039400096FAA6FEBBFA8BF3BEFA8EFBD14097FA2D
:10395000A7FE0CFA03F2BEFA8EF3D4F808C000FA00
:103960000BF098FAA8FEDFF86CB010439940BEFA4D
:103970008EF208430CFA02F10843CBF800002068ED
:1039800010F4002F03D0E16BB1F5801F06D010F4C6
:10399000801F4CD0206CB0F5800F48D10D490868CD
:1039A00096FAA6F2096800F44030B2FA82F296FA6A
:1039B000A6FC99FAA9FB0FE0083802408C380240B7
:1039C0004038024000700040703802409038024099
:1039D0000038024084380240D04097FAA7F263686A
:1039E000BCFA8CFCB2FA82FEBBFA8BFB98FAA8F206
:1039F00000FA0CF003FA0BF301F0E041D4F80CB03C
:103A0000B2FA82F298FAA8FCD1401843C04BBCFA33
:103A10008CFC0BFA0EF2104301FA0CF1084318600B
:103A20002868616A20F01F02481E10432860206841
:103A300010F0807F33D0B64A106897FAA7F1126869
:103A400096FAA6FB00F07060B1FA81F199FAA9FC30
:103A5000C8400090BBFA8BFB2169BCFA8CFC606803
:103A600098FAA8F302F0E04201FA0BF100FA0CF028
:103A700097FAA7FB40EA010E0098B3FA83F3A44932
:103A8000BBFA8BFC98FAA8FBDA4000FA0CF3BBFAFD
:103A90008BF04EEA030302FA00F018430860206836
:103AA00010F0007F20D099FAA9F1606896FAA6F389
:103AB000D4F808E0D4E903C2B1FA81F1B3FA83F390
:103AC00000FA01F197FAA7FB91489A40BBFA8BF3F1
:103AD00098FAA8FB11430CFA03F2BBFA8BF31143DB
:103AE0000EFA03F2114301608A48016841F08061D7
:103AF0000160FFF78FF883468648006810F0006F7A
:103B00000BD100BFFFF786F8A0EB0B0064287CD830
:103B10008048006810F0006FF4D0BAF1000F75D043
:103B2000DFF8F0A1DAF8000020F08050CAF80000B9
:103B3000FFF770F88346DAF8000010F0005F0AD053
:103B4000FFF768F8A0EB0B0064285ED8DAF80000F5
:103B500010F0005FF4D1206810F4002F01D0E16B69
:103B600021B110F4801F3CD0206CD0BB6A4908689A
:103B700096FAA6F2096800F44030B2FA82F263695C
:103B800096FAA6FCD04099FAA9FB97FAA7F2BCFADC
:103B90008CFCB2FA82FEBBFA8BFB98FAA8F200FA10
:103BA0000CF003FA0BF301F0E041D4F818B0B2FACC
:103BB00082F298FAA8FCD1401843574B0BFA0EF248
:103BC000BCFA8CFC104301FA0CF1084318606FF04A
:103BD000FF0B2868A16A20F4F8500BEB0121084381
:103BE0002860206810F4001F39D0E06FB0F1006F3A
:103BF00035D14949086897FAA7F3096898FAA8F2F5
:103C000099FAA9FCB2FA82F201E076E07DE096FA38
:103C1000A6FB00F07060B3FA83F3BBFA8BFED4F816
:103C200020B0D8406369BCFA8CFC0BFA0EFB97FA03
:103C3000A7FE03FA0CF301F0E041BEFA8EFC98FAFD
:103C4000A8FED14000FA0CF243EA0B0B324BBEFA4D
:103C50008EF04BEA020201FA00F01043186020785F
:103C600010F0080F36D02C480268016896FAA6F3C7
:103C700096FAA6FCD4F814B001F44031B3FA83F3F9
:103C800097FAA7F699FAA9F9D94002F07062B6FA44
:103C900086F3B9FA89F6DA40BCFA8CFC0BFA06F323
:103CA00097FAA7F701FA0CF6B7FA87F1D4F81CC017
:103CB00098FAA8F702FA01F1B7FA87F233431943E9
:103CC0000CFA02F2114301602868E16A20F44030E6
:103CD00008432860DAF8000040F08050CAF800007D
:103CE000FEF798FF0446DAF8000010F0005F0CD1F0
:103CF000FEF790FF001B642802D90320BDE8F88F6F
:103D0000DAF8000010F0005FF2D00020BDE8F88F74
:103D10008438024000380240883802402DE9F047DC
:103D2000DFF8E48106460F46D8F8000000F00F00E7
:103D3000B8420CD2D8F8000020F00F003843C8F881
:103D40000000D8F8000000F00F00B84272D13078BF
:103D50006E4D10F0020F05D0B068296821F0F00117
:103D600008432860307810F0010F50D0706868491F
:103D7000012821D00968022823D011F0020F59D060
:103D8000296821F0030108432860FEF743FF044639
:103D9000706841F28839012817D00228286800F09D
:103DA0000C0022D000B300BFFEF734FF001B4845D3
:103DB00029D90320BDE8F087096811F4003FDFD15D
:103DC00038E011F0007FDBD134E0286800F00C000F
:103DD00004281CD0FEF71EFF001B4845E9D82868C0
:103DE00000F00C000428F5D111E008280FD000BF26
:103DF000FEF710FF001B4845DBD8286800F00C00D8
:103E00000828F5D103E0286810F00C0FCCD1D8F8C1
:103E1000000000F00F00B8420FD9D8F8000020F0E1
:103E20000F003843C8F80000D8F8000000F00F0079
:103E3000B84202D00120BDE8F087307810F0040FBE
:103E400005D0F068296821F4E051084328603078F3
:103E500010F0080F06D03069296821F4604141EA6A
:103E6000C00028602B48296811F00C0138D02A4B7B
:103E7000042908BF184633D0082931D1274947F60D
:103E8000C07C0A680C6802F03F0214F4800F0CD06A
:103E90000868B3FBF2F29CFAACF300EA0C00B3FA48
:103EA00083F3D84002FB00F20CE00B68B0FBF2F0A9
:103EB0009CFAACF203EA0C03B2FA82F223FA02F2A1
:103EC00000FB02F208684FF4403393FAA3F100F4C8
:103ED0004030B1FA81F1C840401C4000B2FBF0F024
:103EE0002968F02292FAA2F201F0F001B2FA82F20D
:103EF000D1400B4A515CC8400A4908600F20FEF7C8
:103F0000A9FE0020BDE8F087003C024008380240CE
:103F1000003802400024F40040787D01043802405B
:103F2000B03501083000022008484FF4E052016823
:103F300092FAA2F2064801F4E051B2FA82F2D140BC
:103F4000044A0068515CC8407047000008380240CD
:103F500030000220C035010808484FF46042016873
:103F600092FAA2F2064801F46041B2FA82F2D1401C
:103F7000044A0068515CC84070470000083802409D
:103F800030000220C035010821492248096811F09B
:103F90000C0108BF7047204B042904BF1846704726
:103FA000082918BF70474DF8044D47F6C0711B4AE9
:103FB000D2F800C014680CF03F0C14F4800F0BD042
:103FC0001068B3FBFCF391FAA1FC0840BCFA8CF139
:103FD000C84003FB00F00AE01368B0FBFCF091FA64
:103FE000A1FC1940BCFA8CF3D94000FB01F0116828
:103FF0004FF440335DF8044B93FAA3F201F44031DF
:10400000B2FA82F2D140491C4900B0FBF1F070478E
:10401000083802400024F40040787D010438024052
:104020002DE9F84FF74F05460078A7F1040810F086
:10403000010FA8F1040659D0386800F00C000428DC
:1040400009D0386800F00C0008280DD1D8F800001D
:1040500010F4800F08D0306810F4003F46D0686834
:10406000002800F0CB8141E06868B0F5803F04BFD4
:10407000306840F480300AD010B1B0F5A02F11D0D4
:10408000306820F480303060306820F48020306068
:104090006868D0B1FEF7BEFD0446306810F4003FFA
:1040A00008D023E0306840F480203060306840F46D
:1040B0008030ECE7FEF7AEFD001B642800F237818C
:1040C000306810F4003FF5D010E0FEF7A3FD044681
:1040D000306810F4003F09D0FEF79CFD001B6428F7
:1040E00000F22581306810F4003FF5D1287810F0F7
:1040F000020F5CD038684FF0F80910F00C0F18D0A0
:10410000386800F00C00082804BFD8F8000010F44C
:10411000800F0ED0E8680028306834D040F00100ED
:104120003060FEF777FD0446306810F0020F15D0BE
:104130001DE0306810F0020F1CBFE868012840F055
:104140005D812869316899FAA9F2B2FA82F221F008
:10415000F80100FA02F041EA000012E0FEF75AFD11
:10416000001B02287ED8306810F0020FF6D02969B3
:10417000306899FAA9F2B2FA82F220F0F800914080
:104180000843306013E020F001003060FEF742FD8C
:104190000446306810F0020F09D000BFFEF73AFD68
:1041A000001B02285ED8306810F0020FF6D1287884
:1041B00010F0080F34D0DFF8509268690028D9F861
:1041C000000016D040F00100C9F80000FEF722FD03
:1041D0000446D9F8000010F0020F21D1FEF71AFDB5
:1041E000001B02283ED8D9F8000010F0020FF5D0CD
:1041F00016E020F00100C9F80000FEF70BFD0446B0
:10420000D9F8000010F0020F0AD000BFFEF702FD3F
:10421000001B022826D8D9F8000010F0020FF5D1B3
:10422000287810F0040F69D07848016841F0805177
:1042300001600068DFF8D89100F080500090D9F854
:10424000000040F48070C9F80000FEF7E3FC04466B
:10425000D9F8000010F4807F0CD100BFFEF7DAFC23
:10426000001B00E063E0642861D8D9F8000010F476
:10427000807FF3D0A868674C012804BF206840F015
:10428000010009D008B1052813D0206820F00100F2
:104290002060206820F004002060A86841F2883A7D
:1042A000D0B1FEF7B7FC8146206810F0020F08D0AD
:1042B00024E0206840F004002060206840F0010005
:1042C000EAE7FEF7A7FCA0EB090050452FD82068CD
:1042D00010F0020FF5D011E0FEF79CFC814620683B
:1042E00010F0020F0AD000BFFEF794FCA0EB09000B
:1042F00050451CD8206810F0020FF5D1A869E8B32A
:10430000396801F00C01082978D00228306820F0C3
:10431000807030600ED0FEF77DFC0446306810F0EF
:10432000007F68D0FEF776FC001B02285FD90320CF
:10433000BDE8F88FFEF76EFC0446306810F0007F91
:1043400009D000BFFEF766FC001B0228EFD83068DA
:1043500010F0007FF6D1D5E909C147F6C0704FF0E3
:10436000FF324FF4403790FAA0F497FAA7F002EB2F
:1043700051074FF07069B4FA84F100E03BE0D5E9F1
:104380000732B0FA80F00CFA01FA07FA00F043EABB
:10439000020199FAA9F74FF0E0444AEA0003D5E98F
:1043A0000BC294FAA4F4B7FA87F019430CFA00F0A0
:1043B000B4FA84F3084302FA03F10843C8F8000092
:1043C000306840F080703060FEF724FC04463068AE
:1043D00010F0007F0FD100BFFEF71CFC001B02286D
:1043E000A5D8306810F0007FF6D004E006E0306811
:1043F00010F0007F96D10020BDE8F88F0120BDE8C5
:10440000F88F0000083802407438024040380240FB
:104410000070004070380240002804BF012070473F
:1044200070B5044690F82C000D4628B9002084F899
:104430002D00204600F012F8022084F82C0020689D
:10444000211DFCF7C1FDD4E900022946FCF71DFE41
:10445000012084F82C00002070BD00002F484DF88A
:1044600004ED87B0016841F001010160006800F0CF
:10447000010005902A48016841F0040101600168CB
:1044800001F004010591016841F008010160016833
:1044900001F008010591016841F010010160016817
:1044A00001F010010591016841F0200101600168EF
:1044B00001F020010591016841F0400101600068B0
:1044C000022101224FF00C0C00F0400005900D205D
:1044D00003238DE80F1013486946FEF761FA4CF28A
:1044E0000370009010486946FEF75AFA4FF6837041
:1044F00000900E486946FEF753FA4FF63F000090D1
:104500000B486946FEF74CFA48F23710009009480C
:104510006946FEF745FA07B05DF804FB38380240FB
:104520003038024000080240000C024000100240F7
:10453000001402400018024010B5044690F82C0008
:10454000022808BF10BD022084F82C002068FCF768
:104550006DFD012084F82C00002010BD70B50446CC
:1045600090F82C000D46022808BF70BD022084F888
:104570002C002068FCF760FD286802280CBF05208D
:10458000012084F82C00002070BD00002DE9F00F00
:1045900090F8202081F85620828CA1F85420826A5D
:1045A000120E4FEA921C81F800C0C2F3830302F09E
:1045B00003024B708A70826A120CCA70028D120A52
:1045C0000A7190F828204A714FF6FF79C26A120EDC
:1045D00009EA0212CA80CB88C26AC2F307424FEAD4
:1045E000121C02F00F0243EA0C03CB800A72002374
:1045F000828DC2F307224FEAD21C81F809C0C2F3B0
:104600008014C2F34015C2F300168C72CD720E7383
:104610004B734FF0010C046A1F46002C18BF012C8D
:1046200000F0B780022C18BF292700F0F58000BFEA
:10463000C2F380144C769206520E8A7690F830209F
:104640008C7ED5092C438C7602F07F02CA76426BB1
:10465000120ED4090C77C2F34115C2F382069207F9
:104660004D778E77120FCA77CC7F426BC2F3074229
:1046700044EA9214CC77C2F3401502F0010281F8AB
:10468000205081F8213081F82220828EC2F3072247
:10469000D30981F82330C2F38014C2F34015C2F36A
:1046A0000016C2F3810802F0030281F8244081F869
:1046B000255081F8266081F8278081F8282090F81D
:1046C0003420520881F8292081F82AC0826B120E0A
:1046D00081F82C20826B120C09EA0222CA85CB8D4C
:1046E000028FC2F307221A43CA8590F838201206B7
:1046F0000A630B6BC26B120E43EA02420A630B6B36
:10470000C26BC2F3074243EA02220A630B6B828F39
:10471000C2F307221A430A6390F83C2081F8342040
:10472000026C120E81F83520026C120C12068A639C
:104730008B6BB0F84020C2F3072243EA02428A633F
:104740008B6B90F8402043EA02228A638B6B426CA9
:1047500043EA12628A6391F83C30426CC2F307422A
:10476000150743EA121281F83C202B0DCB87CB8F23
:10477000B0F84420C2F307221A43CA8790F84400D5
:10478000400881F8400081F841C03846BDE8F00F8C
:1047900070479207120D0A610C6990F82C2044EAC8
:1047A00082020A610C69026B120E44EA92140C61D7
:1047B000C2F3C20602F007020E754A75026BC2F31D
:1047C0000742940755098D75C2F38202CA75640FBA
:1047D0000C760C7E028EC2F3072244EAD2140C76C9
:1047E0000C690E7E0D7A0CFA05F5B61C0D650CFAF7
:1047F00006F8641C4FEAE87AA4FB086B03FB08B8D0
:1048000004FB0A84A6FB058A04FB05A406FB0344FB
:10481000C1E912840CE700BF90F82C204FF400741B
:104820009206920A0A610D69026B120E45EA022293
:104830000A610D69026BC2F307422A430A610A69E1
:10484000068E551CC6F3072243F100064FEAC64800
:104850006E0BED048D6448EA0606C1E91364E7E6D1
:104860002DE9F34F8DB0044600258DF828500577CB
:1048700000F0F2F9762000952B462A462946CDE92C
:104880000150206809F059FB00278DF80050B94607
:104890002068416821F480714160206809F062FB62
:1048A0000120FEF771F820684FF48066416841F4FA
:1048B00080714160029502A903950495CDE90556E2
:1048C000206809F056FB22680023B001516BC1F348
:1048D000C01104E0516B401EC1F3C01111D000297A
:1048E000F8D000281CBF40F2FF50906309D000BFF1
:1048F0008DF800309DF800004FF0040B00287DD1AA
:1049000001E00323F4E708214FF4D5704FF040088D
:10491000CDF81080CDE90201206802A909F029FB39
:10492000206829214FF48032436B13F0450F07D1E3
:10493000436BA2F1010213F0450F01D1002AF7D118
:10494000436B002AC3F3800200D01AB10321C0F8E0
:1049500038B006E0426B12F0400F1CBF0021C0F8D7
:1049600038808DF800109DF8000018B901202062F1
:104970004FF080494FF0370A02A9CDE9025A20686A
:1049800009F0F7FA3721204609F086FB8DF8000080
:104990009DF80000002804BF49F4801949F000493F
:1049A00051D100BFCDE9025ACDF8108002A9CDE95E
:1049B0000556206809F0DDFA3721204609F06CFB26
:1049C0008DF800009DF80000C0B92920CDF80890AE
:1049D000CDE90308CDE90556206802A909F0C9FA16
:1049E00020680022416B11F0450FFBD0416B11F0A4
:1049F000040F04BF40F2FF51816300E023E01CBFBD
:104A00000322C0F838B08DF800209DF80000D0B91E
:104A10002068002109F08AFAC10F07F1010703D1CC
:104A20004FF6FF718F42BDD34FF6FF718F4205D312
:104A30001B208DF800009DF8000006E010F0804F6C
:104A40001CBF022020629DF800008DF828009DF810
:104A5000280000287DD14FF00108ADF804802068BF
:104A6000002709F05FFA002816BF206A25270428CE
:104A70005CD04FF002004FF0C001CDE9061508965A
:104A800004A9CDE90450206809F073FA20680027D2
:104A9000416B11F0450FFBD0416B11F0040F7CD13D
:104AA000416B11F0010F79D140F2FF518163206811
:104AB0004FF0000109F03AFAA0630421206809F0E0
:104AC00035FAE0630821206809F030FA20640C21EF
:104AD000206809F02BFA6064206A002818BF0128BA
:104AE00003D0062818BF02283FD14FF040014FF0F5
:104AF0000300CDE90501206804A909F03AFA20680D
:104B000000270DF104094FF0030A416B11F0450F26
:104B1000FBD0416B11F0040F44D1416B11F0010F38
:104B200048D109F0FCF9504501D010275DE021681B
:104B300040F2FF5088630021206809F0F7F910F473
:104B4000604F04BF000CA9F800000ED010F4005F05
:104B500000E04FE018BF132747D110F4804FE4D195
:104B600010F4004F18BF0F273FD1206A04283CD013
:104B7000BDF8040009226062C02306930104CDE958
:104B80000412206804A909F0F4F920680027416B99
:104B900011F0450FFBD0416B01E003E00AE011F09A
:104BA000040F03D00327C0F838B01EE0416B11F0AA
:104BB000010F03D04746C0F8388016E040F2FF519D
:104BC00081632068002109F0B1F9A0620421206806
:104BD00009F0ACF9E0620821206809F0A7F9206328
:104BE0000C21206809F0A2F960638DF828709DF807
:104BF000280020B19DF828000FB0BDE8F08F0E9975
:104C00002046FFF7C3FC8DF828009DF82800A0B9C6
:104C10000E9807224021B0F8540005960004CDE913
:104C20000102CDE90315206801A909F0A2F90721C5
:104C3000204609F031FA8DF82800D4E90401A26970
:104C40000292CDE9000194E80F0009F076F99DF891
:104C500028000FB0BDE8F08F1D484DF804ED87B077
:104C6000016841F400610160006800F40060059093
:104C70001848016841F480010160016801F4800175
:104C80000591016841F004010160016801F004012F
:104C90000591016841F008010160006802210122CC
:104CA0004FF00C0C00F00800059003234FF4F8506F
:104CB0008DE80F1008486946FDF772FE0420009049
:104CC00006486946FDF76CFE07B05DF804FB00007E
:104CD000443802403038024000080240000C0240D4
:104CE0002DE9F04F91B00446006816460D464FF08E
:104CF0000008DDE91A79C0F82C80206A022803D167
:104D00000702500A40EAC3560097402010220101D2
:104D1000CDE90120CDE903812068694609F029F930
:104D20001021204609F0B8F900281CBF11B0BDE8D9
:104D3000F08F09FB07F001234FF0020A4FF0FF311B
:104D40009022CDE90610CDE9082ACDE90A83206832
:104D500006A909F0CDF8B9F1010F8CBF122011207E
:104D6000009601906946206809F003F9B9F1010F36
:104D700023D91221204609F08FF907001CBF11B07A
:104D8000BDE8F08F2068406B10F4957F3AD1206821
:104D9000406B10F4004F18BF002608D0206809F0BF
:104DA000E5F845F82600761C082EF7D32035206854
:104DB000406B10F4957FEAD024E01121204609F0E1
:104DC0006BF907001CBF11B0BDE8F08F40F22A4B11
:104DD0002068406B10EA0B0F14D12068406B10F470
:104DE000004F18BF002608D0206809F0BFF845F82A
:104DF0002600761C082EF7D320352068406B10EA79
:104E00000B0FEAD02068406B10F4807F18BFB9F117
:104E1000010F19D9206A00281CBF0128022813D1CC
:104E20004FF00C024FF04000CDE90E084FF48061C6
:104E30001091CDE90C8220680CA909F09AF80C2198
:104E4000204609F029F907462168486B10F0080F41
:104E50001CBF0822042003D08A6311B0BDE8F08F84
:104E6000486B10F0020F1FBF5046C1F838A011B0B8
:104E7000BDE8F08F486B10F0200F1ABF20220620EB
:104E80004FF0FF36E8D104E009F070F8761E45F8DF
:104E9000040B2068416B11F4001F18BF002EF3D1E2
:104EA000014640F2FF50886311B03846BDE8F08FEC
:104EB0002DE9F04F0546006A00240F4603288BB009
:104EC00002BF27200BB0BDE8F08F00281CBF0128CF
:104ED000022850D1B7F5805F08BF27244BD0B7F523
:104EE000006F4FF037084FF4806A4FF040094FF0E1
:104EF000060B4FF0000604D0002F18BF262430D038
:104F00006EE0009600210196286809F00FF810F075
:104F1000007F2FD16946284609F04AF988BB0198DD
:104F200010F4802F60D0A88C04A9CDE90696CDF8A6
:104F300020A00004CDE90408286809F01AF83721F8
:104F4000284609F0A9F8E0B90220CDE9040B286849
:104F500004A909F00EF80621284609F09DF880B949
:104F600033E0049600210596286808F0DFFF10F072
:104F7000007F01D00E2433E004A9284609F018F977
:104F800008B104462CE0059810F4803F2CD0A88C82
:104F900006A9CDE90896CDF828A00004CDE90608B9
:104FA000286808F0E6FF3721284609F075F8002840
:104FB000E7D1CDE9066B286806A908F0DAFF0621DB
:104FC000284609F069F80028DBD1D5E905C0EB686F
:104FD000D5E901120097CDE901C0286808F0ADFFBE
:104FE0000BB02046BDE8F08F2524F9E72DE9F04FFE
:104FF00093B04FF0000A044617460D465646DDE9C9
:105000001C898DF818A00068C0F82CA0206A02281E
:1050100004D1500A4FF4007840EAC357CDF81C8001
:10502000102040218201CDE90801CDE90AA22068C3
:1050300007A908F09EFF1021204609F02DF800284E
:105040001CBF13B0BDE8F08FB9F1010F8CBF192060
:1050500018200797089007A9206808F08AFFB9F17F
:10506000010F04D91921204609F016F803E0182190
:10507000204609F011F800281CBF13B0BDE8F08FDE
:1050800009FB08F801234FF0FF3200209021CDE901
:105090001003CDE90E10CDE90C2820680CA908F00A
:1050A00027FF2068B9F1010F35D9406B10F48D7FCF
:1050B00068D12068406B10F4804F26D0A8EB060022
:1050C000202828BF002716D210F0030F0EBF4FEA8A
:1050D000900A800800F1010A0027BAF1000F14D9E4
:1050E0002068294608F05AFF2D1D7F1CBA4506F19D
:1050F0000406F5D809E0206805EB870108F04EFFAB
:105100007F1C082FF7D3203520362068406B10F421
:105110008D7FCED036E0406B40F21A4A10EA0A0F7B
:1051200030D12068406B10F4804F26D0A8EB0600E9
:10513000202828BF002716D210F0030F0EBF4FEA19
:10514000900B800800F1010B0027BBF1000F14D970
:105150002068294608F022FF2D1D7F1CBB4506F163
:105160000406F5D809E0206805EB870108F016FF72
:105170007F1C082FF7D3203520362068406B10EABB
:105180000A0FCED02068406B10F4807F18BFB9F1B1
:10519000010F1AD9206A00281CBF0128022814D147
:1051A0004FF00C034FF000004FF480624FF04001CD
:1051B000CDE901030592CDE90310206801A908F0AB
:1051C000D8FE0C21204608F067FF2168486B10F0DC
:1051D000080F1CBF0822042003D08A6313B0BDE867
:1051E000F08F486B10F0020F1FBF0220886313B0CE
:1051F000BDE8F08F486B10F0100F19BF102205208A
:1052000040F2FF508863E8D106A9204609F086F8ED
:1052100000281CBF13B0BDE8F08F9DF818100729B7
:1052200018BF0629F0D013B0BDE8F08F002804BFE6
:105230000120704770B5044690F8450015460E46AB
:1052400028B9002084F84400204600F01BF82068AC
:1052500004F10801FBF730FEA26831462068FBF735
:105260007BFEE36A2946D4E90102FBF701FEA1684F
:10527000206850F8212042F0010240F8212000204F
:1052800070BD000019484DF804ED87B0016841F089
:1052900001010160006800F00100059014480168F8
:1052A00041F008010160016801F008010591016801
:1052B00041F0100101600068022101224FF00C0C46
:1052C00000F01000059003234EF2B3708DE80F102C
:1052D00008486946FDF764FB4FF680700090064869
:1052E0006946FDF75DFB07B05DF804FB3838024006
:1052F00030380240000C02400010024004284FF0F9
:10530000E02001690CBF41F0040121F004010161BA
:1053100070470000401EB0F1807F24BF012070471D
:105320004FF0E0214861F020034A82F8140D00207C
:10533000072288610A6170470FE000E070477047FC
:10534000002804BF0120704710B5044690F83900CA
:10535000002804BF204600F00DF8022084F8390030
:105360002068211D09F08AFA012084F83900002004
:1053700010BD0000094808B5016841F00201016054
:1053800000680322012100F0020000901D20FDF7BB
:10539000BBFEBDE808401D20FDF7AABE4038024014
:1053A0000168CA6842F00102CA600068016841F001
:1053B0000101016000207047704770B50446006825
:1053C0000025016911F0020F1CBFC16811F0020F26
:1053D00013D001216FF002020261217620688069FA
:1053E00010F0030F204602D0FFF7E6FF04E000F0C4
:1053F000A6F8204600F0A8F925762068016911F08A
:10540000040F1CBFC16811F0040F13D002216FF00C
:105410000402026121762068806910F4407F2046F2
:1054200002D0FFF7C9FF04E000F089F8204600F041
:105430008BF925762068016911F0080F1CBFC1683F
:1054400011F0080F13D004216FF0080202612176D9
:105450002068C06910F0030F204602D0FFF7ACFFB0
:1054600004E000F06CF8204600F06EF92576206824
:10547000016911F0100F1CBFC16811F0100F13D09B
:1054800008216FF01002026121762068C06910F4D3
:10549000407F204602D0FFF78FFF04E000F04FF876
:1054A000204600F051F925762068016911F0010FBE
:1054B0001CBFC16811F0010F05D06FF0010101613F
:1054C000204600F063F920686FF08005016911F053
:1054D000800F1CBFC16811F0800F03D0056120460A
:1054E000FFF72CFF2068016911F4807F1CBFC168A1
:1054F00011F0800F03D005612046FFF71FFF2068E1
:10550000016911F0400F1CBFC16811F0400F05D0B8
:105510006FF040010161204600F060F920680169E8
:1055200011F0200F1ABFC16811F0200F70BD6FF08D
:10553000200101612046BDE87040FFF700BF7047C1
:105540002DE9F047044690F838000D4601280DBFBC
:105550000220012684F83860BDE8F08702200C2A7A
:1055600084F8390047D006DC6AB1042A1DD0082A25
:105570002FD000F0C0B8DFF890C1102A634B4ED096
:10558000142A7DD0B7E0206809F0DAF92068816933
:1055900041F0080181612068816921F00401816185
:1055A000206829698269114311E0206809F0FBF93C
:1055B0002068816941F4006181612068816921F47A
:1055C0008061816120682969826942EA01218161E3
:1055D00091E0206809F01DFA2068C16941F00801D6
:1055E000C1612068C16921F00401C1612068296995
:1055F000C269114311E0206809F041FA2068C169CD
:1056000041F40061C1612068C16921F48061C16118
:1056100020682969C26942EA0121C1616BE0206802
:10562000016A21F480310162076A4168426D604578
:10563000B5F8089027F40037D5F8008022F0700202
:1056400022F4803247EA094C48EA020218BF984225
:1056500004D16B6921F4803141EA03214160426544
:1056600069688165C0F820C02068416D41F008017B
:1056700041652068416D21F004014165206800E02A
:1056800004E02969426D42EA010133E02068016AC1
:1056900021F480110162026A4168476D6045B5F8E6
:1056A000089022F40012D5F8008027F4E04C2CF08A
:1056B000807C42EA09524CEA082C18BF984204D177
:1056C0006B6921F4802141EA83214160C0F854C014
:1056D0006968C16502622068416D41F400614165FD
:1056E0002068416D21F48061416520682969426D1F
:1056F00042EA012141654FF0000084F8396084F8E6
:105700003800BDE8F08700000000014000040140BF
:10571000002804BF0120704710B5044690F83900F6
:1057200028B9002084F83800204600F00CF8022048
:1057300084F839002068211D09F0A0F8012084F8C0
:105740003900002010BD704770470268012303FA3A
:1057500001F1136A8B431362136A194311620168E2
:10576000A1F18042B2F580321CBFA1F18042B2F5B6
:10577000823203D14A6C42F400424A6400680168F4
:1057800041F0010101600020704700000849884293
:1057900018BF704710B5074C07A02178FAF7D6FD5F
:1057A0000848018808A0FAF7D1FD0020207010BD3C
:1057B0002C1902205C0002206672616D653A256436
:1057C0000D0A0000080002206A7065675F6461745A
:1057D000615F6C656E3A25640D0A00007047704782
:1057E00070B5016804462025C8690A688B6810F006
:1057F0000F0F5CD040F2011C13EA0C0F00F0FB808D
:1058000010F0010F18BF12F4807F07D04FF0010C89
:10581000C1F820C0E16E41F00101E16610F0020F15
:1058200018BF13F0010F08D0D4F800C00221CCF843
:105830002010E16E41F00401E16610F0040F18BF82
:1058400013F0010F08D0D4F800C00421CCF82010C8
:10585000E16E41F00201E16610F0080F0CD002F099
:10586000200103F00103194306D0236808211962BF
:10587000E16E41F00801E166E16E002908BF70BDEC
:1058800010F0200F18BF12F0200F0BD094F86A20F0
:105890002046B4F85C10222A48D02068816941F083
:1058A00008018161E06E10F0080F76D170E010F011
:1058B000200F18BF12F0200F69D094F86A302046EC
:1058C000B4F85C20222B04D0886940F0080088617D
:1058D00070BD8368B3F5805F04BF0369002B4B6A1A
:1058E000416D03EA02021CD001F1010343650A7015
:1058F000B0F85A10A1F101010904090CA0F85A10DE
:1059000018BF70BD01680A6822F490720A600168CD
:105910008A6822F001028A6080F86A5000F0D7F9A4
:1059200070BD0A80416D891C4165E1E78268B2F56E
:10593000805F04BF0269002A0368426D5B6A1FD062
:1059400002F1010CC0F854C003EA010182F8001012
:10595000B0F85A10A1F101010904090CA0F85A107D
:10596000A0D101680A6822F490720A6001688A680E
:1059700022F001028A6080F86A5000F0A8F991E7ED
:1059800019401180416D891C4165E1E705E032E075
:105990002068806810F0400F27D02068016821F44B
:1059A000907101602068816821F00101816084F8B4
:1059B0006A502068816811F0400F12D0816821F090
:1059C00040018160606E60B12E490165606EFCF738
:1059D00075FE002808BF70BD606E016DBDE87040A7
:1059E00008472046FFF7FBFE70BD2046FFF7F7FE95
:1059F0000020E06670BD10F0800F18BF12F0800F1D
:105A000030D094F86900212818BF70BDB4F8520056
:105A1000A8B1A068B0F5805F04BF20690028E06CE1
:105A200017D000F10101E16421680078C1F8280075
:105A3000B4F85200A0F10100A4F8520070BD08684B
:105A400020F0800008602068016841F0400101609A
:105A500070BD0088C0F308008862E06C00F10200AD
:105A6000E064E5E710F0400F14BF12F0400F70BD86
:105A70000A68204622F040020A6084F8695000F06B
:105A800027F970BD11EC0008002804BF0120704701
:105A900010B5044690F8690028B9002084F8680021
:105AA000204600F029F8242084F869002068016865
:105AB00021F001010160204609F0B4F8012808BF77
:105AC00010BD606A00281CBF204609F004F8206859
:105AD000416821F4904141602068816821F02A01E9
