:020000040800F2
:10000000481B07200903000825C80008BF52000844
:100010007DBA00088109000899E500080000000089
:1000200000000000000000000000000085DB000868
:10003000410D00080000000053CF0008C1DD00089A
:1000400023030008230300082303000823030008F8
:1000500023030008230300082303000823030008E8
:1000600023030008230300082303000823030008D8
:1000700023030008230300082303000823030008C8
:1000800023030008230300082303000823030008B8
:1000900023030008230300082303000823030008A8
:1000A0002303000823030008230300082303000898
:1000B0002303000825DE000831DE000823030008C2
:1000C0002303000823030008230300082303000878
:1000D0002303000821E50008230300082303000888
:1000E0002303000823030008230300082303000858
:1000F0002303000823030008230300082303000848
:100100002303000823030008230300082303000837
:100110002303000823030008230300082303000827
:10012000230300086D0C00082303000823030008C4
:100130002303000823030008230300082303000807
:1001400023030008230300082303000823030008F7
:1001500023030008230300082303000823030008E7
:1001600023030008230300082303000823030008D7
:100170002303000823030008550B000800000000BB
:1001800023030008230300082303000823030008B7
:1001900023030008230300082303000823030008A7
:1001A0002303000823030008230300082303000897
:1001B0002303000823030008230300082303000887
:1001C00023030008230300080000000023030008A5
:1001D0002303000823030008230300082303000867
:1001E0002303000823030008230300082303000857
:1001F000230300082303000800F002F800F06DF864
:100200000AA090E8000C82448344AAF10107DA4571
:1002100001D100F062F8AFF2090EBAE80F0013F056
:10022000010F18BFFB1A43F001031847408E01006D
:10023000608E01000A444FF0000C10F8013B13F0EF
:10024000070408BF10F8014B1D1108BF10F8015B2F
:10025000641E05D010F8016B641E01F8016BF9D122
:1002600013F0080F1EBF10F8014BAD1C0C1B09D179
:100270006D1E58BF01F801CBFAD505E014F8016BEB
:1002800001F8016B6D1EF9D59142D6D3704700007D
:100290000023002400250026103A28BF78C1FBD88F
:1002A000520728BF30C148BF0B607047642900F077
:1002B000A980752900F0A680782900F0DF806329E5
:1002C00000F00C83732900F01183002070471FB5E4
:1002D00012F085FC1FBD10B510BD00F021FB1146CA
:1002E000FFF7F5FF10F0D6FB00F03FFB03B4FFF77C
:1002F000F2FF03BC0EF04AFB30BF72B6704762B625
:10030000704780F3088870470948804709480047CC
:10031000FEE7FEE7FEE7FEE7FEE7FEE7FEE7FEE7B5
:10032000FEE7FEE704480549054A064B7047000012
:10033000C5DD0008F901000848150720481B072003
:100340004817072048170720704700000FB40449DA
:1003500010B503AA029800F0CDFA10BC5DF814FBAA
:100360002800022070B5044685690068C10601D5E1
:10037000302600E02026C00707D070BDD4E9012157
:1003800030469047206A401C20626D1EF6D570BD35
:1003900070B5044685690078C00707D170BDD4E9FF
:1003A000012120209047206A401C20626D1EF6D556
:1003B00070BD70B50C460546012A05D02878800628
:1003C00000D5EA69002302E0012305E05B1C9342AB
:1003D00002D2E05C0028F9D1A869E618C01AA86129
:1003E000286A184428622846FFF7BCFF04E0D5E9D4
:1003F000012114F8010B9047B442F8D32846FFF7C7
:10040000C7FF70BD2DE9F04106460024106875292C
:10041000314616A510D0AFF30080002802DA404222
:1004200013A507E031688A0701D512A502E0490744
:1004300004D511A5012401E0AFF3008000210A22B8
:1004400006F1240709E0B0FBF2FCB0FBF2F302FB7B
:100450001C00303078541846491C0028F3D123463C
:100460002A463046BDE8F04100F0BCB9000000006B
:100470002D0000002B0000002000000070B5044695
:100480000D4621461068AFF300802188090502D58A
:100490000F4A7A4402E00E4A7A440E32002104F1F7
:1004A000240305E000F00F060009965D5E54491C28
:1004B0000028F7D120780023000704D5702D02D042
:1004C00009B1022311322046BDE8704000F08AB91C
:1004D0007C8801002DE9F05F894604464FF0000A50
:1004E000DFF874B1FB44C0F820A02046E1688847DB
:1004F000002874D0252806D0D4E901219047206A2D
:10050000401C2062F1E700265F462046E1688847EC
:100510002028054607DB312D05D2781910F8200C6C
:1005200008B10643F1E7B00701D526F00406C4F888
:100530001CA00027C4F818A02A2D09D028460EF0C8
:100540001EFA38B304EB8708303DC8F8185019E09C
:1005500059F8041B204604EB87029161E168884743
:10056000012F054618D1E069002820DA26F0200680
:100570001DE0D8F8180000EB800005EB4000303893
:10058000C8F818002046E168884705460EF0F7F9DC
:100590000028EED1012F0AD02E2D08D12046E16887
:1005A00088477F1C0546022F46F02006C4DBA06961
:1005B000002803DA404246F00106A061F00701D0AE
:1005C00026F010066C2D0BD0682D09D04C2D39D09B
:1005D0006A2D35D0742D35D07A2D33D016E038E021
:1005E000E1682F4620468847B842054609D16C2F5E
:1005F00026D04FF48060E1680643204688470546D0
:1006000004E06C2F1AD04FF4807006430DB3A5F1AF
:100610004100192802D8203546F400664A4629468A
:10062000204626604E46FFF741FE80B101280BD0E0
:10063000F61D26F0070000F1080956E74020E4E720
:100640008020D8E70020D6E706F104094DE72846C8
:1006500052E7206ABDE8F09F52880100032A40F269
:10066000308010F0030C00F0158011F8013BBCF154
:10067000020F624498BF11F801CB00F8013B38BF6C
:1006800011F8013BA2F1040298BF00F801CB38BF7A
:1006900000F8013B11F0030300F02580083AC0F098
:1006A000088051F8043B083A51F804CBA0E8081040
:1006B000F5E7121D5CBF51F8043B40F8043BAFF373
:1006C0000080D20724BF11F8013B11F801CB48BFCD
:1006D00011F8012B24BF00F8013B00F801CB48BF03
:1006E00000F8012B704710B5203AC0F00B80B1E83C
:1006F0001850203AA0E81850B1E81850A0E8185057
:10070000BFF4F5AF5FEA027C24BFB1E81850A0E85F
:10071000185044BF18C918C0BDE810405FEA827C79
:1007200024BF51F8043B40F8043B08BF7047D20790
:1007300028BF31F8023B48BF11F8012B28BF20F831
:10074000023B48BF00F8012B70474FF0000204291C
:10075000C0F0128010F0030C00F01B80CCF1040CF0
:10076000BCF1020F18BF00F8012BA8BF20F8022B24
:10077000A1EB0C0100F00DB85FEAC17C24BF00F8CA
:10078000012B00F8012B48BF00F8012B70474FF0F8
:10079000000200B5134694469646203922BFA0E8D1
:1007A0000C50A0E80C50B1F12001BFF4F7AF0907DD
:1007B00028BFA0E80C5048BF0CC05DF804EB8900CE
:1007C00028BF40F8042B08BF704748BF20F8022B11
:1007D00011F0804F18BF00F8012B70477047704729
:1007E000704770472DE9F0470D46994692460446FA
:1007F00000F124080168880604D5E06921F01001A1
:10080000216000E00120A84201DD471B00E0002735
:10081000A1697A1902EB0900081AA0612078C006C4
:1008200002D42046FFF79EFD002608E0D4E901210E
:100830001AF806009047206A401C761C20624E453C
:10084000F4DB2078C0060AD52046FFF78BFD06E0D2
:10085000D4E9012130209047206A401C2062381ED4
:10086000A7F10107F4DC07E0D4E9012118F805003D
:100870009047206A401C2062281EA5F10105F3DC88
:100880002046FFF785FD2078000602D50220BDE84E
:10089000F0870120FBE7000001694A1C026108782B
:1008A000704700B58FB0CDE90131002105910549B0
:1008B0007944CDE9031011466846FFF70BFE0FB0EF
:1008C00000BD0000E5FFFFFF10B5436913B1AFF3B2
:1008D000008001E0FFF76DFD012010BD127800F1EE
:1008E00024010A7000224A700122EDE711684FF0DE
:1008F000FF32E9E7074B70B50D467B44FFF7D1FFA8
:100900000446284600F008F810B14FF0FF3070BDE3
:10091000204670BDBFFE0000007B00F080007047E5
:10092000754600F029F8AE4605006946534620F0AA
:100930000700854618B020B5FFF7F4FCBDE820405D
:100940004FF000064FF000074FF000084FF0000B8B
:1009500021F00701AC46ACE8C009ACE8C009ACE83E
:10096000C009ACE8C0098D4670470446AFF300806B
:100970002046FFF7BBFC000000487047E414072046
:10098000FEE7000070B4BFF34F8FBFF36F8F1C49B9
:1009900000201A4E0860316841F400313160BFF325
:1009A0004F8FBFF36F8F17490860BFF34F8F081F3A
:1009B000154943F6FF750068C0F34E3CC0F3C90407
:1009C00005EA4C12204600BF42EA80730B60401ECD
:1009D000FAD2BCF1010CF3D2BFF34F8F306840F470
:1009E00080303060BFF34F8FBFF36F8F07480168CF
:1009F00041F00401016070BC7047000014ED00E09C
:100A000050EF00E084ED00E060EF00E09CEF00E0DC
:100A100070B514460D4606460C4800F0DBFFE101B8
:100A20000A4CDFF82CC070010023AA01C4F800C0F2
:100A3000E160C4E90130C4E904232046A36101F068
:100A400045F820680168016070BD0000641802204C
:100A50000000055010B5806B816C496D022906D0ED
:100A6000012180F83510C16C41F04001C16400F0F3
:100A7000BCFF10BD2DE9FF4F324881B016460F462E
:100A80009E460E99026842F48002026000680025CA
:100A90002D4C4FF0007900F480000090A4F150003C
:100AA000DFF8A8A08464A0632068D0F800804FF429
:100AB00080524FF4003C28F0100B4FF00408131143
:100AC000C0F800B0C4F800A00320C4E90195C4F840
:100AD0002480C4E90351C4E90A0525632046C4E91A
:100AE000052EC4E9073C01F01FF9204601F060F92A
:100AF00000220421392001F017FE392001F0FCFD0D
:100B0000134984F83450AFB1019A3B462046009611
:100B100001F0B9F82068016841F01001016000227D
:100B20003920114601F000FE05B03920BDE8F04F34
:100B300001F0EEBD019A05B033460348BDE8F04F21
:100B400001F0F4B930380240B418022028640240A1
:100B500028000550014800F063BF0000641802201F
:100B600010B50F4C00200D49C4E90010A060E060F2
:100B700020616061A061204600F0A8FF2068C16884
:100B800021F01E01C1602068C16841F00101C1600F
:100B90002068016841F48041016010BD00000550EB
:100BA000641802202DE9F0471C4C80461D4616466D
:100BB0000F46206820F00100C4F80000D4F800C0FF
:100BC0001CF0010FFAD1DFF85890D9F80000016845
:100BD00021F0010101604FF6FF7004F02FFD2B465C
:100BE0003246394640460AF039F800212B46324653
:100BF00008460CF041F80021084609F0D1FE0AF041
:100C000021FBD9F80000016841F001010160206872
:100C100040F001002060BDE8F087000000000550B2
:100C2000B4180220054806490068026842F0010233
:100C30000260086840F0010008607047B4180220A4
:100C4000000005500748016821F0010101600168BA
:100C500011F0010FFBD104480068016821F0010187
:100C60000160704700000550B4180220284870B594
:100C7000284C0068DFF8A0C0284BA042284A04D9BD
:100C80002849096801F4006105E0604533D9264927
:100C9000096801F40061002908BF70BD4FF40061CC
:100CA000A04288BF214803D8604588BF204829D981
:100CB00001602048406880471F4900200860BFF35A
:100CC0004F8F081F43F6FF7500681C4AC0F34E3C67
:100CD000C0F3C90405EA4C11204600BF41EA807305
:100CE0001360401EFAD2BCF1010CF3D2BFF34F8F58
:100CF000BFF36F8F70BD98428CBF5168116801F4CB
:100D00000061C8E798428CBFD1609160D1E70000D4
:100D1000B418022058640240B86002405860024093
:100D20000060024004640240006402400C6402401F
:100D3000086402404400022084ED00E074EF00E00B
:100D400070474DF8044D0B89D1E9002C097BC4682C
:100D50001B0442EA0C2243EA01611143C1605DF8C1
:100D6000044B002070474DF8044D0B89D1E9002C4D
:100D7000097B84681B0442EA0C2243EA01611143A7
:100D800081605DF8044B00207047000030B4D1E969
:100D9000013CD1E9034543EA0C0CD1E90523016884
:100DA0002C434CEA0404DFF81CC044EA422201EA66
:100DB0000C0142EA4332114341F00801016030BCAA
:100DC000002070478101F0FF70B4B3F5804F18BF69
:100DD0006FF0704105D000BF40F8221070BC0020B9
:100DE00070478D688C89D1E9003C2E028D6950F8DE
:100DF000221046EA044443EA0C1C044B4CEA040C5F
:100E000019404CEA05031943E6E700000000F0CF63
:100E10002DE9F003D1E90225D1E904634C68082AE1
:100E200045EA060744EA020848EA0702D1E906C58E
:100E300042EA03020B68D1E9086442EA0C02D1F8E5
:100E400030C0D1E90A7842EA05028D6B42EA060613
:100E500050F8232046EA0406144C46EA0706D1F867
:100E6000349046EA080646EA0C0C4CEA050C02EA05
:100E700004024CEA090C4CEA020208BF42F04002AC
:100E800040F823200A6BB2F5801F05D10A684AB1E9
:100E9000026842F4801202600A681AB10268496B63
:100EA00011430160BDE8F003002070478004C0FFDB
:100EB0002DE9F001D1E901438F8900EB8202D1F8DD
:100EC00000C00D8A1E02154B4CEA041C0C7D46EA3C
:100ED00007464CEA0606D2F804C05F0103EB05584A
:100EE0008D6946EA080607EB046434432C430CF092
:100EF000404C44EA0C0CC2F804C0026812F4801F93
:100F000007D00A8A416803EB025221F470011143B1
:100F10004160BDE8F0010020704700000000F0FFD4
:100F200070B4D1E9006CD1E90243D1E90425012E66
:100F300043EA02064CEA040C8C69D1E907324CEA18
:100F40000606D1F824C046EA050141EA040109D0A9
:100F50000B4301681A4342EA0C026FF30E0111437E
:100F600001600CE005684468134325F4F8424CEA3C
:100F700002021A4302606FF30E042143416070BC09
:100F800000207047426942EA4101416100207047F8
:100F9000F8B515460446D1E9002388686FF01F0CA8
:100FA000C9681A430CEB401040EA412010430090FE
:100FB000206101F033F90646A06910F0200F0ED031
:100FC000B5F1FF3F07D025B101F028F9801BA842F9
:100FD00001D90320F8BDA06910F0200FF0D1002046
:100FE000F8BD2DE9F0036FF00F058B68D1E9006CB7
:100FF0002C01761E27044FEA04294FEA043805EB3A
:101000000C15B1F810C035430E7E04EB03248B8A17
:101010002543C96809EB0C4408EB035C012A07EB84
:1010200006630ED082683E1306EB01310D4302F0D9
:10103000704145EA040242EA0C021A4311438160FE
:1010400013E00E038168C2682543A6F5805421F49D
:1010500070412B4321F4700144EA0C0C02F0704201
:101060001A434CEA01018160C2600020BDE8F00330
:10107000704700002DE9F0472D4C82B04FF0000A78
:1010800089460DF1040806465746A0790025002838
:1010900015D9CDF80080C0B261884A4600FB06F041
:1010A0008B0800210BF0FEF96188BDF80400B0EB5D
:1010B000910F04D1A079691C8DB2A842E9D8A0791A
:1010C000A84203D102B00020BDE8F08730460AF004
:1010D00019FF20B117A03946FFF738F91CE0B9F124
:1010E000FF3F19D0ADF804A0A079002814D900BFA3
:1010F000A279BDF80400618806FB02008B0800227B
:1011000011460BF049FBBDF80400401C80B2ADF85D
:101110000400A1798142EBD8781C87B2032FB4D3A5
:101120000AA03146FFF712F902B00120BDE8F087AE
:10113000080502206572726F722065726173652006
:10114000626C6F636B3A25640D0A00006261642073
:10115000626C6F636B20636865636B65643A2564DA
:101160000D0A00002DE9FF4F404E924681B01F4608
:10117000B179B0FBF1F2B0FBF1F801FB120B404684
:1011800000F0E2F871890446884203D905B00120D5
:10119000BDE8F08FB0790025002841D95D451AD30C
:1011A000CFB171880298081AB8422CBF1FFA87F98C
:1011B0001FFA80F9CDF80090B0795346029A04FBEB
:1011C000005108FB00500AF095FC00210291CA442E
:1011D000A7EB090706E0B07904FB005108FB0050BB
:1011E0000AF076FDB8B14FF0AA300090B079042330
:1011F00000216A4600FB04F00BF0FEFAB0790423EC
:1012000000216A4600FB04F0401C0BF0F5FA0120B7
:1012100000F02EF8B3E7B179681C85B2A942BDD8B9
:10122000B079A8421DD1CC216A4601238DF8001067
:1012300000FB04F019460BF0DFFA40460AF062FEAC
:1012400072890021002A88BF70690AD930F81130EC
:10125000434502D120F8114003E0491C89B28A427B
:10126000F4D805B00020BDE8F08F0000080502208A
:10127000F8B52E4C06466289002A1CBF4FF6FF7057
:10128000616903D0521E21F8020BFBD10020A0811E
:1012900005466089002821D9A079042300216A46E7
:1012A00000FB05F00BF03EF99DF80000FF280DD182
:1012B00016B3A079012300216A4600FB05F0401C0B
:1012C0000BF030F99DF80000FF2815D018A0294632
:1012D000FFF73CF860896D1CA842DDD881B2002977
:1012E00018BF002088BF626919D900BF32F81030DA
:1012F000994211D8E08112E09DF803009DF8021098
:10130000628901EB00218A4202D9606920F81150FC
:10131000A089401CA081DDE7401C8142E6D8E0891D
:10132000642834BF02200020F8BD00000805022018
:1013300062616420626C6F636B20696E6465783AE9
:1013400025640D0A000000002DE9F84F2C4F81465E
:101350002C4E78893168401E884228BF08464DD3FC
:10136000441C4FF0000A09F001054FF0FF3B4FF01D
:101370000108CDF800A012D028EA0400A8420CD140
:10138000B979601E04236A4601FB00F000210BF0CE
:10139000C9F80098B0F1FF3F22D0641EECD1584646
:1013A0007C893268611E8A421ED2316009F00105D3
:1013B000CDF800A0F4B100BF28EA0400A8420CD187
:1013C000B979601E04236A4601FB00F000210BF08E
:1013D000A9F80098B0F1FF3F05D0641EECD109E0F8
:1013E000601E01D2DCE7601EB0F1FF3F1CBF306021
:1013F000BDE8F88F4FF0FF30BDE8F88F3060AFE701
:10140000080502203C000220F0B54A4C002683B0BB
:101410003546A6816089002888BF4FF0AA373CD99D
:101420008DF804600123A079002101AA00FB05F0DA
:101430000BF078F89DF80400FF282AD1A179012348
:1014400001AA01FB05F00021401C0BF06BF89DF890
:101450000400FF281DD128460AF054FDB0B136A083
:101460002946FEF773FF01970423A079002101AA02
:1014700000FB05F00BF0C0F9A0790423002101AABC
:1014800000FB05F0401C0BF0B7F902E0A089401CFE
:10149000A08160896D1CA842C2D8A1892AA0FEF74C
:1014A00055FFA08964283EBF012003B0F0BDC0EB0A
:1014B00040112A48002501EB41010096A0FB0110D4
:1014C000618900294FEA50172CD900BF8DF80460BC
:1014D0000123A079002101AA00FB05F00BF022F8FE
:1014E0009DF80400FF2819D1A0790123002101AA49
:1014F00000FB05F0401C0BF015F89DF80400FF28D8
:101500000CD1A07902236A46194600FB05F00BF0C6
:1015100073F90098401C0090B84203D060896D1C9C
:10152000A842D3D80120FFF7A3FE002818BF02204D
:1015300003B0F0BD0805022042616420626C6F6355
:101540006B3A25640D0A0000676F6F645F626C6F11
:10155000636B6E756D3A25640D0A00001F85EB51B3
:1015600010B50AF0F9FC002821D1194C6169002955
:101570001CBF00200FF07EFE6089410000200FF0AC
:10158000ADFE606161894900FFF7DFF8606970B105
:101590000120FFF76DFE60B10EA0FEF7D7FEFFF74A
:1015A00033FF90B111A0FEF7D1FE022010BD012043
:1015B00010BD618912A0FEF7C9FEA18916A0FEF731
:1015C000C5FEE18919A0FEF7C1FE002010BD000094
:1015D00008050220666F726D6174206E616E642072
:1015E000666C6173682E2E2E0D0A0000666F726D98
:1015F0006174206661696C6564210D0A0000000059
:10160000746F74616C20626C6F636B206E756D3AE1
:1016100025640D0A00000000676F6F6420626C6F24
:10162000636B206E756D3A25640D0A0076616C69F6
:101630006420626C6F636B206E756D3A25640D0AD1
:10164000000000002DE9FF4F5FEA0309144681B056
:101650008A464FF000057CD051480AEB050C4188C2
:101660008379B1FBF4F2C68902FB03F2BCFBF2F210
:10167000964232BF4FF6FF72466936F8122046890D
:10168000964203D805B00120BDE8F08FB1FBF4F617
:10169000A9EB050B06FB03F0BCFBF0F600FB16C044
:1016A00000FB04F0B0FBF1FCB0FBF1F602FB0367BA
:1016B00001FB1C08A1EB0800B0FBF4F086B25E450C
:1016C00088BF1FFA8BF606FB04FB1FFA88F1019A0C
:1016D0001FFA8BF338460AF005FD032809D11FFADB
:1016E0008BF3019A1FFA88F138460AF0FBFC0328B5
:1016F00007D0042818BF002845D005B00220BDE857
:10170000F08F1FFA88F1019A5B463846FFF72AFDF1
:10171000DFF88C804FF0FF3198F80600B7FBF0F04F
:10172000FFF7A8FC80B998F806000021B7FBF0F09D
:10173000FFF7A0FC834698F80600B7FBF0F00AF02C
:10174000E1FBBBF1000F1ED098F80600B7FBF0F7E5
:1017500000E020E04FF0AA30009098F80600042343
:1017600000216A4600FB07F00BF046F898F80600E7
:10177000042300216A4600FB07F0401C0BF03CF8F4
:101780000120FFF775FD0198354404FB06004D4527
:101790000190FFF461AF05B00020BDE8F08F0000BC
:1017A000080502202DE9FF4F85B016468A464FF006
:1017B0000008089800284FF0FF3004907CD94D486D
:1017C0000AEB080C41888379B1FBF6F2C48902FB6D
:1017D00003F2BCFBF2F2944238BF4FF6FF7502D31E
:1017E000446934F812504289AA4203D809B0012052
:1017F000BDE8F08FB1FBF6F4089AA2EB0802039261
:1018000004FB03F094B2BCFBF0F200FB12C000FB3F
:1018100006FBBBFBF1F2BBFBF1F005FB030001FB98
:1018200012B90290A1EB090080B2B0FBF6F0ADF85E
:101830000400A04298BF044604FB06F701A80090EC
:101840001FFA89F102984FF0FF32C7F38F030AF0B5
:1018500029FE18B109B00220BDE8F08FBDF80400E0
:10186000B0EB970F18D1BBB2059A1FFA89F1029815
:101870000AF0D8FE80B90498A8422ED0CC208DF86A
:1018800000001C4801236A461946807900FB05F0D8
:101890000AF0B2FF049500B3164803998CB281791F
:1018A000408801FB00F0A0EB0B00B0FBF6F080B22B
:1018B000ADF80400844200E017E028BF044604FBB2
:1018C00006F71FFA89F1059A02983B46FFF74AFC92
:1018D00018B109B00320BDE8F08F0598A044384442
:1018E000059008988045FFF46AAF09B00020BDE874
:1018F000F08F00000805022030B494460D4612F027
:10190000070118BF012101EBDC010478421C11FB27
:101910000CF0812C1378C2B228BF402B2BD3FF2BA5
:1019200018BFFF2C27D07F2B34BFA3F14000A3F1B9
:101930004100C0B2A4F18101254CC9B2BCF10C0F29
:10194000C1EB411303EB811100EB410000FB02F3FB
:1019500029D0BCF1100F2DD0BCF1180F31D0BCF143
:10196000200F1CBF30BC7047D4F82100C118284696
:1019700030BC0CF093BE002A04BF30BC704712F09C
:10198000010F4FF00003A5F1010018BF00F8013F5F
:10199000510804BF30BC70474370491E00F8023F35
:1019A000FAD130BC7047D4F80900C118284630BCC1
:1019B0000CF074BED4F81100C118284630BC0CF0ED
:1019C0006DBED4F81900C118284630BC0CF066BEB4
:1019D000B814072010B5044600F0DDF80020E064DC
:1019E00084F8350084F8340010BD704710B50FF04E
:1019F00023FD0848012100F008FC07480023074A9E
:101A00000178491C017043701068C16841F0010100
:101A1000C16010BD0004024044000220641802208E
:101A20002DE9F04104460068274F0426056915F0AA
:101A3000040F0BD04661E06C40F00200E06484F8D3
:101A40003560A06C0765A06C00F05BF915F0020F23
:101A50000DD0216802204861E06C40F00100E06494
:101A600084F83560A06C0765A06C00F04AF915F0A9
:101A7000100F05D0216810204861204600F08AF838
:101A800015F0080F05D0216808204861204600F0B5
:101A9000F9F815F0010F08BFBDE8F0812068016872
:101AA00011F0020F03D0C16821F01E01C16020684F
:101AB0000121C26822F00102C26020684161204613
:101AC000FFF794FFBDE8F081550A0008002804BF25
:101AD0000120704770B5044690F83500002804BF17
:101AE000204600F059F8022084F835002068284983
:101AF000026811400160201D626990E80B101043DC
:101B0000A26943EA0C03034304F120000B4343EAB8
:101B1000020C0FC84CEA000C20684CEA010C216B47
:101B20004CEA0202D0F800C01A43114341EA0C010A
:101B30000160606810281ED14FF47F40A17F4FF0F4
:101B40007F4C257F90FAA0F20302607FB2FA82F206
:101B500093FAA3F39CFAACF694F81FC09040B3FA42
:101B600083F32268B6FA86F699400CFA06F3284306
:101B7000194308439061206800220121C36843F0A3
:101B80001E03C360E26484F83510104670BD000087
:101B900007F0E0FF7047704733484DF804ED87B019
:101BA000016841F001010160006800F0010005904A
:101BB0002E48016841F001010160016801F0010156
:101BC0000591016841F002010160016801F0020124
:101BD0000591016841F004010160016801F0040110
:101BE0000591016841F008010160016801F00801F8
:101BF0000591016841F08001016000680221012225
:101C00004FF00D0C00F080000590402003238DE87C
:101C10000F101748694600F0CBF94FF46070009040
:101C20001448694600F0C4F94FF43C600090124833
:101C3000694600F0BDF9082000901048694600F0A0
:101C4000B7F94FF4807000900D48694600F0B0F984
:101C5000002203214E2000F067FD4E2000F058FDC9
:101C600007B05DF804FB0000343802403038024011
:101C7000000002400004024000080240000C024044
:101C8000001C0240704770B485684FF0000C039C44
:101C9000802D13D090F83450012D02BF022070BC6B
:101CA000704790F83560012580F83450012E18BF38
:101CB0004FF0020C08D070BC604670474FF4807142
:101CC0004FF0010C4165F6E7022580F835500568B4
:101CD0002E6846F480262E6005682B6103685C60E0
:101CE0008368402B036803BF9A600268D1609960E3
:101CF0001CBF0168CA600068016841F00101016011
:101D0000D9E790F83510022903D0802141650120E0
:101D10007047052180F835100068016821F0010145
:101D20000160002070470000002804BF01207047B8
:101D300090F83510022904BF022070470021026884
:101D40002123D2F800C02CF0010CC2F800C00268B8
:101D5000116002685160026891600268D160026897
:101D600011610268536102680F4B02F0FF0CACF185
:101D7000100C6FF30902A3FB0CC3DFF830C01B0982
:101D8000032B1CF803C0C0F85CC088BF121D3F23A2
:101D9000826503FA0CF39360416580F8351080F892
:101DA0003410002070470000ABAAAAAA002C01083A
:101DB0002DE9F047044600F031FA002C054604BF37
:101DC0000120BDE8F0870026022084F8346084F802
:101DD00035002068016821F0010101602068006879
:101DE00010F0010F11D000BF00F018FA401B0528B9
:101DF00006D920216165032084F83500BDE8F0870D
:101E00002068006810F0010FEED1D4E9023CD4E95B
:101E10000010D4E9047218434CEA0708D4E90653C9
:101E2000D4E908C740EA0809086849EA0202DFF86D
:101E3000F0802A4342EA030200EA080042EA0C0268
:101E4000042F42EA000003D1D4E90B231A431043C4
:101E5000086023680122606A5969042821F007019B
:101E600040EA010142D1A06AD4F818C00143BCF194
:101E7000000F0AD0BCF5005F1CD000281CBF012851
:101E800002282CD0032826D030E020B1012807D02A
:101E900002280AD02AE0E06A10F0807F1FD125E0F6
:101EA000E06AB0F1C07F21D119E0E06A10F0807FD4
:101EB00015D11BE098B1012808D002280FD00328C3
:101EC00004BFE06AB0F1C07F09D00FE0E06A10F013
:101ED000807F04D10AE0E06A10F0807F06D04020C5
:101EE000606584F835200120BDE8F08759612068DD
:101EF0000C49C3B2103B6FF30900A1FB03310A4B3D
:101F0000090903295B5CE36588BF001D3F21A065CB
:101F100099408160666584F835200020BDE8F0872F
:101F20003F8010E0ABAAAAAA002C010870B490F878
:101F300034404FF0000C012C02BF022070BC7047EF
:101F400090F83560012580F834500024012E1CBF24
:101F50004FF0020C80F8344002D070BC60467047ED
:101F6000022580F8355044650468256825F48025ED
:101F70002560046863608368402B036803BF9A6030
:101F80000268D16099601CBF0168CA60006801687E
:101F900041F001010160E0E731B500F03FF904468E
:101FA00000F03CF90099001B8842F9D338BD0000CD
:101FB0002DE9F84F8D4E002201274FF003094FF015
:101FC0000F0800BF0B6807FA02FC03EA0C03634525
:101FD00040F006814C68022C18BF122C12D1D40894
:101FE000D1F810B04FEA427A00EB8404256A4FEA38
:101FF000DA6A08FA0AFE0BFA0AFA25EA0E054AEA34
:102000000505256291F804B05400D0F800A00BF04B
:10201000030B09FA04F50BFA04FB2AEA050A4BEA5A
:102020000A0AC0F800A0D1F804A0BAF1010F18BF45
:10203000BAF1020F05D0BAF1110F18BFBAF1120FA1
:1020400019D1D0F808A0D1F80CB02AEA050A0BFA89
:1020500004FB4BEA0A0AC0F808A0D0F804A091F8E3
:1020600004B02AEA0C0CCBF3001B0BFA02FA4AEA82
:102070000C0CC0F804C0D0F80CC0D1F808A02CEAB1
:10208000050C0AFA04F444EA0C0CC0F80CC0D1F8B0
:1020900004C01CF0805F7CD0356822F0030C9407EC
:1020A00045F480453560240F35680CF1804C0CF503
:1020B000983C05F48045009508FA04FADCF80858C5
:1020C000A0F1804BBBF5003B25EA0A0508BF4FF0A5
:1020D000000A48D0A0F1804ABAF5013A08BF4FF093
:1020E000010A40D0A0F1804ABAF5023A08BF4FF089
:1020F000020A38D0A0F1804ABAF5033A08BF4FF07F
:10210000030A30D0A0F1804ABAF5043A08BF4FF074
:10211000040A28D0A0F1804ABAF5053A08BF4FF06A
:10212000050A20D0A0F1804ABAF5063A08BF4FF060
:10213000060A18D0A0F1804ABAF5073A08BF4FF056
:10214000070A10D0A0F1804ABAF5083A08BF4FF04C
:10215000080A08D0A0F1804ABAF5093A0CBF4FF03E
:10216000090A4FF00A0A0AFA04FA214C4AEA05055C
:10217000CCF808584D68D4F800C015F4803F2CEA1C
:10218000030C18BF4CEA030C1A4DC4F800C04C688D
:1021900000E025E0D5F800C014F4003F2CEA030C61
:1021A00018BF4CEA030CDFF850A0C5F800C04C681B
:1021B000DAF800C014F4801F2CEA030C18BF4CEAB4
:1021C000030C0E4CCAF800C04D68D4F800C015F4DA
:1021D000001F2CEA030C18BF4CEA030CC4F800C023
:1021E000521C102AFFF4EEAEBDE8F88F44380240CE
:1021F000003C0140043C0140083C01400C3C0140D3
:102200000069084018BF0120704742695140416190
:102210007047002A08BF09048161704701480068BF
:10222000704700001C00022002480168491C016040
:10223000704700001C000220074810B5016841F4F7
:1022400000710160052000F09FFA0F2000F006F8F1
:1022500000F0D2F9002010BD003C0240084A10B541
:1022600004464FF47A701268B2FBF0F002F054FBAF
:1022700000222146501E00F057FA002010BD000039
:10228000180002202DE9F05F044690F8A000012814
:1022900004BF0220BDE8F09F0125022002EB82036B
:1022A00084F8A05084F8A10003EBC200B1E8C81F75
:1022B00004EB80003830A0E8C81F91E8C81120392D
:1022C00080E8C811204609F09DFA216800204D627F
:1022D00084F8A15084F8A000BDE8F09F002804BF56
:1022E0000120704770B5044690F8A100002520B980
:1022F000204684F8A05000F081F83F48022184F87D
:10230000A110012221688B6923F070438B61D4E90D
:10231000013C43EA0C03D4E9031C41EA0C0C21689C
:1023200043EA0C03D1F818C043EA0C038B6121681F
:102330008B6803408B602168A38AD4F818C08E682C
:1023400046EA0C0C4CEA03438B602168CB680340DF
:10235000CB602168A38BD4F820C0CE6846EA0C0C71
:102360004CEA0343CB6021680B6903400B61216891
:10237000A38CD4F828C00E6946EA0C0C4CEA03433F
:102380000B6121684B69184048612068A18D236B5F
:10239000D0F814C04CEA030343EA014141612168CB
:1023A00094F8353094F83600D1F82CC000040CF0C5
:1023B0007F4CC1F82CC040EA0321206894F83430E7
:1023C000D0F82CC04CEA03031943C1622068416B6A
:1023D00041F0040141632068416B41F00201416317
:1023E0002068816941F001018161C4F8A45084F83A
:1023F000A120002070BD000000F800F0344810B5A6
:1024000086B0016841F080610160006800F0806082
:1024100005903048016841F400010160016801F451
:1024200000010591016841F002010160016801F0BD
:1024300002010591016841F020010160016801F08D
:1024400020010591016841F040010160016801F03F
:1024500040010591016841F080010160016801F0CF
:1024600080010591016841F48071016000680324D6
:10247000202100F4807005900120CDE90204CDE90F
:10248000001015486946FFF793FD022100220E2334
:1024900004934FF480608DE8170010486946FFF7F9
:1024A00087FD4FF40C6000900D486946FFF780FDF2
:1024B0004FF47E4000900B486946FFF779FD40F2EB
:1024C000F760009008486946FFF772FD06B010BD3E
:1024D00044380240303802400004024000140240F8
:1024E00000180240001C02400020024070B5044663
:1024F00090F8A0008C46012804BF022070BD03EBB9
:10250000830000EBC301012584F8A050022004EBF6
:10251000810184F8A100C1F838C0086E6044C1E9A7
:102520000F02486E1044486438311A46204609F0BC
:1025300069F9216800204D6284F8A15084F8A00058
:1025400070BD70B5044690F8A0008C46012804BF09
:10255000022070BD03EB830000EBC300012504EBF8
:10256000800084F8A050002600F13801022084F891
:10257000A1002046C1E9006CC1E90262C1E90AC2BA
:102580001A4609F03FF92068456284F8A1500020FE
:1025900084F8A06070BD0000DFF858C0F0B4437844
:1025A0000CF10402111DCCF800300378002B04BF9D
:1025B000002010601BD043681360057BC37A827AC9
:1025C00090F80DC02F07847B47EA0367C57B47EA75
:1025D000C242467A42EA8C42037A42EA444242EAE2
:1025E0000542007842EA062242EA430210430860AC
:1025F000F0BC704798ED00E07047002804BF012050
:10260000704770B5044690F8210015460E4628B96B
:10261000002084F82000204600F018F82068211DD2
:10262000FEF7B4FBD4E900023146FEF79CFBD4E987
:1026300000022946FEF785FB20680121026842F06E
:102640000402026084F82110002070BD254870B596
:1026500086B0016841F001010160006800F00100EE
:1026600005902148016841F008010160016801F00E
:1026700008010591016841F010010160016801F055
:1026800010010591016841F04001016000680121DD
:10269000164E002400F040000590032503954020CD
:1026A0000090CDE9014169463046FFF781FC701585
:1026B00002210C2204928DE833000D486946FFF791
:1026C00077FC4DF633006946029400903046FFF7E0
:1026D0006FFC4FF4F060009006486946FFF768FC15
:1026E00006B070BD3838024030380240000C02405D
:1026F0000018024000100240410900F01F008A004B
:10270000012102F1E02201FA00F0C2F880017047D5
:10271000410900F01F008A00012102F1E02201FAC4
:1027200000F0C2F800017047164B30B41B68C3F3C9
:102730000223C3F1070CBCF1040F88BF4FF0040C57
:102740001C1D072C34BF0023DB1E012404FA0CFCE3
:1027500004FA03F5ACF101042140A5F1010C994004
:102760000CEA0202114300284FEA0111B8BF00F041
:102770000F0000F1E020B4BF80F8141D80F80014B1
:1027800030BC70470CED00E0074900F007004FF641
:10279000FF030A681A4042EA002040F0FD7040F052
:1027A00080600860704700000CED00E01C4838B500
:1027B000016841F08051016000681A4D00F08050BE
:1027C0000090286840F480302860FFF727FD044619
:1027D000686810F4803F09D1FFF720FD001BB0F5B9
:1027E0007A7F15D8686810F4803FF5D0286840F4E7
:1027F00000302860FFF712FD0446686810F4003FBF
:102800000CD100BFFFF70AFD001BB0F57A7F01D99C
:10281000032038BD686810F4003FF3D0002038BDB5
:1028200040380240007000402DE9F84F16468A46B5
:102830000446FFF7F3FC834694F83800012804BFF0
:102840000220BDE8F88F01274FF0000884F83870A7
:1028500094F83900012818BF022504D084F8388084
:102860002846BDE8F88F4FF00209C4F83C8084F890
:102870003990002220215B46204600960AF0F8FCA1
:102880000500EBD10022514620460AF063FBDAF83E
:102890002400002818BF84F83970DFD101225B467C
:1028A0000221204600960AF0E3FC0500D6D12068FC
:1028B000C0F80C9084F83970D0E700002DE9F84397
:1028C0000446FFF7ABFC002C074604BF0120BDE81F
:1028D000F88394F83800012804BF0220BDE8F8838B
:1028E0000126002584F8386094F8390038B984F856
:1028F0003850204600F048F841F2883020642068C3
:102900006FF0FF03A268016803EB022221F4F85183
:1029100011430160206C002220213B46009020469C
:102920000AF0A6FC50BB2168D4E907C32779E26806
:10293000D1F8008042EA0C0C124A43EA07634CEAE1
:10294000030328F0D00C2CF07F4C43EA0C030B60FF
:102950002168D4E9053C278AD1F8048043EA0C03B6
:1029600008EA020242EA07421A434A6021680A68FA
:1029700042F001020A60E56384F8396084F8385057
:10298000BDE8F883FEF8E0FF214830B587B0016864
:1029900041F002010160006800F0020005901D484E
:1029A000016841F002010160016801F00201059136
:1029B000016841F020010160006803240221164DE6
:1029C00000F020000590402001220A2304938DE8A6
:1029D000170069462846FFF7EBFA0021CDE90214FB
:1029E00020020E4C694600902046FFF7E1FA0420D1
:1029F00000900921284604916946FFF7D9FAC020C2
:102A0000694600902046FFF7D3FA07B030BD0000BA
:102A100038380240303802400004024000140240BE
:102A20002DE9F84F15468A460446FFF7F7FB814625
:102A30002068816994F8382000F12006012A04BF3B
:102A40000220BDE8F88F01274FF0000884F83870A5
:102A500094F83920012A18BF022003D084F8388066
:102A6000BDE8F88FBAF1000FC4F83C8035D02222BF
:102A700084F839200269521C62860269521C22863F
:102A8000C4F82CA0426922F0406242F080624261A8
:102A900020688161608E90B101224B46062120465C
:102AA00000950AF0E5FBA8B93178E06A421CE262C1
:102AB0000170608E401E6086608E0028ECD101227D
:102AC0004B460221204600950AF0D2FB10B922683D
:102AD0000221D16084F83970C0E7E16B012041F038
:102AE0000801E163BAE700002DE9F84F15468A4670
:102AF0000446FFF793FB94F83810814620680129BB
:102B000000F1200604BF0220BDE8F88F01274FF036
:102B1000000884F8387094F83910012918BF022091
:102B200004D000BF84F83880BDE8F88FBAF1000FF8
:102B3000C4F83C8031D0122184F839100169491C55
:102B400061850169491C2185C4F824A0416921F0EF
:102B500040614161608D90B101224B4604212046C5
:102B600000950AF085FBA8B9606A411C6162007893
:102B70003070608D401E6085608D0028ECD1012290
:102B80004B460221204600950AF072FB10B92268DC
:102B90000221D16084F83970C4E7E16B012041F073
:102BA0000801E163BEE700002DE9F84F0446007814
:102BB000DFF824844FF0000910F0010FCA4610D04E
:102BC000D8F8000020F40000C8F80000D8F8000091
:102BD000616B0843C8F80000606B002808BF4FF025
:102BE0000109FE4D206810F4002F10D0E06B296819
:102BF00021F4401108432860E06BB0F5801F08BF46
:102C00004FF0010903D0002808BF4FF0010A2068E7
:102C100010F4801F10D0206C296821F44001084373
:102C20002860206CB0F5800F08BF4FF0010903D079
:102C3000002808BF4FF0010A206810F0807F18BFFD
:102C40004FF0010910F0200F60D0E548016841F015
:102C5000805101600068E34F00F0805000903868B8
:102C600040F480703860FFF7D9FA0646386810F4EF
:102C7000807F09D1FFF7D2FA801B642800F24D83D0
:102C8000386810F4807FF5D0D74F386810F4407062
:102C900028D0218E01F44071814223D038683968F0
:102CA00020F4407041F480313960396821F480317A
:102CB00039603860386810F0010F13D0FFF7AEFAB2
:102CC0000646386810F0020F08BF41F2883B09D170
:102CD000FFF7A4FA801B584500F21F83386810F0F4
:102CE000020FF5D0206B4FF4407181431CBFD8F820
:102CF000000020F4F81000F0F58000BFC8F80000D4
:102D0000208E3968C0F30B0008433860207810F03B
:102D1000100F07D0286820F0807028602868A16B09
:102D2000084328602188B14811F4804F05D0616EB6
:102D3000026822F4403211430160218811F4004FEF
:102D400005D0A16E026822F440221143016021687F
:102D500011F4803F05D0E16E026822F44012114365
:102D60000160216811F4003F05D0216F026822F450
:102D7000400211430160217811F0400F05D0616CD1
:102D8000026822F0030211430160217811F0800FE4
:102D900005D0A16C026822F00C0211430160218869
:102DA00011F4807F05D0E16C026822F030021143FB
:102DB0000160218811F4007F05D0216D026822F0A6
:102DC000C00211430160218811F4806F05D0616D4C
:102DD000026822F4407211430160218811F4006FEF
:102DE00005D0A16D026822F4406211430160218880
:102DF00011F4805F05D0E16D026822F44052114366
:102E00000160218811F4005F05D0216E026822F470
:102E1000404211430160216811F4800F05D0A16F79
:102E2000026822F0806211430160216811F4001FE2
:102E30000BD0E16F026822F0006211430160E16F84
:102E4000B1F1006F08BF4FF0010A216811F0080FBF
:102E500018BF4FF0010A11F4802F05D0616F02688E
:102E600022F0407211430160216811F4000F06D076
:102E7000D4F88010026822F080521143016021686A
:102E800011F0806F06D0D4F88410026822F000524E
:102E900011430160206810F0006F06D0D4F888005C
:102EA000296821F0007108432860206810F0805FD5
:102EB00006D0D4F88C00296821F08061084328608E
:102EC000B9F1010F47F6C0794FF440364FF0706703
:102ED0004FF0E0481CBF2068B0F1007F0CD000F03C
:102EE0002CB900BFD8F8001020F4407020F07040DA
:102EF00021F4F811084301E73D48016821F08061A1
:102F00000160FFF78BF983463948006810F0006FC5
:102F10000CD000BFFFF782F9A0EB0B00642800F291
:102F2000FC813348006810F0006FF3D1207810F076
:102F3000010F34D0606B90BB2E4A106896FAA6F150
:102F4000126897FAA7F300F44030D4F804C0B1FA3D
:102F500081F199FAA9FBC84002F07061B3FA83F2DB
:102F600096FAA6FEBBFA8BF3BEFA8EFBD14097FA17
:102F7000A7FE0CFA03F2BEFA8EF3D4F808C000FAEA
:102F80000BF098FAA8FEDFF86CB010439940BEFA37
:102F90008EF208430CFA02F10843CBF800002068D7
:102FA00010F4002F03D0E16BB1F5801F06D010F4B0
:102FB000801F4CD0206CB0F5800F48D10D490868B7
:102FC00096FAA6F2096800F44030B2FA82F296FA54
:102FD000A6FC99FAA9FB0FE0083802408C380240A1
:102FE0004038024000700040703802409038024083
:102FF0000038024084380240D04097FAA7F2636854
:10300000BCFA8CFCB2FA82FEBBFA8BFB98FAA8F2EF
:1030100000FA0CF003FA0BF301F0E041D4F80CB025
:10302000B2FA82F298FAA8FCD1401843C04BBCFA1D
:103030008CFC0BFA0EF2104301FA0CF108431860F5
:103040002868616A20F01F02481E1043286020682B
:1030500010F0807F33D0B64A106897FAA7F1126853
:1030600096FAA6FB00F07060B1FA81F199FAA9FC1A
:10307000C8400090BBFA8BFB2169BCFA8CFC6068ED
:1030800098FAA8F302F0E04201FA0BF100FA0CF012
:1030900097FAA7FB40EA010E0098B3FA83F3A4491C
:1030A000BBFA8BFC98FAA8FBDA4000FA0CF3BBFAE7
:1030B0008BF04EEA030302FA00F018430860206820
:1030C00010F0007F20D099FAA9F1606896FAA6F373
:1030D000D4F808E0D4E903C2B1FA81F1B3FA83F37A
:1030E00000FA01F197FAA7FB91489A40BBFA8BF3DB
:1030F00098FAA8FB11430CFA03F2BBFA8BF31143C5
:103100000EFA03F2114301608A48016841F08061C0
:103110000160FFF783F883468648006810F0006F6F
:103120000BD100BFFFF77AF8A0EB0B0064287CD826
:103130008048006810F0006FF4D0BAF1000F75D02D
:10314000DFF8F0A1DAF8000020F08050CAF80000A3
:10315000FFF764F88346DAF8000010F0005F0AD049
:10316000FFF75CF8A0EB0B0064285ED8DAF80000EB
:1031700010F0005FF4D1206810F4002F01D0E16B53
:1031800021B110F4801F3CD0206CD0BB6A49086884
:1031900096FAA6F2096800F44030B2FA82F2636946
:1031A00096FAA6FCD04099FAA9FB97FAA7F2BCFAC6
:1031B0008CFCB2FA82FEBBFA8BFB98FAA8F200FAFA
:1031C0000CF003FA0BF301F0E041D4F818B0B2FAB6
:1031D00082F298FAA8FCD1401843574B0BFA0EF232
:1031E000BCFA8CFC104301FA0CF1084318606FF034
:1031F000FF0B2868A16A20F4F8500BEB012108436B
:103200002860206810F4001F39D0E06FB0F1006F23
:1032100035D14949086897FAA7F3096898FAA8F2DE
:1032200099FAA9FCB2FA82F201E076E07DE096FA22
:10323000A6FB00F07060B3FA83F3BBFA8BFED4F800
:1032400020B0D8406369BCFA8CFC0BFA0EFB97FAED
:10325000A7FE03FA0CF301F0E041BEFA8EFC98FAE7
:10326000A8FED14000FA0CF243EA0B0B324BBEFA37
:103270008EF04BEA020201FA00F010431860207849
:1032800010F0080F36D02C480268016896FAA6F3B1
:1032900096FAA6FCD4F814B001F44031B3FA83F3E3
:1032A00097FAA7F699FAA9F9D94002F07062B6FA2E
:1032B00086F3B9FA89F6DA40BCFA8CFC0BFA06F30D
:1032C00097FAA7F701FA0CF6B7FA87F1D4F81CC001
:1032D00098FAA8F702FA01F1B7FA87F233431943D3
:1032E0000CFA02F2114301602868E16A20F44030D0
:1032F00008432860DAF8000040F08050CAF8000067
:10330000FEF78CFF0446DAF8000010F0005F0CD1E5
:10331000FEF784FF001B642802D90320BDE8F88F64
:10332000DAF8000010F0005FF2D00020BDE8F88F5E
:103330008438024000380240883802402DE9F047C6
:10334000DFF8E48106460F46D8F8000000F00F00D1
:10335000B8420CD2D8F8000020F00F003843C8F86B
:103360000000D8F8000000F00F00B84272D13078A9
:103370006E4D10F0020F05D0B068296821F0F00101
:1033800008432860307810F0010F50D07068684909
:10339000012821D00968022823D011F0020F59D04A
:1033A000296821F0030108432860FEF737FF04462F
:1033B000706841F28839012817D00228286800F087
:1033C0000C0022D000B300BFFEF728FF001B4845C9
:1033D00029D90320BDE8F087096811F4003FDFD147
:1033E00038E011F0007FDBD134E0286800F00C00F9
:1033F00004281CD0FEF712FF001B4845E9D82868B6
:1034000000F00C000428F5D111E008280FD000BF0F
:10341000FEF704FF001B4845DBD8286800F00C00CD
:103420000828F5D103E0286810F00C0FCCD1D8F8AB
:10343000000000F00F00B8420FD9D8F8000020F0CB
:103440000F003843C8F80000D8F8000000F00F0063
:10345000B84202D00120BDE8F087307810F0040FA8
:1034600005D0F068296821F4E051084328603078DD
:1034700010F0080F06D03069296821F4604141EA54
:10348000C00028602B48296811F00C0138D02A4B65
:10349000042908BF184633D0082931D1274947F6F7
:1034A000C07C0A680C6802F03F0214F4800F0CD054
:1034B0000868B3FBF2F29CFAACF300EA0C00B3FA32
:1034C00083F3D84002FB00F20CE00B68B0FBF2F093
:1034D0009CFAACF203EA0C03B2FA82F223FA02F28B
:1034E00000FB02F208684FF4403393FAA3F100F4B2
:1034F0004030B1FA81F1C840401C4000B2FBF0F00E
:103500002968F02292FAA2F201F0F001B2FA82F2F6
:10351000D1400B4A515CC8400A4908600F20FEF7B1
:103520009DFE0020BDE8F087003C024008380240C4
:10353000003802400024F40040787D010438024045
:10354000E82B01081800022008484FF4E0520168F7
:1035500092FAA2F2064801F4E051B2FA82F2D140A6
:10356000044A0068515CC8407047000008380240B7
:1035700018000220F82B010808484FF46042016847
:1035800092FAA2F2064801F46041B2FA82F2D14006
:10359000044A0068515CC840704700000838024087
:1035A00018000220F82B010821492248096811F06F
:1035B0000C0108BF7047204B042904BF1846704710
:1035C000082918BF70474DF8044D47F6C0711B4AD3
:1035D000D2F800C014680CF03F0C14F4800F0BD02C
:1035E0001068B3FBFCF391FAA1FC0840BCFA8CF123
:1035F000C84003FB00F00AE01368B0FBFCF091FA4E
:10360000A1FC1940BCFA8CF3D94000FB01F0116811
:103610004FF440335DF8044B93FAA3F201F44031C8
:10362000B2FA82F2D140491C4900B0FBF1F0704778
:10363000083802400024F40040787D01043802403C
:103640002DE9F84FF64F05460078A7F1040810F071
:10365000010FA8F1040659D0386800F00C000428C6
:1036600009D0386800F00C0008280DD1D8F8000007
:1036700010F4800F08D0306810F4003F46D068681E
:10368000002800F0C98141E06868B0F5803F04BFC0
:10369000306840F480300AD010B1B0F5A02F11D0BE
:1036A000306820F480303060306820F48020306052
:1036B0006868D0B1FEF7B2FD0446306810F4003FF0
:1036C00008D023E0306840F480203060306840F457
:1036D0008030ECE7FEF7A2FD001B642800F2358184
:1036E000306810F4003FF5D010E0FEF797FD044677
:1036F000306810F4003F09D0FEF790FD001B6428ED
:1037000000F22381306810F4003FF5D1287810F0E2
:10371000020F5AD038684FF0F80910F00C0F18D08B
:10372000386800F00C00082804BFD8F8000010F436
:10373000800F0ED0E8680028306832D040F00100D9
:103740003060FEF76BFD0446306810F0020F13D0B6
:103750001BE0306810F0020F1CBFE868012840F041
:103760005B812869316899FAA9F2B2FA82F221F0F4
:10377000F8019040084312E0FEF750FD001B0228BC
:103780007ED8306810F0020FF6D02969306899FAB7
:10379000A9F2B2FA82F220F0F800914008433060BA
:1037A00013E020F001003060FEF738FD0446306879
:1037B00010F0020F09D000BFFEF730FD001B0228F9
:1037C0005ED8306810F0020FF6D1287810F0080F9C
:1037D00034D0DFF8509268690028D9F8000016D07C
:1037E00040F00100C9F80000FEF718FD0446D9F8C2
:1037F000000010F0020F21D1FEF710FD001B02287F
:103800003ED8D9F8000010F0020FF5D016E020F0F5
:103810000100C9F80000FEF701FD0446D9F80000D8
:1038200010F0020F0AD000BFFEF7F8FC001B0228C0
:1038300026D8D9F8000010F0020FF5D1287810F042
:10384000040F69D07848016841F080510160006838
:10385000DFF8D89100F080500090D9F8000040F4D3
:103860008070C9F80000FEF7D9FC0446D9F80000C2
:1038700010F4807F0CD100BFFEF7D0FC001B00E0ED
:1038800063E0642861D8D9F8000010F4807FF3D099
:10389000A868674C012804BF206840F0010009D0E7
:1038A00008B1052813D0206820F0010020602068AE
:1038B00020F004002060A86841F2883AD0B1FEF7F9
:1038C000ADFC8146206810F0020F08D024E020688B
:1038D00040F004002060206840F00100EAE7FEF7B5
:1038E0009DFCA0EB090050452FD8206810F0020F76
:1038F000F5D011E0FEF792FC8146206810F0020F2F
:103900000AD000BFFEF78AFCA0EB090050451CD886
:10391000206810F0020FF5D1A869E8B3396801F00A
:103920000C01082978D00228306820F080703060BF
:103930000ED0FEF773FC0446306810F0007F68D0AC
:10394000FEF76CFC001B02285FD90320BDE8F88F4E
:10395000FEF764FC0446306810F0007F09D000BF19
:10396000FEF75CFC001B0228EFD8306810F0007FE7
:10397000F6D1D5E909C147F6C0704FF0FF324FF4D8
:10398000403790FAA0F497FAA7F002EB51074FF0F6
:103990007069B4FA84F100E03BE0D5E90732B0FA8F
:1039A00080F00CFA01FA07FA00F043EA020199FAF2
:1039B000A9F74FF0E0444AEA0003D5E90BC294FAB4
:1039C000A4F4B7FA87F019430CFA00F0B4FA84F3C0
:1039D000084302FA03F10843C8F80000306840F0D9
:1039E00080703060FEF71AFC0446306810F0007FEB
:1039F0000FD100BFFEF712FC001B0228A5D83068CB
:103A000010F0007FF6D004E006E0306810F0007F90
:103A100096D10020BDE8F88F0120BDE8F88F0000A6
:103A200008380240743802404038024000700040BC
:103A300070380240002804BF0120704770B504466A
:103A400090F82C000D4628B9002084F82D0020465F
:103A500000F012F8022084F82C002068211DFDF7E8
:103A60005FFAD4E900022946FDF7BBFA012084F889
:103A70002C00002070BD00002F484DF804ED87B0E9
:103A8000016841F001010160006800F0010005904B
:103A90002A48016841F004010160016801F0040155
:103AA0000591016841F008010160016801F0080119
:103AB0000591016841F010010160016801F01001F9
:103AC0000591016841F020010160016801F02001C9
:103AD0000591016841F04001016000680221012266
:103AE0004FF00C0C00F0400005900D2003238DE8F2
:103AF0000F1013486946FEF75BFA4CF20370009012
:103B000010486946FEF754FA4FF6837000900E484D
:103B10006946FEF74DFA4FF63F0000900B486946A4
:103B2000FEF746FA48F23710009009486946FEF75A
:103B30003FFA07B05DF804FB3838024030380240E5
:103B400000080240000C0240001002400014024035
:103B50000018024010B5044690F82C00022808BF57
:103B600010BD022084F82C002068FDF70BFA01201C
:103B700084F82C00002010BD70B5044690F82C008D
:103B80000D46022808BF70BD022084F82C00206872
:103B9000FDF7FEF9286802280CBF0520012084F8F3
:103BA0002C00002070BD00002DE9F00F90F82020BF
:103BB00081F85620828CA1F85420826A120E4FEAB6
:103BC000921C81F800C0C2F3830302F003024B7021
:103BD0008A70826A120CCA70028D120A0A7190F8F9
:103BE00028204A714FF6FF79C26A120E09EA0212C2
:103BF000CA80CB88C26AC2F307424FEA121C02F0A5
:103C00000F0243EA0C03CB800A720023828DC2F3B9
:103C100007224FEAD21C81F809C0C2F38014C2F314
:103C20004015C2F300168C72CD720E734B734FF0B9
:103C3000010C046A1F46002C18BF012C00F0B7804D
:103C4000022C18BF292700F0F58000BFC2F38014B2
:103C50004C769206520E8A7690F830208C7ED509EA
:103C60002C438C7602F07F02CA76426B120ED40986
:103C70000C77C2F34115C2F3820692074D778E7717
:103C8000120FCA77CC7F426BC2F3074244EA921408
:103C9000CC77C2F3401502F0010281F8205081F880
:103CA000213081F82220828EC2F30722D30981F8C5
:103CB0002330C2F38014C2F34015C2F30016C2F3DE
:103CC000810802F0030281F8244081F8255081F830
:103CD000266081F8278081F8282090F83420520847
:103CE00081F8292081F82AC0826B120E81F82C20DD
:103CF000826B120C09EA0222CA85CB8D028FC2F3B5
:103D000007221A43CA8590F8382012060A630B6B03
:103D1000C26B120E43EA02420A630B6BC26BC2F320
:103D2000074243EA02220A630B6B828FC2F3072227
:103D30001A430A6390F83C2081F83420026C120E7A
:103D400081F83520026C120C12068A638B6BB0F876
:103D50004020C2F3072243EA02428A638B6B90F849
:103D6000402043EA02228A638B6B426C43EA126270
:103D70008A6391F83C30426CC2F30742150743EA6C
:103D8000121281F83C202B0DCB87CB8FB0F844204A
:103D9000C2F307221A43CA8790F84400400881F80A
:103DA000400081F841C03846BDE8F00F70479207E7
:103DB000120D0A610C6990F82C2044EA82020A6113
:103DC0000C69026B120E44EA92140C61C2F3C20633
:103DD00002F007020E754A75026BC2F307429407A0
:103DE00055098D75C2F38202CA75640F0C760C7E7C
:103DF000028EC2F3072244EAD2140C760C690E7EBE
:103E00000D7A0CFA05F5B61C0D650CFA06F8641C63
:103E10004FEAE87AA4FB086B03FB08B804FB0A84AA
:103E2000A6FB058A04FB05A406FB0344C1E9128432
:103E30000CE700BF90F82C204FF400749206920A11
:103E40000A610D69026B120E45EA02220A610D69D0
:103E5000026BC2F307422A430A610A69068E551CA7
:103E6000C6F3072243F100064FEAC6486E0BED0485
:103E70008D6448EA0606C1E91364E7E62DE9F34FCD
:103E80008DB0044600258DF82850057700F0ECF938
:103E9000762000952B462A462946CDE90150206818
:103EA00009F03FFB00278DF80050B94620684168B3
:103EB00021F480714160206809F048FB0120FEF781
:103EC0006BF820684FF48066416841F4807141606E
:103ED000029502A903950495CDE90556206809F0DD
:103EE0003CFB22680023B001516BC1F3C01104E018
:103EF000516B401EC1F3C01111D00029F8D0002829
:103F00001CBF40F2FF50906309D000BF8DF8003015
:103F10009DF800004FF0040B00287DD101E0032341
:103F2000F4E708214FF4D5704FF04008CDF8108029
:103F3000CDE90201206802A909F00FFB20682921C0
:103F40004FF48032436B13F0450F07D1436BA2F15E
:103F5000010213F0450F01D1002AF7D1436B002A6B
:103F6000C3F3800200D01AB10321C0F838B006E0D4
:103F7000426B12F0400F1CBF0021C0F838808DF852
:103F800000109DF8000018B9012020624FF0804910
:103F90004FF0370A02A9CDE9025A206809F0DDFA8C
:103FA0003721204609F06CFB8DF800009DF80000D9
:103FB000002804BF49F4801949F0004951D100BFDD
:103FC000CDE9025ACDF8108002A9CDE90556206846
:103FD00009F0C3FA3721204609F052FB8DF80000A2
:103FE0009DF80000C0B92920CDF80890CDE903085C
:103FF000CDE90556206802A909F0AFFA2068002231
:10400000416B11F0450FFBD0416B11F0040F04BF61
:1040100040F2FF51816300E023E01CBF0322C0F89F
:1040200038B08DF800209DF80000D0B9206800213C
:1040300009F070FAC10F07F1010703D14FF6FF71C4
:104040008F42BDD34FF6FF718F4205D31B208DF8F1
:1040500000009DF8000006E010F0804F1CBF022019
:1040600020629DF800008DF828009DF828000028A7
:104070007ED14FF00108ADF804802068002709F0D8
:1040800045FA002816BF206A2527042857D00220A9
:104090000896C021CDE90615CDE90450206804A991
:1040A00009F05BFA20680027416B11F0450FFBD047
:1040B000416B11F0040F7BD1416B11F0010F7BD1EB
:1040C00040F2FF5181632068002109F023FAA063C8
:1040D0000421206809F01EFAE0630821206809F035
:1040E00019FA20640C21206809F014FA6064206A2F
:1040F000002818BF012803D0062818BF02283DD188
:1041000040210320CDE90501206804A909F025FA22
:10411000206800270DF104094FF0030A416B11F0EC
:10412000450FFBD0416B11F0040F41D1416B11F0F1
:10413000010F46D109F0E7F9504501D010275BE0A7
:10414000216840F2FF5088630021206809F0E2F9FD
:1041500010F4604F04BF000CA9F800000ED010F45A
:10416000005F18BF132747D110F4804FE6D100E05D
:1041700047E010F4004F18BF0F273DD1206A0428F4
:104180003AD0BDF8040009226062C02306930104FE
:10419000CDE90412206804A909F0DFF9206800279E
:1041A000416B11F0450FFBD0416B11F0040F04D0AF
:1041B0000327C0F838B01FE003E0416B11F0010F96
:1041C00003D04746C0F8388016E040F2FF518163C3
:1041D0002068002109F09EF9A0620421206809F0FE
:1041E00099F9E0620821206809F094F920630C2114
:1041F000206809F08FF960638DF828709DF8280019
:1042000020B19DF828000FB0BDE8F08F0E99204630
:10421000FFF7CAFC8DF828009DF82800A0B90E9879
:1042200007224021B0F8540005960004CDE90102B0
:10423000CDE90315206801A909F08FF9072120466F
:1042400009F01EFA8DF82800D4E90401A26902924F
:10425000CDE9000194E80F0009F063F99DF828000A
:104260000FB0BDE8F08F00001D484DF804ED87B099
:10427000016841F400610160006800F4006005908D
:104280001848016841F480010160016801F480016F
:104290000591016841F004010160016801F0040129
:1042A0000591016841F008010160006802210122C6
:1042B0004FF00C0C00F00800059003234FF4F85069
:1042C0008DE80F1008486946FDF772FE0420009043
:1042D00006486946FDF76CFE07B05DF804FB000078
:1042E000443802403038024000080240000C0240CE
:1042F0002DE9F04F91B00446006816460D464FF088
:104300000008DDE91A79C0F82C80206A022803D160
:104310000702500A40EAC3560097402010220101CC
:10432000CDE90120CDE903812068694609F015F93E
:104330001021204609F0A4F900281CBF11B0BDE8E7
:10434000F08F09FB07F001234FF0020A4FF0FF3115
:104350009022CDE90610CDE9082ACDE90A8320682C
:1043600006A909F0B9F8B9F1010F8CBF122011208C
:10437000009601906946206809F0EFF8B9F1010F45
:1043800023D91221204609F07BF907001CBF11B088
:10439000BDE8F08F2068406B10F4957F3AD120681B
:1043A000406B10F4004F18BF002608D0206809F0B9
:1043B000D1F845F82600761C082EF7D32035206862
:1043C000406B10F4957FEAD024E01121204609F0DB
:1043D00057F907001CBF11B0BDE8F08F40F22A4B1F
:1043E0002068406B10EA0B0F14D12068406B10F46A
:1043F000004F18BF002608D0206809F0ABF845F838
:104400002600761C082EF7D320352068406B10EA72
:104410000B0FEAD02068406B10F4807F18BFB9F111
:10442000010F16D9206A00281CBF0128022810D1CC
:104430000C224020CDE90E0801011091CDE90C823B
:1044400020680CA909F089F80C21204609F018F918
:1044500007462168486B10F0080F1CBF0822042093
:1044600003D08A6311B0BDE8F08F486B10F0020FE3
:104470001FBF5046C1F838A011B0BDE8F08F486B9F
:1044800010F0200F1ABF202206204FF0FF36E8D18F
:1044900005E000BF09F05EF8761E45F8040B2068C1
:1044A000416B11F4001F18BF002EF3D1014640F2FA
:1044B000FF50886311B03846BDE8F08F2DE9F04F0A
:1044C0000546006A00240F4603288BB002BF272050
:1044D0000BB0BDE8F08F00281CBF0128022850D186
:1044E000B7F5805F08BF27244BD0B7F5006F4FF0BA
:1044F00037084FF4806A4FF040094FF0060B4FF039
:10450000000604D0002F18BF262430D06EE000969D
:1045100000210196286808F0FDFF10F0007F2FD1E0
:104520006946284609F038F988BB019810F4802FB5
:1045300060D0A88C04A9CDE90696CDF820A000048F
:10454000CDE90408286809F008F83721284609F061
:1045500097F8E0B90220CDE9040B286804A908F017
:10456000FCFF0621284609F08BF880B933E0049659
:1045700000210596286808F0CDFF10F0007F01D0DB
:104580000E2433E004A9284609F006F908B10446D0
:104590002CE0059810F4803F2CD0A88C06A9CDE91A
:1045A0000896CDF828A00004CDE90608286808F090
:1045B000D4FF3721284609F063F80028E7D1CDE978
:1045C000066B286806A908F0C8FF0621284609F0EE
:1045D00057F80028DBD1D5E905C0EB68D5E9011211
:1045E0000097CDE901C0286808F09BFF0BB020467A
:1045F000BDE8F08F2524F9E72DE9F04F93B04FF097
:10460000000A044617460D465646DDE91C898DF81A
:1046100018A00068C0F82CA0206A022804D1500A13
:104620004FF4007840EAC357CDF81C801020402199
:104630008201CDE90801CDE90AA2206807A908F0A6
:104640008CFF1021204609F01BF800281CBF13B076
:10465000BDE8F08FB9F1010F8CBF19201820079722
:10466000089007A9206808F078FFB9F1010F04D974
:104670001921204609F004F803E01821204608F02B
:10468000FFFF00281CBF13B0BDE8F08F09FB08F83E
:1046900001234FF0FF3200209021CDE91003CDE936
:1046A0000E10CDE90C2820680CA908F015FF206831
:1046B000B9F1010F35D9406B10F48D7F68D12068B6
:1046C000406B10F4804F26D0A8EB0600202828BFAE
:1046D000002716D210F0030F0EBF4FEA900A800891
:1046E00000F1010A0027BAF1000F14D92068294609
:1046F00008F048FF2D1D7F1CBA4506F10406F5D8C9
:1047000009E0206805EB870108F03CFF7F1C082FBB
:10471000F7D3203520362068406B10F48D7FCED043
:1047200036E0406B40F21A4A10EA0A0F30D1206896
:10473000406B10F4804F26D0A8EB0600202828BF3D
:10474000002716D210F0030F0EBF4FEA900B80081F
:1047500000F1010B0027BBF1000F14D92068294696
:1047600008F010FF2D1D7F1CBB4506F10406F5D88F
:1047700009E0206805EB870108F004FF7F1C082F83
:10478000F7D3203520362068406B10EA0A0FCED0D0
:104790002068406B10F4807F18BFB9F1010F16D963
:1047A000206A00281CBF0128022810D10C230020F9
:1047B0004021CDE901030A010592CDE903102068EB
:1047C00001A908F0CAFE0C21204608F059FF216813
:1047D000486B10F0080F1CBF0822042003D08A6326
:1047E00013B0BDE8F08F486B10F0020F1FBF02201E
:1047F000886313B0BDE8F08F486B10F0100F19BF3D
:104800001022052040F2FF508863E8D106A9204617
:1048100009F078F800281CBF13B0BDE8F08F9DF8B0
:104820001810072918BF0629F0D013B0BDE8F08F83
:10483000002804BF0120704770B5044690F8450079
:1048400015460E4628B9002084F84400204600F0A2
:104850001BF8206804F10801FCF7DAFAA268314677
:104860002068FCF725FBE36A2946D4E90102FCF73E
:10487000ABFAA168206850F8212042F0010240F80C
:104880002120002070BD000019484DF804ED87B0CC
:10489000016841F001010160006800F0010005902D
:1048A0001448016841F008010160016801F0080145
:1048B0000591016841F010010160006802210122A8
:1048C0004FF00C0C00F01000059003234EF2B37073
:1048D0008DE80F1008486946FDF76AFB4FF68070B7
:1048E000009006486946FDF763FB07B05DF804FBDE
:1048F0003838024030380240000C024000100240BC
:1049000004284FF0E02001690CBF41F0040121F0C0
:104910000401016170470000401EB0F1807F24BF98
:10492000012070474FF0E0214861F020034A82F8EF
:10493000140D0020072288610A6170470FE000E033
:1049400070477047002804BF0120704710B5044627
:1049500090F83900002804BF204600F00DF802202E
:1049600084F839002068211D09F07CFA012084F8C0
:104970003900002010BD0000094808B5016841F069
:104980000201016000680322012100F00200009092
:104990001D20FDF7C9FEBDE808401D20FDF7B8BE8B
:1049A000403802400168CA6842F00102CA600068EB
:1049B000016841F00101016000207047704770B547
:1049C000044600680025016911F0020F1CBFC16890
:1049D00011F0020F13D001216FF002020261217663
:1049E0002068806910F0030F204602D0FFF7E6FF31
:1049F00004E000F0A6F8204600F0A6F9257620682D
:104A0000016911F0040F1CBFC16811F0040F13D02D
:104A100002216FF00402026121762068806910F49F
:104A2000407F204602D0FFF7C9FF04E000F089F87C
:104A3000204600F089F925762068016911F0080FF9
:104A40001CBFC16811F0080F13D004216FF00802D9
:104A5000026121762068C06910F0030F204602D061
:104A6000FFF7ACFF04E000F06CF8204600F06CF9B2
:104A700025762068016911F0100F1CBFC16811F084
:104A8000100F13D008216FF0100202612176206808
:104A9000C06910F4407F204602D0FFF78FFF04E08A
:104AA00000F04FF8204600F04FF9257620680169A4
:104AB00011F0010F1CBFC16811F0010F05D06FF09C
:104AC00001010161204600F061F920686FF0800566
:104AD000016911F0800F1CBFC16811F0800F03D075
:104AE00005612046FFF72CFF2068016911F4807FE3
:104AF0001CBFC16811F0800F03D005612046FFF78D
:104B00001FFF2068016911F0400F1CBFC16811F040
:104B1000400F05D06FF040010161204600F05EF9C2
:104B20002068016911F0200F1ABFC16811F0200F31
:104B300070BD6FF0200101612046BDE87040FFF7B5
:104B400000BF70472DE9F047044690F838000D4645
:104B500001280DBF0220012684F83860BDE8F087E7
:104B600002200C2A84F8390047D006DC6AB1042AF6
:104B70001DD0082A2FD000F0BFB8DFF88CC1102A52
:104B8000624B4ED0142A7DD0B6E0206809F0CAF9F5
:104B90002068816941F0080181612068816921F004
:104BA00004018161206829698269114311E020684C
:104BB00009F0EBF92068816941F4006181612068A6
:104BC000816921F48061816120682969826942EAF2
:104BD0000121816190E0206809F00DFA2068C16927
:104BE00041F00801C1612068C16921F00401C1617F
:104BF00020682969C269114311E0206809F031FA7F
:104C00002068C16941F40061C1612068C16921F473
:104C10008061C16120682969C26942EA0121C161DC
:104C20006AE02068016A21F480310162076A416804
:104C3000426D6045B5F8089027F40037D5F800803C
:104C400022F0700222F4803247EA094C48EA02025C
:104C500018BF984204D16B6921F4803141EA0321E5
:104C60004160426569688165C0F820C02068416D77
:104C700041F0080141652068416D21F00401416562
:104C8000206800E003E02969426D114333E02068A9
:104C9000016A21F480110162026A4168476D604532
:104CA000B5F8089022F40012D5F8008027F4E04C03
:104CB0002CF0807C42EA09524CEA082C18BF98423A
:104CC00004D16B6921F4802141EA83214160C0F85D
:104CD00054C06968C16502622068416D41F4006199
:104CE00041652068416D21F4806141652068296932
:104CF000426D42EA01214165002084F8396084F860
:104D00003800BDE8F08700000000014000040140C9
:104D1000002804BF0120704710B5044690F8390000
:104D200028B9002084F83800204600F00CF8022052
:104D300084F839002068211D09F094F8012084F8D6
:104D40003900002010BD704770470268012303FA44
:104D500001F1136A8B431362136A194311620168EC
:104D6000A1F18042B2F580321CBFA1F18042B2F5C0
:104D7000823203D14A6C42F400424A6400680168FE
:104D800041F001010160002070470000084988429D
:104D900018BF704710B5074C07A02178FBF7D6FA6B
:104DA0000848018808A0FBF7D1FA0020207010BD48
:104DB00014190220440002206672616D653A256470
:104DC0000D0A0000080002206A7065675F64617464
:104DD000615F6C656E3A25640D0A0000704770478C
:104DE00070B5016804462025C8690A688B6810F010
:104DF0000F0F5CD040F2011C13EA0C0F00F0F8809A
:104E000010F0010F18BF12F4807F07D04FF0010C93
:104E1000C1F820C0E16E41F00101E16610F0020F1F
:104E200018BF13F0010F08D0D4F800C00221CCF84D
:104E30002010E16E41F00401E16610F0040F18BF8C
:104E400013F0010F08D0D4F800C00421CCF82010D2
:104E5000E16E41F00201E16610F0080F0CD002F0A3
:104E6000200103F00103194306D0236808211962C9
:104E7000E16E41F00801E166E16E002908BF70BDF6
:104E800010F0200F18BF12F0200F0BD094F86A20FA
:104E90002046B4F85C10222A47D02068816941F08E
:104EA00008018161E06E10F0080F71D16BE010F025
:104EB000200F18BF12F0200F7DD094F86A302046E2
:104EC000B4F85C20222B04D0886940F00800886187
:104ED00070BD8368B3F5805F04BF0369002B4B6A24
:104EE000416D03EA02021BD04B1C436581F8002090
:104EF000B0F85A10491E0904090CA0F85A1018BF3E
:104F000070BD01680A6822F490720A6001688A68BC
:104F100022F001028A6080F86A5000F0CEF970BD7C
:104F20000A80416D891C4165E2E78268B2F5805FC5
:104F300004BF0269002A0368426D5B6A1DD002F15A
:104F4000010CC0F854C0194082F80010B0F85A1093
:104F5000491E0904090CA0F85A10A3D101680A6877
:104F600022F490720A6001688A6822F001028A6065
:104F700080F86A5000F0A1F994E719401180416D62
:104F8000891C4165E2E72068806810F0400F29D055
:104F90002068016821F4907101602068816821F027
:104FA0000101816084F86A502068816811F0400F27
:104FB00014D0816800E01BE021F040018160606E48
:104FC00060B12D490165606EFCF79BFE002808BFAB
:104FD00070BD606E016DBDE8704008472046FFF768
:104FE000FEFE70BD2046FFF7FAFE0020E06670BDB1
:104FF00010F0800F18BF12F0800F2DD094F86900C8
:10500000212818BF70BDB4F8520098B1A068B0F55F
:10501000805F04BF20690028E06C15D0411CE1646A
:1050200021680078C1F82800B4F85200401EA4F8A6
:10503000520070BD086820F0800008602068016898
:1050400041F04001016070BD0088C0F30800886233
:10505000E06C801CE064E7E710F0400F14BF12F032
:10506000400F70BD0A68204622F040020A6084F8B2
:10507000695000F023F970BDF5E10008002804BF75
:105080000120704710B5044690F8690028B9002047
:1050900084F86800204600F029F8242084F869008C
:1050A0002068016821F001010160204609F0ACF898
:1050B000012808BF10BD606A00281CBF204608F008
:1050C000FCFF2068416821F49041416020688168BC
:1050D00021F02A0181602068016841F0010101602E
:1050E0002046BDE8104009F055B8000030B5044630
:1050F000006887B0A0F18041B1F588311CBF07B0CE
:1051000030BD1A48016841F001010160006800F0FB
:10511000010005901648016841F010010160006827
:105120000122144D072300F0100005900220049383
:105130000102CDE90010CDE9022069462846FCF7BE
:1051400037FF2815694600902846FCF731FF206894
:10515000016841F0200101602520FDF7D9FA032202
:1051600025201146FDF7E0FA07B030BD3038024087
:1051700044380240000002402DE9F05F044690F8F8
:105180006A001D4617460E46202868D1002E12BF21
:10519000002F0120BDE8F09F94F8680001285ED040
:1051A000012084F8680022214FF0000BC4F86CB095
:1051B00084F86A10FDF732F88046A068FF21A4F851
:1051C0005870B0F5805FA4F85A7006D04FF07F0297
:1051D00050B1B0F1805F0CD012E02069002808BF08
:1051E00040F2FF1002D109E02069B8BBA4F85C10BE
:1051F00006E02069002818BF3F2031D0A4F85C00E9
:10520000B4F85C9009F0FF0AB4F85A00401EA4F804
:105210005A0020682027C06937EA000028D000BF64
:10522000B5F1FF3F1FD02DB1FCF7F8FFA0EB08014F
:10523000A94218D3216820200A6822F4D0720A609B
:1052400021688A6822F001028A6084F8690084F883
:105250006A00032084F868B0BDE8F09F00E029E010
:10526000A4F85C20CCE72068C06937EA0000D7D1F9
:10527000A068B0F5805F04BF2069002812D02068C4
:10528000406A00EA0A0006F8010B00BFB4F85A00B1
:105290000028B9D1202084F86A00002084F868B082
:1052A000BDE8F09F21683046B61C496A01EA090151
:1052B0000180EBE70220BDE8F09F70477047FEE7F2
:1052C000114810B586B0016841F0800101600068A6
:1052D00002220E4C302100F0800005900120CDE923
:1052E0000202CDE9001069462046FCF761FE01226A
:1052F00020462021FCF78DFF012220461021FCF7DB
:1053000088FF06B010BD000030380240001C02408B
:105310002DE9F041374E074600243068254620F439
:105320004060306030683060002210213046FCF769
:1053300070FF022009F03EFC012230461021FCF7EC
:1053400068FF60062021040E3046FCF759FF002854
:105350001CBF601CC4B2012009F02CFC681CC5B243
:10536000082DE1D34FF000024FF0100130460FB38B
:10537000FCF74FFF306820F440603060306840F444
:1053800080603060002230462021FCF742FF02207E
:1053900009F010FC012230461021FCF73AFF0220F0
:1053A00009F008FC002230461021FCF732FF2046AD
:1053B000BDE8F081FCF72DFF306820F440603060DC
:1053C000306840F480603060012230462021FCF7D4
:1053D00020FF022009F0EEFB012230461021FCF7ED
:1053E00018FF022009F0E6FB002230461021FCF7EE
:1053F00010FFDCE7001C024070B51C4C064620463E
:10540000216821F440612160216841F480612160BC
:1054100000221021FCF7FDFE5FF0000516F0800F62
:1054200005D0012220462021FCF7F3FE04E00022F3
:1054300020462021FCF7EDFE7006060E022009F042
:10544000B9FB012220461021FCF7E3FE022009F0FF
:10545000B1FB002220461021FCF7DBFE022009F000
:10546000A9FB681CC5B2082DD8D370BD001C024032
:1054700010B5124C206820F440602060206840F491
:1054800080602060012220462021FCF7C2FE01221C
:1054900020461021FCF7BDFE042009F08BFB002202
:1054A00020462021FCF7B5FE042009F083FB0022F2
:1054B0002046BDE810401021FCF7ABBE001C0240A6
:1054C00010B5124C206820F440602060206840F441
:1054D00080602060002220461021FCF79AFE002206
:1054E00020462021FCF795FE042009F063FB0122F1
:1054F00020461021FCF78DFE012220462021FCF7DA
:1055000088FEBDE81040042009F054BB001C024096
:1055100070B5294D0024286820F440602860286870
:105520002860012220212846FCF773FE012009F0A3
:1055300041FB012228461021FCF76BFE012009F0F7
:1055400039FB20212846FCF75BFE00282DD0611C8A
:10555000CCB2FA2C23D9286820F44060286028684F
:1055600040F480602860002228461021FCF751FE9C
:10557000002228462021FCF74CFE042009F01AFBEB
:10558000012228461021FCF744FE01222846202152
:10559000FCF73FFE042009F00DFB012070BD202127
:1055A0002846FCF72DFE0028D1D1002228461021E4
:1055B000FCF72FFE002070BD001C02401B4870B598
:1055C00086B0016841F001010160016801F001014C
:1055D0000591016841F004010160016801F00401D6
:1055E0000591016841F080010160006803240026F4
:1055F000694600F08000059002200125CDE90204F3
:105600000B48CDE90056FCF7D3FC68036946CDE9A9
:1056100000060848CDE90254FCF7CAFC0C200090B3
:1056200005486946FCF7C4FC06B070BD303802403E
:105630000000024000080240001C024070B506460F
:105640001448134D0168288821B13046BDE87040E8
:1056500005F028BE698801FB00F40021084605F02A
:105660009FF90D4928890880002C08BF70BD04F0FF
:1056700001010A48B2B2012908BF0280A14228BF35
:1056800070BD891C0280A1420280FAD370BD000067
:10569000F8030220B0040220FEFF0760000008604B
:1056A0002DE9F05F3D4C3E4DA071296839B105F000
:1056B0006BFEE88A2080288B6080BDE8F09F002880
:1056C00036484FF4305B4FF0F0084FF4285E49F253
:1056D00041394FF448764FF02C0380884FF4A07284
:1056E0004FF4F0714FF02A0C4FF02B0545F2105A91
:1056F00045F210370BD022804845A4F8028018BF2D
:10570000B8422BD12381A4F80AC0A5813DE0A4F8BA
:1057100000804845628018BFB84208D12381B84252
:10572000A4F80AC0A58104BF2280618031E0504501
:1057300009D1A4F808B04FF42C50A4F80AE0A081D5
:105740002180668025E0A0F5C852633A21D12381EB
:105750006581A4F80CC0218066801AE0504509D10B
:10576000A4F808B04FF42C53A4F80AE0A3812680D3
:1057700061800AE0A0F5C858B8F1630805D123811B
:10578000A4F80AC0A58126806180B84204BF2180A8
:1057900062800020BDE8F05F04F072BFF8030220D1
:1057A000B00402202DE9F84F934B1B681BB1BDE8F4
:1057B000F84F05F0FDBD924C0E0ADFF840C2CDB2A5
:1057C00027460CF10203B4F8049000F0FF08B989F1
:1057D0004FEA102A7F89A9F5134BBBF1410B1CBF7F
:1057E000A9F5A04BBBF5447B0AD0A9F5A04BBBF5AE
:1057F000A26B3ED0A9F5C858B8F163087DD0F4E09B
:10580000ADF80070BDF80000ADF80000BDF8000074
:10581000ACF80000ADF800A0BDF80000ADF8000045
:10582000BDF800001880ADF80080BDF80000ADF8AC
:105830000000BDF800001880ADF80010BDF80000B1
:10584000ADF80000BDF80000ACF80000ADF8006055
:10585000BDF80000ADF80000BDF800001880ADF8FC
:105860000050BDF80000ADF80000BDF80000188041
:10587000BBE0ADF80070BDF80000ADF80000BDF869
:105880000000ACF80000ADF800A0BDF80000ADF8D5
:105890000000BDF800001880781CADF80000BDF8CD
:1058A0000000ADF80000BDF80000ACF80000ADF855
:1058B0000080BDF80000ADF80000BDF800001880C1
:1058C000ADF80010BDF80000ADF80000BDF8000014
:1058D000ACF80000ADF80060BDF80000ADF80000C5
:1058E000BDF800001880481CADF80000BDF80000AD
:1058F000ADF80000BDF8000000E00BE0ACF80000DF
:10590000ADF80050BDF80000ADF80000BDF8000093
:1059100018806AE094F80680B8F1000F05D1B4F859
:105920000080A8EB0000401E80B2ADF80070BDF80A
:105930000070ADF80070BDF80070ACF80070070A98
:10594000ADF80070BDF80080ADF80080BDF80080B3
:10595000A3F80080C0B2ADF80000BDF80080ADF83B
:105960000080BDF80080A3F80080ADF80070BDF89D
:105970000070ADF80070BDF800701F80ADF8000039
:10598000BDF80000ADF80000BDF800001880ADF8CB
:105990000010BDF80000ADF80000BDF80000ACF844
:1059A0000000ADF80060BDF80000ADF80000BDF8E3
:1059B00000001880ADF80050BDF80000ADF8000000
:1059C000BDF800001880ADF80060BDF80000ADF82B
:1059D0000000BDF800001880ADF80050BDF80000D0
:1059E000ADF80000BDF8000018802089ACF8000078
:1059F0001A80BDE8F88F0000B0040220FEFF0760A7
:105A0000F80302202DE9F84F0C461D4981461F4638
:105A10000A98096831B121460090484605F0EAFC31
:105A2000BDE8F88FA2EB090101F101018DB2BC4282
:105A300088BFBDE8F88F86B2DFF84CB0DFF844A02D
:105A40000BF102082146484604F0AAFFBAF8080004
:105A5000ABF8000075B115F0010018BFA8F80060A0
:105A6000A84207D2801CA8F8006080B2A8F80060A5
:105A7000A842F7D3601C84B2BC42E3D9BDE8F88FDA
:105A8000B0040220F8030220FEFF076000000000BF
:105A90002DE9F04F99B005F059FEFE49FE4D05F194
:105AA0000204888018B105F007FD04F083BDFB48AF
:105AB00001460068F94A40F00200086010680127BA
:105AC0004FF0030A4FF0200B00F002001390F4484F
:105AD0006946CDE900B7CDE9027AFCF769FADFF84B
